:100000000C942C070C945D070C945D070C945D0711
:100010000C945D070C945D070C945D070C945D07D0
:100020000C945D070C945D070C945D070C945D07C0
:100030000C945D070C945D070C945D070C945D07B0
:100040000C945D070C945D070C945D070C945D07A0
:100050000C945D070C945D070C945D070C94FE48AE
:100060000C945D070C94864C0C94BC4C0C945D076E
:100070000C945D070C945D070C945D070C945D0770
:100080000C945D070C945D070C945D070C945D0760
:100090000C945D070C945D070C945D070C94142779
:1000A0000C945D070C945D070C945D070C945D0740
:1000B0000C945D070C945D070C945D070C945D0730
:1000C0000C945D070C945D070C945D070C945D0720
:1000D0000C945D070C945D070C945D070C945D0710
:1000E0000C945D073F4A424A314A354A3B4A794AB5
:1000F000464A4A4A504A544A584A5E4A624A664AFE
:10010000794A6C4A704A744A0C94A6160C94794A3F
:100110000C94334D0C94124B0C9432320C945D16AB
:100120000C94664A0C944A4A0C947A250C94BF4B62
:100130000C94C5310C94544A0C94F4120C946D1226
:100140000C9409170C9486330C94E4280C947D16B7
:100150000C94DC160C941D4B0C9408160C9465162C
:100160000C946B140C94424A0C9417130C94354A5B
:100170000C94CC170C94314A0C947E120C941B13E3
:100180000C94A0120C9418160C948A250C942B4BEA
:100190000C9471070C9469160C9436160C947B120F
:1001A0000C94053F0C9401160C94C22E0C94584AE2
:1001B0000C946E170C943B4A0C9467250C94D20D4A
:1001C0000C94624A0C94932D0C94C3160C94464ADA
:1001D0000C949E4D0C94FE340C943B240C945E4A7B
:1001E0000C940F250C948A120C9402140C945F2525
:1001F0000C94E64C0C9454250C9403250C94311566
:100200000C94A5130C9455280C949E350C9425251C
:100210000C94A8120C94D6120C9445280C94F1322C
:100220000C943F4A0C94902F0C94BC330C94823D58
:100230000C941C160C943C140C944D2F0C94BD4D36
:100240000C9420160C9460140C9477480C94481667
:100250000C94B7250C94B3120C94504A0C94CD1204
:100260000C94A9410C941F420C941A250C948925D6
:100270000C94C5080C94F0120C942D2A0C94704A1E
:100280000C9481140C946C4A0C943F4B0C94F6150E
:100290000C9465300C945B080C949D4B0C9480126C
:1002A0000C94744A0C9432260C94F04C244600248E
:1002B000440024440024460024463C6D65746120BB
:1002C000687474702D65717569763D227265667209
:1002D0006573682220636F6E74656E743D22313BD6
:1002E0002075726C3D2F223E0024463C7363726978
:1002F00070743E616C65727428224F7074696F6E01
:10030000732076616C7565732073617665642E2247
:10031000293B24460024463C7363726970743E6135
:100320006C65727428224E65772070617373776FE5
:10033000726473206D757374206D6174636821221B
:10034000293B77696E646F772E6C6F636174696F98
:100350006E3D222F766F223B3C2F7363726970745F
:100360003E0A0024463C7363726970743E616C659A
:10037000727428224E65772070617373776F726490
:10038000207365742E22293B24460024463C736367
:10039000726970743E616C657274282256616C7566
:1003A0006573206F7574206F6620626F756E6421AF
:1003B00022293B77696E646F772E6C6F6361746975
:1003C0006F6E3D222F766F223B3C2F7363726970F4
:1003D000743E0A0024463C7363726970743E24467E
:1003E000005265626F6F74696E672E2E2E00244670
:1003F0003C6D65746120687474702D6571756976E3
:100400003D22726566726573682220636F6E746543
:100410006E743D2224443B2075726C3D2F223E00B9
:100420003C736372697074207372633D2224462F9B
:10043000766965776F7074696F6E732E6A73223E8A
:100440003C2F7363726970743E0A003C2F736372B1
:100450006970743E0A00305D3B766172206E6F7089
:1004600074733D24442C6C6F633D222453223B0063
:10047000222446222C24442C24442C24442C003CAA
:100480007363726970743E766172206F7074733D2D
:100490005B0024462446003C7363726970742073C9
:1004A00072633D2224462F686F6D652E6A73223E6B
:1004B0003C2F7363726970743E0A003C7363726907
:1004C0007074207372633D22706E2E6A73223E3CFC
:1004D0002F7363726970743E0A000A766172206C31
:1004E00072756E3D5B24442C24442C24442C244CF3
:1004F0005D3C2F7363726970743E0A005B302C3070
:100500005D5D3B0A76617220656E3D24442C726409
:100510003D24442C72733D24442C6D6D3D24442CA9
:10052000726473743D244C2C6D61733D24442C75AE
:1005300072733D24442C776C3D24442C69706173A4
:100540003D24442C6C6F633D222453223B005B24EA
:10055000442C244C5D2C00305D3B7661722070731E
:100560003D5B0024442C00766172206E6272643D13
:1005700024442C747A3D24442C73626974733D5B6B
:10058000003C7363726970743E76617220766572A6
:100590003D24442C646576743D244C3B0A0024467B
:1005A00024460077696E646F772E6C6F636174699F
:1005B0006F6E3D222F7670223B3C2F736372697001
:1005C000743E0A00616C657274282250726F677203
:1005D000616D202444206D6F646966696564222919
:1005E0003B00616C65727428224E65772070726FD3
:1005F0006772616D2061646465642E22293B00246A
:10060000463C7363726970743E003C736372697038
:1006100074207372633D2224462F706C6F74707265
:100620006F672E6A73223E3C2F7363726970743E4B
:100630000A003C736372697074207372633D2270A8
:100640006E2E6A73223E3C2F7363726970743E0A89
:1006500000305D3B0024442C00766172206D617394
:100660006F703D5B0024463C7363726970743E7624
:100670006172207365713D24442C6D61733D244487
:100680002C776C3D24442C7364743D24442C6D748D
:100690006F6E3D24442C6D746F66663D24442C645B
:1006A00065766461793D24442C6465766D696E3DA0
:1006B00024442C64643D24442C6D6D3D24442C79E9
:1006C000793D24443B0024463C7363726970743E58
:1006D00077696E646F772E6C6F636174696F6E3DBE
:1006E000222F7670223B3C2F7363726970743E0A2E
:1006F000003C736372697074207372633D222446F8
:100700002F6D6F6470726F672E6A73223E3C2F7379
:1007100063726970743E0A003C2F7363726970746F
:100720003E0A3C736372697074207372633D227079
:100730006E2E6A73223E3C2F7363726970743E0A98
:10074000005D3B002C2444007661722070726F675C
:100750003D5B24442C24442C24442C24442C244449
:100760002C24442C2444003C7363726970743E76DC
:100770006172206E626F617264733D24442C7069F3
:10078000643D24442C697061733D24443B0024463D
:100790002446003C736372697074207372633D2257
:1007A00024462F7669657770726F672E6A73223ED2
:1007B0003C2F7363726970743E0A003C7363726904
:1007C0007074207372633D22706E2E6A73223E3CF9
:1007D0002F7363726970743E0A00244624463C738A
:1007E00063726970743E0024463C7363726970746E
:1007F0003E2446003C736372697074207372633DDB
:100800002224462F76696577726F2E6A73223E3CEA
:100810002F7363726970743E0A003C73637269706F
:1008200074207372633D22706E2E6A73223E3C2FD9
:100830007363726970743E0A00305D3B3C2F7363D2
:10084000726970743E0A0024442C00244624463CFD
:100850007363726970743E766172206E626F61724A
:1008600064733D24442C6D61733D24442C69706194
:10087000733D24442C6475723D5B003C7363726964
:100880007074207372633D707324442E6A733E3C0F
:100890002F7363726970743E0A003C2F7363726930
:1008A00070743E0A00766172206E70726F67733DDD
:1008B00024442C6E626F617264733D24442C697011
:1008C00061733D24442C6D6E703D24442C70643D56
:1008D0005B5D3B002446005D3B002C2444007064BB
:1008E0005B24445D3D5B24442C24442C24442C2470
:1008F000442C24442C24442C24440024463C73637C
:10090000726970743E616C65727428224368616E0E
:100910006765732073617665642E22293B24460047
:1009200024467661722000305D3B3C2F7363726910
:1009300070743E0A3C736372697074207372633D15
:100940002224462F7669657773746174696F6E73BC
:100950002E6A73223E3C2F7363726970743E0A00E4
:1009600024442C00766172206D61736F703D5B00D2
:1009700024463C7363726970743E766172206E62C5
:100980006F617264733D24442C6D61786C656E3DBB
:1009900024442C6D61733D24442C697061733D24A3
:1009A000442C0027275D3B0A00272453272C007383
:1009B0006E616D65733D5B00436F6E6E6563746958
:1009C0006E672E2E2E00706E0063720076720063CA
:1009D0007300767300707300736E00636F00766F40
:1009E000006770006370006470006D7000767000C6
:1009F00063760077696E646F772E6C6F63617469DC
:100A00006F6E3D222F223B3C2F7363726970743EE0
:100A10000A00485454502F312E30203430312055A4
:100A20006E617574686F72697A65640D0A436F6EE2
:100A300074656E742D547970653A20746578742FDE
:100A400068746D6C0D0A0D0A3C68313E34303120FB
:100A5000556E617574686F72697A65643C2F683190
:100A60003E003C6D657461206E616D653D76696523
:100A700077706F727420636F6E74656E743D227749
:100A8000696474683D363430223E0D0A004854547F
:100A9000502F312E3020323030204F4B0D0A436F13
:100AA0006E74656E742D547970653A20746578742F
:100AB0002F68746D6C0D0A507261676D613A206E1B
:100AC0006F2D63616368650D0A0D0A0068747470A8
:100AD0003A2F2F72617973686F6262792E6E657436
:100AE0002F736372697074732F6A6176612F7376E6
:100AF00063322E3000207365630025004E6F00596D
:100B00006573002B002B0020474D54003030003A15
:100B1000002D002B000020202020002D5261696E46
:100B20002053746F702D002D44697361626C65648D
:100B3000212D003A0045004D433A003A002E002D89
:100B400000200020200020003A00200042333A68B4
:100B50006F6C6420746F20736176650042333A7362
:100B6000656C2042312F42323A636867003D3D5345
:100B70006574204F7074696F6E733D3D00506C65F5
:100B800061736520576169742E2E2E00526573655E
:100B90007474696E6720454550524F4D0053756E11
:100BA00000536174004672690054687500576564AB
:100BB00000547565004D6F6E005265736574206159
:100BC0006C6C3F004C4344204261636B6C69676806
:100BD000743A004C434420436F6E74726173743AEC
:100BE000004465766963652049443A0049676E6F41
:100BF00072652070617373776F72643A0053656C2D
:100C000066746573742074696D653A005761746524
:100C100072696E67206C6576656C3A004E6F726D16
:100C2000616C6C79206F70656E3A00557365207247
:100C300061696E2073656E736F723A004D61732E39
:100C4000206F66662061646A2E3A004D61732E2023
:100C50006F6E2061646A2E3A004D61737465722074
:100C600073746174696F6E3A0053746174696F6E66
:100C70002064656C61793A0053657175656E7469BD
:100C8000616C3A004578702E20626F617264733A2D
:100C9000004175746F207265636F6E6E6563743AA0
:100CA00000004854545020706F72743A00697034D8
:100CB0003A006970333A006970323A0047617465EE
:100CC0007761792E6970313A006970343A00697041
:100CD000333A006970323A005374617469632E6963
:100CE00070313A0055736520444843503A004E54E1
:100CF000502053796E633A0054696D65207A6F6EA7
:100D0000653A004669726D77617265207665722E6C
:100D10000000000A0B02090C0D0E08070304010075
:100D200000000000000000000000000000000000C3
:100D30000000000000000000000000000012111080
:100D400000000000000000000000000000000000A3
:100D50000000000000000001021020200808102000
:100D60004010204080020102010804020101020437
:100D700008102040808040201008040201800402F6
:100D8000018040201008040201080402010102044D
:100D9000081020408001020408102040800505054D
:100DA00005070508080808020202020A0A080804E2
:100DB0000404040101010101010101030303030310
:100DC000030303040707070C0C0C0C0C0C0C0C029F
:100DD00002020206060606060606060B0B0B0B0BA6
:100DE0000B0B0B000020002300260029002C002FF5
:100DF0000032000001000003010601090100002289
:100E000000250028002B002E0031003400020100D4
:100E100000050108010B0100002100240027002A21
:100E2000002D003000330001010000040107010A19
:100E300001007107C508D20D6D126014F615CC17AC
:100E40003B2403250F251A25252554253226823DCE
:100E5000053F7748F04C9E4D11241FBECFEFD1E2E5
:100E6000DEBFCDBF00E00CBF14E0A0E0B2E0EEEFCB
:100E7000F0EA00E00BBF02C007900D92A03AB10764
:100E8000D9F72FE0A0EAB4E001C01D92AB30B20761
:100E9000E1F71EE0C8E5DEE000E006C022970109A8
:100EA000FE010BBF0E946C4FC233D10780E00807E0
:100EB000A9F70E94AE4D0C947D500C9400006AE09E
:100EC0000E94C14E20E1829F900D1124892F089528
:100ED000982F92959F708F702AE0929F800D112419
:100EE000089589E096E00C94F625CF93DF93EC010A
:100EF00068E670E089E096E00E941A2660E089E0EA
:100F000096E00E94B72588810E945F07682F89E0DC
:100F100096E00E94B72589810E945F07682F89E0CB
:100F200096E00E94B7258A810E945F07682F89E0BA
:100F300096E00E94B7258B810E945F07682F89E0A9
:100F400096E00E94B7258C810E945F07682F89E098
:100F500096E00E94B7258D810E945F07682F89E087
:100F600096E00E94B7258E818E510E945F07682F00
:100F700089E096E00E94B72589E096E00E942F263E
:100F8000882321F01092A00480E003C081E08093C8
:100F9000A004DF91CF910895CF93DF93CDB7DEB753
:100FA00027970FB6F894DEBF0FBECDBFAE014F5FDF
:100FB0005F4F0E94B81E898180688983CE010196A7
:100FC0000E94750789818F778983CE0101960E94DF
:100FD000750727960FB6F894DEBF0FBECDBFDF9121
:100FE000CF9108951F93CF93DF93EC0168E670E0F3
:100FF00089E096E00E941A2660E089E096E00E946F
:10100000B72589E096E00E942F26882319F01092D8
:10101000A0044CC081E08093A00447E050E068E663
:1010200070E089E096E00E940D2689E096E00E943B
:101030005F250797DCF189E096E00E946725182F6D
:101040008F770E946807888389E096E00E94672571
:101050000E946807898389E096E00E9467258F7364
:101060000E9468078A8389E096E00E9467250E94B3
:1010700068078B8389E096E00E9467250E946807D5
:101080008C8389E096E00E9467250E9468078D8323
:1010900089E096E00E9467250E946807825E8E8341
:1010A000812F8095881F8827881F01C080E0DF91ED
:1010B000CF911F910895CF93DF93CDB7DEB72797D8
:1010C0000FB6F894DEBF0FBECDBFCE0101960E94D1
:1010D000F207882329F0CE0101960E94DB1F03C08E
:1010E00060E070E0CB0127960FB6F894DEBF0FBE2C
:1010F000CDBFDF91CF9108950E9624E1FC011192AE
:101100002A95E9F70895CF93DF93EC01625F7F4F53
:101110000E94834DCE01DF91CF910895CF93DF934D
:10112000EC016E5E7F4F0E94834DCE01DF91CF9127
:101130000895CF93DF93EC016A5E7F4F0E94834D49
:10114000CE01DF91CF910895CF93DF93EC01625EE2
:101150007F4F0E94834DCE01DF91CF91089580E3B0
:10116000FB0180833296842F82958F7090E1899F56
:10117000401911244A3014F4405D01C0495C429387
:10118000882311F0482FEFCF08950F9300E020E05F
:1011900040E060E081EA94E00E94774D0F9108956D
:1011A0006F927F928F929F92AF92BF92CF92DF9277
:1011B000EF92FF920F931F93CF93DF93CDB7DEB7DC
:1011C000AC970FB6F894DEBF0FBECDBF7C01862E64
:1011D000B42EA52E20E2922ECE0101966C01FC01C8
:1011E000292D11922A95E9F70FEF2FEF4FEF6FEFAF
:1011F00086960E94774D8EE994E09AA389A389A5EB
:101200009AA5ABA5BCA58BA39CA3ADA3BEA3870148
:10121000095B1F4F43E450E0BE016F5D7F4FC80183
:101220000E945D16019609F4BFC081E089838A831C
:1012300086E0782E7B821C82F7016481758186812D
:1012400097810E943C4F6D837E838F839887A98608
:10125000BA8680E890E09C878B874CE150E0B6012D
:10126000C8010E946916F601292D11922A95E9F705
:10127000570188E0A80EB11CF501D60101900D922E
:101280007A94E1F740E150E0B601C8010E94691686
:10129000F60111929A94E9F796E0692E712C40E2DA
:1012A00050E0B601C8010E946916F1E06F1A71089A
:1012B000B1F783E6898392E89A8393E59B838C83D5
:1012C00085E38D8381E08E838F829DE3988797E00D
:1012D00099878A8786E0F501DE011B9601900D92C1
:1012E0008A95E1F78CE0898B8A8B66E173E0CE0109
:1012F00043960E94F64FF7014385BE01675E7F4F1C
:10130000C7010E94AF08F7014485BE01655E7F4FAB
:10131000C7010E94AF08F7014585BE01635E7F4F9C
:10132000C7010E94AF084EE150E0B601C8010E941B
:101330006916F3E08F121EC082E3898384E08A83FA
:10134000F70196859B8397859C8390899D839189DE
:101350009E8396E39F838887828D8987838D8A8782
:10136000848D8B87858D8C874CE050E0B601C80159
:101370000E94691687E3898386E08A8391E09B83D4
:1013800093E09C838D838FE08E838AE38F838BE34E
:1013900088878FEF898749E050E0B601C8010E9435
:1013A0006916C8010E946516AC960FB6F894DEBFA8
:1013B0000FBECDBFDF91CF911F910F91FF90EF90A6
:1013C000DF90CF90BF90AF909F908F907F906F9065
:1013D00008952F923F924F925F926F927F928F92D9
:1013E0009F92AF92BF92CF92DF92EF92FF920F93B4
:1013F0001F93CF93DF93CDB7DEB7E3970FB6F89483
:10140000DEBF0FBECDBF7C012A013B0169010E94F6
:1014100048494B015C018701095B1F4FC8010E94CD
:1014200009171816190694F00E9448496819790995
:101430008A099B094616570668067906F0F062E3AA
:1014400070E080E090E00E947749E8CF42E250E00F
:10145000BE016F5F7F4FC8010E94A616898182304E
:1014600031F4F801858996898334910541F019A6F4
:10147000C8010E94361689A566C18FEF64C16D81CF
:101480007E818F8198850E943C4F4B015C01F60163
:10149000608371838283938346E050E0B701685F85
:1014A0007F4FCE014D960E94E94F892B99F4F701A9
:1014B00080819181A281B38188169906AA06BB0614
:1014C00048F084819581A681B78188159905AA0580
:1014D000BB0528F4C8010E94361680E034C1898912
:1014E0009A89AB89BC89F70186879787A08BB18BD6
:1014F0003EECC32ED12CC8010E947D16F1E0CF1A1C
:10150000D108C9F719A6C70182969BA78AA7F70138
:10151000B696FDA7ECA708969FA78EA73C976F01EC
:101520008E9699AB88AB3897FBABEAAB5701F6E1E7
:10153000AF0EB11C47018EE1880E911CC8010E94BC
:101540001C16181619060CF093CFC8010E947D16C0
:101550008333910509F4CDC0F4F481309105B9F1DC
:101560001CF4892B59F3DFC083309105C1F1069734
:1015700009F0D9C0C8010E947D163C0144E050E04A
:10158000B401C8010E94A616212C312C7724F4E066
:101590006F1A71083FC08A33910509F47EC03CF48C
:1015A0008533910561F0C69709F43FC0BCC08B3309
:1015B000910509F488C08F3F910501F2B4C0C801BC
:1015C0000E947D16C8010E947D1689A7B7CFC80169
:1015D0000E947D1644E050E06AA97BA93AC0C80188
:1015E0000E947D163C0144E050E0B501C8010E9414
:1015F000A616212C312C772494E0691A7108261440
:1016000037040CF09BCFC8010E947D16EFEF2E1A15
:101610003E0AF5CF261437040CF090CFC8010E9483
:101620007D168FEF281A380AF5CFC8010E947D1663
:10163000782EF701828D811110C0838D81110DC02C
:10164000848D81110AC0858D811107C044E050E06E
:10165000B601C8010E94A61671CFE8A9F9A9208099
:10166000318042805380B601CE0183960E94834D23
:101670008DA19EA1AFA1B8A582159305A405B505BE
:1016800029F3212C312C721409F458CFC8010E947F
:101690007D16FFEF2F1A3F0AF6CFC8010E947D1674
:1016A00044E050E06CA57DA5C8010E94A616F70194
:1016B00066A177A180A591A50E943C4F66A377A360
:1016C00080A791A73BCFC8010E947D1644E050E05F
:1016D0006EA57FA5C8010E94A616F70162A573A595
:1016E00084A595A50E943C4F62A773A784A795A7E0
:1016F00025CFC8010E947D1644E050E06AA57BA575
:10170000C8010E94A616F70162A173A184A195A148
:101710000E943C4F62A373A384A395A366A777A7F7
:1017200080AB91AB0BCFC8010E947D16382E612C87
:10173000712C361409F402CFC8010E947D16FFEF08
:101740006F1A7F0AF6CFE3960FB6F894DEBF0FBE8E
:10175000CDBFDF91CF911F910F91FF90EF90DF9060
:10176000CF90BF90AF909F908F907F906F905F9041
:101770004F903F902F9008952F923F924F925F92FB
:101780006F927F928F929F92AF92BF92CF92DF9291
:10179000EF92FF920F931F93CF93DF93CDB7DEB7F6
:1017A00027970FB6F894DEBF0FBECDBF8C0120ED9A
:1017B00037E040E050E061E070E080E090E00E94BF
:1017C000954ED80114966D937D938D939C931797A6
:1017D000F80160837183828393834801F7E48F0E5D
:1017E000911CC4010E94481664E470E0C4010E9488
:1017F000DC16882309F428C10E9448496B017C014A
:10180000A12CB12C1D82180186E4280E311CD801B0
:10181000DE96BF83AE8338EE432E33E0532E612C29
:10182000712CF1018081833009F4FDC081111FC04A
:10183000F80184819581A681B7810196A11DB11D12
:1018400084839583A683B7830E9448496C197D09D8
:101850008E099F09A30192010E94F54EA90161E042
:10186000C8010E94D00881E0D1018C93BEC08430B1
:10187000F9F4F80184819581A681B7810196A11DB3
:10188000B11D84839583A683B7830E9448496C1950
:101890007D098E099F09A30192010E94F54EA901BD
:1018A00063E0C8010E94D008E2E0D101EC939DC042
:1018B000813061F5AE81BF814D915D916D917C91DB
:1018C0009E012F5F3F4FC8010E94E9098D8382303E
:1018D00009F08BC089819A81AB81BC81F801848336
:1018E0009583A683B7830E9448496C197D098E09A8
:1018F0009F09A30192010E94F54EA90163E0C8016E
:101900000E94D008ED81D101EC9375C0823009F0BE
:101910006CC0AE81BF814D915D916D917C919E01B6
:101920002F5F3F4FC8010E94E9098D83853009F080
:1019300056C083E0F1018083F80182A193A1A4A1A4
:10194000B5A1892B8A2B8B2B41F484E893E0A0E08E
:10195000B0E082A393A3A4A3B5A3F80186A197A1A5
:10196000A0A5B1A5892B8A2B8B2B61F482A193A111
:10197000A4A1B5A1B695A7959795879586A397A39A
:10198000A0A7B1A7D8019A964D915D916D917C91D8
:101990009D9796968D919D910D90BC91A02D452B74
:1019A000462B472B59F4AC01BD01440F551F661F50
:1019B000771FF80142A753A764A775A7F80186A768
:1019C00097A7A0ABB1AB82A593A5A4A5B5A582AB03
:1019D00093ABA4ABB5ABAA24A394B12C0CC0FD81EE
:1019E000F63019F4D1011C9206C0BD81BF3F19F435
:1019F000F10110821D82F1E0AF16B10409F411CF9C
:101A00000E9448496C197D098E099F09D801DA9610
:101A10002D913D914D915C91DD9726173707480731
:101A2000590708F0FECEC4010E944816F8018481CF
:101A30009581A681B7810196A11DB11D84839583EF
:101A4000A683B783C50102C080E090E027960FB659
:101A5000F894DEBF0FBECDBFDF91CF911F910F91E4
:101A6000FF90EF90DF90CF90BF90AF909F908F90BE
:101A70007F906F905F904F903F902F900895CF92FE
:101A8000DF92EF92FF920F931F93CF93DF93EC01BE
:101A90006B011AA21BA21CA21DA21EA21FA218A6A5
:101AA00019A61AA61BA61CA61DA61EAA1FAA18AE1A
:101AB00019AE2AAF3BAF4CAF5DAFFC01FE96E082A2
:101AC000F182028313838C01085F1F4F86E0F801C7
:101AD00011928A95E9F7CE010E947C0886E0F60112
:101AE000D80101900D928A95E1F7FE01EA5BFF4F64
:101AF0001082CE01DF91CF911F910F91FF90EF9057
:101B0000DF90CF900C94BC0BFB0142815381648128
:101B10007581FC0142835383648375831782168227
:101B20000895CF93FB0181918111FDCFFB0180E0EE
:101B300090E020E030E0CAE06191662309F12430B2
:101B4000310564F56E3271F48F3F910509F034F57B
:101B5000DA01A20FB31F12968C932F5F3F4F80E0E4
:101B600090E0EACFDC01CA9FC001CB9F900D112409
:101B7000772767FD709560537109860F971FDCCF3B
:101B80008F3F910509F054F4243031053CF4FA01FB
:101B9000E20FF31F828381E090E002C080E090E0DA
:101BA000CF9108950F9300E020E040E060E087EAE5
:101BB00094E00E94774D0F910895AF92BF92CF921B
:101BC000DF92EF92FF920F931F93CF93DF9300D09A
:101BD000CDB7DEB76C017B010E944849F6017783DF
:101BE00066838601085F1F4FB6016A5F7F4F42E040
:101BF00050E0C8010E94691681E090E09A838983D1
:101C000042E050E0BE016F5F7F4FC8010E9469163D
:101C100080E091E09A83898342E050E0BE016F5FEB
:101C20007F4FC8010E9469161A82198242E050E073
:101C3000BE016F5F7F4FC8010E94691642E050E00D
:101C4000BE016F5F7F4FC8010E94691642E050E0FD
:101C5000BE016F5F7F4FC8010E9469166701F601E0
:101C60008081882311F1F7016F018191811115C0E5
:101C70005601AE18BF081A141B0494F4AB8241E05D
:101C800050E0BE016D5F7F4FC8010E946916A5013B
:101C9000B701C8010E94691603C08E3229F7E8CF48
:101CA0007601FFEFEF1AFF0ADACF1B8241E050E026
:101CB000BE016D5F7F4FC8010E946916E12CFF24B1
:101CC000F394FA82E98242E050E0BE016F5F7F4FF9
:101CD000C8010E946916FA82E98242E050E0BE0122
:101CE0006F5F7F4FC8010E94691681E090E00F90FE
:101CF0000F900F90DF91CF911F910F91FF90EF9078
:101D0000DF90CF90BF90AF9008954F925F926F9207
:101D10007F928F929F92AF92BF92CF92DF92EF927B
:101D2000FF920F931F93CF93DF93CDB7DEB76397E7
:101D30000FB6F894DEBF0FBECDBF7C015B016A0118
:101D40000E9448492B013C018701085F1F4F450154
:101D5000A12CB12CC8010E9409171816190694F07D
:101D60000E944849641975098609970986169706DD
:101D7000A806B906D0F062E370E080E090E00E942F
:101D80007749E8CFF7014281538164817581818D64
:101D9000928DA38DB48D481759076A077B0741F4CC
:101DA000858D968DC59721F406C08FEF9FEFF9C002
:101DB0008EEF9FEFF6C0C8010E941C160C970CF422
:101DC000EEC04CE050E0BE016F5F7F4FC8010E9443
:101DD000A6168B819C819827892798279A8B898BB7
:101DE000F7014681578129813A814217530711F43F
:101DF00097FD06C0C8010E9436168CEF9FEFD1C038
:101E00008F709270892B31F0C8010E9436168BEFCB
:101E10009FEFC7C0AF80B884BA24AB24BA24A11402
:101E2000B10419F0E12CF12C23C0C8010E94361630
:101E30008AEF9FEFB6C041E050E0BE01635F7F4F85
:101E4000C8010E94A6168D8581111BC08D85811148
:101E5000F2CFC8010E947D16C8010E947D16C801FC
:101E60000E947D16C8010E947D16FFEFEF1AFF0A3F
:101E70008D819E81982789279827E816F906D8F240
:101E80000AC08D859FEF980F9D878823F9F2C801BE
:101E90000E947D16F6CFE12CF12C41E050E0BE010E
:101EA0006D5E7F4FC8010E94A6168B89982F907C8B
:101EB00061F4882371F08B899FEF980F9B8B8823A7
:101EC00041F0C8010E947D16F6CFC8010E947D1620
:101ED0001B8A8B898111E1CF42E050E0BE01615F36
:101EE0007F4FC8010E94A61642E050E0BE01635F2A
:101EF0007F4FC8010E94A616C8010E947D16C80126
:101F00000E947D16C8010E947D16C8010E947D16A0
:101F100042E050E0BE016F5E7F4FC8010E94A616EE
:101F20008F8598898115914029F48D859E8581152D
:101F3000914019F0812C912C16C089899A898115BC
:101F4000944031F0C8010E94361687EF9FEF29C0F8
:101F5000B6016E5F7F4F44E050E0C8010E94A616B4
:101F600081E090E01EC089899A899827892798275F
:101F70008816990638F4C8010E947D162FEF821A40
:101F8000920AF1CF8FEFE81AF80AEA14FB0409F07D
:101F900084CFC8010E94361686EF9FEF02C08DEFF6
:101FA0009FEF63960FB6F894DEBF0FBECDBFDF91F3
:101FB000CF911F910F91FF90EF90DF90CF90BF9046
:101FC000AF909F908F907F906F905F904F9008950B
:101FD0008F929F92AF92BF92CF92DF92EF92FF9239
:101FE0000F931F93CF93DF9300D000D0CDB7DEB710
:101FF0008C015B016A010E94910D4C01009709F070
:102000005DC0F80142815381648175818091A9048A
:102010009091AA04A091AB04B091AC044817590761
:102020006A077B0709F44EC00E9448497801F8E02E
:10203000EF0EF11C6F7077277C5FC7010E94DC16E2
:10204000813009F043C08EE994E09A838983F801D6
:1020500082819381A481B5818B839C83AD83BE8370
:1020600045E350E0BE016F5F7F4FC7010E945D16E0
:10207000892B19F4812C912C1DC0B501C8010E9437
:10208000DD0D892BB9F3C7010E946516892B91F3E9
:1020900033E0A32EB12CA60168E873E1C8010E94C9
:1020A000850E4C01F1E0AF1AB10821F08F3F2FEF00
:1020B000920789F3C7010E94481608C088248394B8
:1020C000912C04C09EEF892E99249A94C4012696DF
:1020D0000FB6F894DEBF0FBECDBFDF91CF911F9139
:1020E0000F91FF90EF90DF90CF90BF90AF909F90B7
:1020F0008F90089520915305222399F03FB7F894CB
:1021000020915305213059F42DB3209351054DB33F
:1021100020915205209524232DBB3FBF02C0309350
:1021200051058CBD9DBD089580915305882361F0B4
:102130009FB7F8942091530580915105213019F4EF
:102140008DBB9FBF08958FBF089544E050E0BC0150
:1021500081E090E00C94781C44E050E0BC0185E004
:1021600090E00C94781C44E050E0BC018FE090E0DB
:102170000C94781CAF92BF92CF92DF92EF92FF92B5
:102180000F931F93CF93DF9300D000D0CDB7DEB76E
:102190006C015B0180911705811107C084EF94E009
:1021A0000E94591781E0809317058DEA94E0F601AB
:1021B0009783868381E495E00E94101C80E590E07F
:1021C0000E947A1046E050E0B50189E090E00E945C
:1021D000781C00E020E040E060E0CE0101960E9423
:1021E000774DCE0103960E94B3100E94941010EA1E
:1021F000E12E1FE0F12E00E010E020E63AEE40E094
:1022000050E0B501F601868197810E943F0D5C0187
:1022100081309105B9F580E590E00E947A10F601D1
:1022200066817781CE0101960E948308CE010396D4
:102230000E94B310F60166817781CE0101960E945B
:102240009908CE0103960E94A510F6016681778158
:10225000CE0101960E948E08CE0103960E94AC101A
:102260000E949410F60166817781CE0101960E944A
:10227000A4084B815C816D817E81F601428353838A
:1022800064837583C50126960FB6F894DEBF0FBE32
:10229000CDBFDF91CF911F910F91FF90EF90DF9015
:1022A000CF90BF90AF9008958F929F92AF92BF92C0
:1022B000CF92DF92EF92FF920F931F93CF93DF9312
:1022C0001F921F92CDB7DEB74C016A01590181E41C
:1022D00095E069837A830E94101C80E590E00E945B
:1022E0007A1046E050E069817A8189E090E00E94AE
:1022F000781CC60102960E94B310C80102960E9483
:10230000A510C70102960E94AC100E949410F5011E
:102310004281538164817581F401428353836483D4
:1023200075830F900F90DF91CF911F910F91FF90C8
:10233000EF90DF90CF90BF90AF909F908F900895D7
:102340006F927F928F929F92AF92BF92CF92DF92C5
:10235000EF92FF920F931F93CF93DF93CDB7DEB72A
:102360006E970FB6F894DEBF0FBECDBF6C015B0158
:102370007A014901380100E02FEF4FEF6FEFCE01F6
:1023800049960E94774D2EE934E03A8329838B8D5C
:102390009C8DAD8DBE8D8B839C83AD83BE83388732
:1023A0002F83F30182819381A481B58189879A87E4
:1023B000AB87BC873E872D87F40182819381A481FE
:1023C000B5818F87988BA98BBA8B3C8B2B8BF701B0
:1023D00042815381648175814D8B5E8B6F8B788FC9
:1023E000CE0101967C018E01095F1F4F9E01235F84
:1023F0003F4FAE014D5E5F4FB501C6010E945411C3
:102400006E960FB6F894DEBF0FBECDBFDF91CF91B1
:102410001F910F91FF90EF90DF90CF90BF90AF9002
:102420009F908F907F906F900895CF93DF93EC01F2
:102430000E946D4D80E590E00E947A10BE016E5FB3
:102440007F4F44E050E08FE090E00E94A91D0E9481
:102450009410CE01DF91CF910895CF93DF93EC01DB
:102460000E946D4D80E590E00E947A10BE016E5F83
:102470007F4F44E050E085E090E00E94A91D0E945B
:102480009410CE01DF91CF910895CF93DF93EC01AB
:102490000E946D4D80E590E00E947A10BE016E5F53
:1024A0007F4F44E050E081E090E00E94A91D0E942F
:1024B0009410CE01DF91CF9108952EE934E0FC0114
:1024C00031832083FB014281538164817581FC014A
:1024D000428353836483758308950F9300E020E063
:1024E00040E060E087E295E00E94774D8FE095E064
:1024F0000F910C946D4D81E086270895862F0895E5
:10250000DC01ED91FC91048CF58DE02D199591E0A5
:1025100089270895CF93DF931F92CDB7DEB76983E4
:10252000DC01ED91FC910280F381E02D41E050E06F
:10253000BE016F5F7F4F19950F90DF91CF91089586
:1025400021E0FC018485843009F420E0822F089585
:10255000FC019485FB018485981303C081E09430CD
:1025600009F480E008950F931F93CF93DF93EC015C
:102570008A018C85843021F00E94AD19892B39F4B1
:1025800081E090E09B838A8380E090E001C0C801F5
:10259000DF91CF911F910F910895FC0184858430C4
:1025A00011F00C94A41A80E090E00895CF93DF938B
:1025B0001F92CDB7DEB741E050E0BE016F5F7F4FA5
:1025C000FC0184850E94431A181619061CF489819F
:1025D00090E002C08FEF9FEF0F90DF91CF910895B1
:1025E000FC0184850C94431A0F931F93CF93DF93C0
:1025F0001F92CDB7DEB78C01DC01ED91FC91048018
:10260000F581E02D1995892B51F0BE016F5F7F4F49
:10261000F80184850E94CF1A898190E002C08FEF73
:102620009FEF0F90DF91CF911F910F910895FC01C3
:1026300084850C94FF1ACF92DF92EF92FF920F9352
:102640001F93CF93DF93CDB7DEB7AF970FB6F89454
:10265000DEBF0FBECDBF7C018B016A01CE010196AA
:102660000E946D4DCE0109960E945917CE018A969F
:102670000E946D4D6FE075E0CE0184960E945D1260
:10268000BE016C5D7F4FCE0101960E94840DAE01AC
:10269000465D5F4FB801CE0101960E94E80F813080
:1026A0009105C1F4D701ED91FC910484F585E02DED
:1026B0008EE994E09DA38CA30CA51DA52EA53FA596
:1026C0000EA31FA328A739A7A601BE016C5D7F4FEB
:1026D000C7011995AF960FB6F894DEBF0FBECDBFF8
:1026E000DF91CF911F910F91FF90EF90DF90CF90EE
:1026F0000895FC011382128248EE53E060E070E01E
:10270000448355836683778381E293E0918380835A
:1027100084E084870895FC01262F1382128248EEFC
:1027200053E060E070E0448355836683778381E201
:1027300093E09183808324870895FC01848584300D
:1027400011F00C94531880E00895DF92EF92FF92FD
:102750000F931F93CF93DF93EC017B018A018C854C
:10276000843009F045C0D12C8D2D0E945318811161
:1027700002C0DC8607C08B7F8831D9F3D39484E014
:10278000D812F2CF8C85843099F120910A023091D1
:102790000B022F5F3F4F11F420E030EC30930B021F
:1027A00020930A0240910A0250910B0220E061E05E
:1027B0000E94A518B7016E5F7F4FA8018C850E940B
:1027C0002D19811103C084E08C8712C0CE010E94B4
:1027D0009D13873151F061E070E080E090E00E944D
:1027E0007749CE010E949D13ECCF81E090E002C0BA
:1027F00080E090E0DF91CF911F910F91FF90EF90DB
:10280000DF900895CF92DF92EF92FF92CF93DF9304
:10281000EC018C85843049F10E9486190E94484958
:102820006B017C01CE010E949D138823A1F061E021
:1028300070E080E090E00E9477490E9448496C195E
:102840007D098E099F09683E73408105910550F30B
:102850008C850E947A18EC85F0E0EE0FFF1FE15E98
:10286000FA4F1182108284E08C87DF91CF91FF9024
:10287000EF90DF90CF900895CF93DF93EC018C859C
:102880008430D1F0CE010E949D138431A9F08823B9
:1028900099F0883189F08C3169F4E881F9810480FC
:1028A000F581E02DCE01199521E0892B09F420E076
:1028B000822F03C081E001C080E0DF91CF910895B5
:1028C0000F9300E020E040E060E08DE295E00E94A0
:1028D000774D0F910895CF93DF931F92CDB7DEB759
:1028E0006983DC01ED91FC910280F381E02D41E0F0
:1028F00050E0BE016F5F7F4F19950F90DF91CF9130
:102900000895EF92FF920F931F93CF93DF93CDB76C
:10291000DEB72D970FB6F894DEBF0FBECDBF7C019A
:1029200000E010E0602FCE0101960E948B13CE01D3
:1029300001960E949D13811116C0F70144815581B3
:1029400020E061E0802F0E94A518802F0E94FA18D5
:10295000F70184819581F801EE0FFF1FE15EFA4FC8
:102960009183808305C00F5F1F4F04301105D1F69E
:102970002D960FB6F894DEBF0FBECDBFDF91CF917D
:102980001F910F91FF90EF900895FC011382128226
:1029900085E493E091838083758364830895BF9277
:1029A000CF92DF92EF92FF920F931F93CF93DF931B
:1029B000CDB7DEB72D970FB6F894DEBF0FBECDBFF3
:1029C0008C014FE1C42E45E0D42EB12CE12CF12C2A
:1029D0006B2DCE0101960E948B13D6012D913D9156
:1029E0006D01F8018481958128173907B1F4CE0172
:1029F00001960E949D13843169F0CE0101960E94D8
:102A00009D138C3151F4CE0101960E94CD12892B79
:102A100099F003C0EE24E394F12CB394F4E0BF12D8
:102A2000D7CFEF2871F4D801ED91FC910480F581A6
:102A3000E02DC801199505C0CE0101960E9402142F
:102A4000ECCF2D960FB6F894DEBF0FBECDBFDF9151
:102A5000CF911F910F91FF90EF90DF90CF90BF909B
:102A600008957F928F929F92AF92BF92CF92DF9202
:102A7000EF92FF920F931F93CF93DF93CDB7DEB703
:102A80002D970FB6F894DEBF0FBECDBF6C015B0172
:102A90004A010E94CF145FE1E52E55E0F52E712C1E
:102AA00000E010E0672DCE0101960E948B13F70124
:102AB000219131917F01F601848195812817390791
:102AC00031F4CE0101960E949D138731C9F07394B1
:102AD000F4E07F12E7CFC8012D960FB6F894DEBF61
:102AE0000FBECDBFDF91CF911F910F91FF90EF905F
:102AF000DF90CF90BF90AF909F908F907F90089580
:102B0000A401B501CE0101960E94B312080F191F4E
:102B1000DECFBF92CF92DF92EF92FF920F931F937F
:102B2000CF93DF93CDB7DEB72D970FB6F894DEBF06
:102B30000FBECDBF8C016B01CB010E94CF146FE1A2
:102B4000E62E65E0F62EB12C6B2DCE0101960E948B
:102B50008B13F701219131917F01F60184819581D9
:102B60002817390751F5CE0101960E949D13873130
:102B700011F08C3111F5CE0101960E94CD12892BF6
:102B8000E1F08B819C81F801938382838D819E810A
:102B9000AF81B88584839583A683B78349855A8599
:102BA0006B857C85408751876287738781E293E0DC
:102BB000918380838D85848708C0B394F4E0BF122D
:102BC000C3CF64E0C8010E948B13C8012D960FB6D5
:102BD000F894DEBF0FBECDBFDF91CF911F910F9153
:102BE000FF90EF90DF90CF90BF9008950F9300E09B
:102BF00020E040E060E083E395E00E94774D0F9194
:102C00000895DC01ED91FC91008CF18DE02D19947B
:102C10002EE934E0FC0131832083FB014189528994
:102C200063897489FC0142835383648375830895A7
:102C3000FC01858996890895FC01818D928D089506
:102C4000CF93DF931F92CDB7DEB76983DC01ED919F
:102C5000FC910280F381E02D41E050E0BE016F5F06
:102C60007F4F19950F90DF91CF910895CF93DF9308
:102C7000EC01898D9A8D892B41F0E881F9810680DC
:102C8000F781E02DCE011995F4CFDF91CF91089512
:102C9000CF93DF93EC018C85843061F00E947A1829
:102CA000EC85F0E0EE0FFF1FE15EFA4F118210821B
:102CB00084E08C87DF91CF910895FC01108E178AF4
:102CC0006E5F7F4F84850C94481BFC0184850C94B7
:102CD0008F1BCF93DF93EC019A018F89988DAB0105
:102CE000BC018C850E94001B2F89388D280F391F4D
:102CF000388F2F8BDF91CF9108950F931F93CF9330
:102D0000DF931F92CDB7DEB78C01FC01818D928DD0
:102D1000892B59F041E050E0BE016F5F7F4F848501
:102D20000E94431A181619061CF08FEF9FEF08C077
:102D3000F801818D928D0197928F818F898190E02A
:102D40000F90DF91CF911F910F910895CF93DF9353
:102D5000EC01898D9A8D009719F48FEF9FEF10C0C9
:102D60004817590708F0AC018C850E94431A1816C1
:102D700019069CF7298D3A8D281B390B3A8F298F1C
:102D8000DF91CF910895CF93DF931F92CDB7DEB738
:102D9000FC01218D328D232B49F0BE016F5F7F4FE7
:102DA00084850E94CF1A898190E002C08FEF9FEF47
:102DB0000F90DF91CF910895FF920F931F93CF93C0
:102DC000DF93EC018B018C858430E1F4F12C8F2DA5
:102DD0000E945318811102C0FC8606C08831E1F3BD
:102DE000F39484E0F812F3CF8C85843059F01E8779
:102DF0000D871A8E198E20E0A80162E00E94A518A6
:102E000081E001C080E0DF91CF911F910F91FF9091
:102E100008950F931F93CF93DF93CDB7DEB7289715
:102E20000FB6F894DEBF0FBECDBF8C01DC01ED9173
:102E3000FC910284F385E02D1995F80184850E94A8
:102E4000A41A1816190644F548E050E0BE016F5F59
:102E50007F4FD8011C968C910E94431A18161906B0
:102E6000ECF4BE016F5F7F4FC8010F960E94934D37
:102E70008D8190E0982F88272E81820F911DF80177
:102E8000968B858B8F8190E0982F88272885820FDD
:102E9000911D928F818F02C080E090E028960FB63E
:102EA000F894DEBF0FBECDBFDF91CF911F910F9180
:102EB0000895FC011382128248EE53E060E070E056
:102EC00044835583668377838FE493E09183808383
:102ED00084E08487CF010F960C946D4DCF92DF92E2
:102EE000EF92FF920F931F93CF93DF93CDB7DEB78F
:102EF000AF970FB6F894DEBF0FBECDBF7C018B013C
:102F00006A01CE0101960E946D4DCE0109960E9484
:102F10005917CE018A960E946D4D6FE075E0CE0183
:102F200084960E945D12BE016C5D7F4FCE010196BA
:102F30000E94840DAE01465D5F4FB801CE0101963F
:102F40000E94E80F81309105C1F4D701ED91FC9109
:102F50000088F189E02D8EE994E09DA38CA30CA557
:102F60001DA52EA53FA50EA31FA328A739A7A6011F
:102F7000BE016C5D7F4FC7011995AF960FB6F894EF
:102F8000DEBF0FBECDBFDF91CF911F910F91FF909C
:102F9000EF90DF90CF9008950F9300E020E040E0A5
:102FA00060E089E395E00E94774D0F910895CF92FC
:102FB000DF92EF92FF920F9330E0C12CF2E1DF2E0F
:102FC000FAE7EF2EF12C4C155D056E057F0540F4F8
:102FD000F694E794D794C7943F5F3630A1F737E073
:102FE00041E04327211102C050E701C050E5242FE2
:102FF00030E03595279523700C70202B252BFC0194
:103000002083417041830F91FF90EF90DF90CF902C
:10301000089590E0982F882744E050E0845F9B4F0C
:103020000C94781C282F30E02C5F3F4F922F88277C
:10303000860F971F0C94A71C62E070E00C94121886
:10304000FB01282F30E02C5F3F4F922F8827642F01
:103050008E0F9F1F0C94ED1BCF93DF93C82FD62F9D
:10306000472F64E070E00E9420184D2F65E070E06B
:103070008C2FDF91CF910C942018462F62E070E0E6
:103080000C942018CF93DF93C82FD62F472F60E1E1
:1030900070E00E9420184D2F61E170E08C2FDF91CD
:1030A000CF910C9420180F931F93CF93DF9300D0F0
:1030B000CDB7DEB7182F00E021E040E059E06DE326
:1030C00070E0CE0101960E94D71789819A810E94F3
:1030D0007A1063E070E0812F0E9412188B830E94A7
:1030E00094108B810F900F900F90DF91CF911F91D3
:1030F0000F9108950F931F93CF93DF931F921F9209
:10310000CDB7DEB7182F00E021E040E059E06DE3D5
:1031100070E0CE0101960E94D71789819A810E94A2
:103120007A1040E150E0612F81E495E00E94721E28
:103130006FEF812F0E943D180E9494100F900F9006
:10314000DF91CF911F910F910895CF92DF92EF926F
:10315000FF920F931F93CF93DF931F921F92CDB7D0
:10316000DEB7182FD62E7A01C22E8FEF860F85304C
:10317000A8F5812F0E947A1800E021E040E059E094
:103180006DE370E0CE0101960E94D71789819A8184
:103190000E947A104D2D4C2960E070E0812F0E9432
:1031A0002018E114F10411F0B7010AC060913F0545
:1031B000709140056F5F7F4F7093400560933F05AE
:1031C000812F0E942C1841E050E0612F81E495E0AE
:1031D0000E94721E0E94941081E001C080E00F9056
:1031E0000F90DF91CF911F910F91FF90EF90DF90A3
:1031F000CF9008950F931F93CF93DF931F921F9249
:10320000CDB7DEB7182F00E021E040E059E06DE3D4
:1032100070E0CE0101960E94D71789819A810E94A1
:103220007A1063E070E0812F0E941218833121F040
:103230000E94941080E00AC042E050E0612F81E4D7
:1032400095E00E94721E0E94941081E00F900F90F2
:10325000DF91CF911F910F910895CF92DF92EF925E
:10326000FF920F931F93CF93DF931F921F92CDB7BF
:10327000DEB7182F7B016A01FB0180818F3F51F47B
:1032800081818F3F99F482818F3F81F483818F3FC9
:1032900069F430C081110AC0FB018181811106C02F
:1032A0008281811103C08381882321F1C114D1045B
:1032B00009F100E021E040E059E06DE370E0CE016B
:1032C00001960E94D71789819A810E947A10B701CE
:1032D000812F0E940918B601812F0E94421844E0F4
:1032E00050E0612F81E495E00E94721E0E949410CC
:1032F00081E001C080E00F900F90DF91CF911F918E
:103300000F91FF90EF90DF90CF9008950F931F9350
:10331000CF93DF931F921F92CDB7DEB7182F00E037
:1033200021E040E059E06DE370E0CE0101960E949B
:10333000D71789819A810E947A1048E050E0612F66
:1033400081E495E00E94721E0E9494100F900F90ED
:10335000DF91CF911F910F910895BF92CF92DF928D
:10336000EF92FF920F931F93CF93DF9300D0CDB7CF
:10337000DEB7B82E6B017A01413088E0580718F0AB
:10338000E12C98E0F92E00E021E040E059E06DE307
:1033900070E0CE0101960E94D71789819A810E9420
:1033A0007A106B2D81E495E00E94DF1C8C0163E0B4
:1033B00070E08B2D0E9412188B830E9494108B81D9
:1033C000873111F08C3131F40E94FD480E151F0534
:1033D000D0F202C0E12CF12C00E021E040E059E005
:1033E0006DE370E0CE0101960E94D71789819A8122
:1033F0000E947A109701A6016B2D81E495E00E944E
:103400009E1D40E250E06B2D81E495E00E94721E0B
:103410008B2D0E941C1884FD22C063E070E08B2D70
:103420000E941218811108C00E9494108B2D0E94D6
:103430007A1880E090E01AC00E9494100E94FD4823
:1034400000E021E040E059E06DE370E0CE0101963C
:103450000E94D71789819A810E947A10D9CF60E1A2
:103460008B2D0E943D180E949410C7010F900F9061
:103470000F90DF91CF911F910F91FF90EF90DF9010
:10348000CF90BF900895AF92BF92CF92DF92EF920C
:10349000FF920F931F93CF93DF931F921F92CDB78D
:1034A000DEB7182F5B016A0100E021E040E059E03F
:1034B0006DE370E0CE0101960E94D71789819A8151
:1034C0000E947A10612F81E495E00E94131D7C0117
:1034D0000097A1F463E070E0812F0E9412188431FC
:1034E00019F1882309F121E030E08C3111F420E05A
:1034F00030E0EE24FF24E21AF30A16C0C816D906FB
:103500000CF476011E141F047CF400E09701A50161
:10351000612F81E495E00E94221E40E450E0612F7B
:1035200081E495E00E94721E0E949410C7010F90E2
:103530000F90DF91CF911F910F91FF90EF90DF904F
:10354000CF90BF90AF9008950F931F93CF93DF93C9
:1035500000D01F92CDB7DEB7182F00E021E040E089
:1035600059E06DE370E0CE0101960E94D717898182
:103570009A810E947A10612F81E495E00E94131DC8
:103580008B839C830E9494108B819C810F900F9061
:103590000F900F90DF91CF911F910F910895EF92AF
:1035A000FF920F931F93CF93DF931F921F92CDB77C
:1035B000DEB7182F7B0100E021E040E059E06DE329
:1035C00070E0CE0101960E94D71789819A810E94EE
:1035D0007A1001E021E030E0A701612F81E495E05D
:1035E0000E94221E0E94941081E090E00F900F90A4
:1035F000DF91CF911F910F91FF90EF900895089563
:103600009F92AF92BF92CF92DF92EF92FF920F9371
:103610001F93CF93DF931F921F92CDB7DEB7982EE3
:103620006B015A01790100E021E040E059E06DE3CF
:1036300070E0CE0101960E94D71789819A810E947D
:103640007A10692D81E495E00E94DF1C8E159F059C
:1036500030F4692D81E495E00E94DF1C7C01870134
:103660009501A601692D81E495E00E942F1D0E941D
:103670009410C7010F900F90DF91CF911F910F9180
:10368000FF90EF90DF90CF90BF90AF909F90089504
:10369000CF92DF92EF92FF920F931F93CF93DF931E
:1036A0001F921F92CDB7DEB7182F7B016A01FB0175
:1036B0008081811109C08181811106C082818111BF
:1036C00003C083818823F1F0C114D104D9F000E054
:1036D00021E040E059E06DE370E0CE0101960E94E8
:1036E000D71789819A810E947A10B701812F0E9491
:1036F0000918B601812F0E9442180E94941081E09F
:1037000090E002C080E090E00F900F90DF91CF91A9
:103710001F910F91FF90EF90DF90CF9008950F933E
:103720001F93CF93DF931F921F92CDB7DEB7182F51
:1037300000E021E040E059E06DE370E0CE01019649
:103740000E94D71789819A810E947A1040E250E046
:10375000612F81E495E00E94721E812F0E941C1847
:1037600084FD21C0812F0E941C1883FF09C068E1DD
:10377000812F0E943D180E94941080E090E01BC0B1
:103780000E9494100E94FD4800E021E040E059E0D2
:103790006DE370E0CE0101960E94D71789819A816E
:1037A0000E947A10DACF60E1812F0E943D180E94BA
:1037B000941081E090E00F900F90DF91CF911F91D6
:1037C0000F9108958EBD00000DB407FEFDCF8EB59C
:1037D00008952C9808952C9A08951F93CF93DF9302
:1037E0001F921F92CDB7DEB7182F6A8399830E946C
:1037F000E91B80EF0E94E21B9981892F0E94E21B46
:10380000812F0E94E21B6A81862F0E94E21B0E9488
:10381000EB1B81E00F900F90DF91CF911F910895E6
:10382000CF93DF93EC016CE271E080E090E00E94C6
:1038300077490E94821E249A80915305882399F02B
:103840009FB7F89480915305813059F48DB38093DC
:1038500051052DB380915205809582238DBB9FBF6A
:1038600002C09093510580E58CBD1DBC60E880E0EE
:1038700090E00E94ED1B65E58BE190E00E94ED1B5E
:1038800065E58AE190E00E94ED1B80915305882355
:1038900061F09FB7F8942091530580915105213034
:1038A00019F48DBB9FBF01C08FBF80E090E4998366
:1038B000888380E090E69987888780E098E49B83FE
:1038C0008A8380E098E69B878A8780E090E59D83E5
:1038D0008C8380E090E79D878C8780E098E59F83CC
:1038E0008E8380E098E79F878E87DF91CF91089540
:1038F000CF92DF92EF92FF920F931F93CF93DF93BC
:10390000EC017A018B016C01C40ED51ECC15DD05CE
:10391000A1F00E94E91B80EF0E94E21B8D2F0E9404
:10392000E21B8C2F0E94E21B2196F80181918F01EE
:103930000E94E21B0E94EB1BE9CFC701DF91CF91F0
:103940001F910F91FF90EF90DF90CF9008951F93FC
:10395000CF93DF931F92CDB7DEB7182F99830E94C4
:10396000E91B8FE00E94E21B9981892F0E94E21BD4
:10397000812F0E94E21B80E00E94E21B89830E944B
:10398000EB1B89810F90DF91CF911F9108951F93B9
:10399000CF93DF93182F60E270E00E941218C82FB7
:1039A000D0E061E270E0812F0E941218DC2FCC275A
:1039B0009E01282BC901DF91CF911F910895FF929D
:1039C0000F931F93CF93DF93F62EC0E0D0E08F2D9F
:1039D0000E94C71C8C01009721F08F2D0E94C71CEC
:1039E000EC01C017D10799F7CE01DF91CF911F915C
:1039F0000F91FF9008951F93CF93DF93182F66E2E6
:103A000070E00E941218C82FD0E067E270E0812FAA
:103A10000E941218DC2FCC279E01282BC901DF91B0
:103A2000CF911F910895FF920F931F93CF93DF9330
:103A3000F62EC0E0D0E08F2D0E94FB1C8C01009779
:103A400021F08F2D0E94FB1CEC01C017D10799F7C4
:103A5000CE01DF91CF911F910F91FF9008956F924A
:103A60007F929F92AF92BF92CF92DF92EF92FF929E
:103A70000F931F93CF93DF931F92CDB7DEB7D82E4E
:103A8000962E3A01590164E270E0892D99830E94D3
:103A90001218E82EF12C65E270E0892D0E941218B0
:103AA000FE2CEE24E82AE60CF71C970137706D2CEB
:103AB0009981792E690C711C690C711CD301ED91EF
:103AC000FC91E20FF31FC901800F911F81309840D4
:103AD000A0F0C12C48E0D42EC21AD30AA601B50129
:103AE000CF010E94781CA8014C195D09B5016C0D2D
:103AF0007D1DF3018081918103C0A801B501CF0133
:103B00000E94781CE00EF11E4F2D64E270E0892DBA
:103B10000E9420184E2D65E270E0892D0F90DF91F4
:103B2000CF911F910F91FF90EF90DF90CF90BF90BA
:103B3000AF909F907F906F900C9420180F931F93DD
:103B400089019A0140E050E00E942F1D1F910F91C2
:103B50000895CF92DF92EF92FF920F931F93CF932E
:103B6000DF93EC017A018B016C01C40ED51ECC15DC
:103B7000DD05A9F00E94E91B8FE00E94E21B8D2F5A
:103B80000E94E21B8C2F0E94E21B219680E00E9483
:103B9000E21BF80181938F010E94EB1BE8CFC70164
:103BA000DF91CF911F910F91FF90EF90DF90CF9019
:103BB0000895AF92BF92CF92DF92EF92FF920F9350
:103BC0001F93CF93DF931F921F92CDB7DEB75A8317
:103BD00049835901E981FA81F7707C01E60EF11CF5
:103BE000E60EF11CD70118968D919C9119978E0FB6
:103BF0009F1F98012E0F3F1F2130384098F0C12C95
:103C000068E0D62ECE1ADF0AA601B5010E94A91DD2
:103C1000A8014C195D09B5016C0D7D1DF70180856A
:103C2000918502C0A801B5010F900F90DF91CF914F
:103C30001F910F91FF90EF90DF90CF90BF90AF90CA
:103C40000C94A91D8F929F92AF92BF92CF92DF9258
:103C5000EF92FF920F931F93CF93DF936C01962EF9
:103C60005A017901802E68E270E0892D0E941218B5
:103C7000C82FD0E069E270E0892D0E941218DC2F75
:103C8000CC27C82B87019501AE01692DC6010E9482
:103C9000D91D81101AC0CE0DDF1D4D2F68E270E0D6
:103CA000892D0E9420184C2F69E270E0892DDF9148
:103CB000CF911F910F91FF90EF90DF90CF90BF9029
:103CC000AF909F908F900C942018DF91CF911F910F
:103CD0000F91FF90EF90DF90CF90BF90AF909F90AB
:103CE0008F900895CF93C62F61E070E08C2F0E94D3
:103CF000201861E070E08C2F0E9412188111F9CF1A
:103D0000CF910895CF93CFB7F89480915405811146
:103D100027C0E2EDFDE08491ECE8FDE09491E82F0E
:103D2000F0E0EE0FFF1FE95EF14FA591B4918C9189
:103D3000892321F461E085E30E94B34A61E085E3D1
:103D40000E947A4A8CB580618CBD8CB580648CBD34
:103D500061E084E30E947A4A61E083E30E947A4A48
:103D6000809154058F5F80935405CFBFCF91089504
:103D70006F927F928F929F92AF92BF92CF92DF927B
:103D8000EF92FF920F931F93CF93DF93EA012CE3FF
:103D9000C22ED12CE12CF12CA70196010E94F54EE8
:103DA0006883CA01B901A70196010E94F54E698393
:103DB000CA01B90128E130E040E050E00E94F54E30
:103DC00049015A016A83CA01B9016C5F7F4F8F4F65
:103DD0009F4F27E030E040E050E00E94F54E6F5FDB
:103DE0006B8300E010E0980140E054E6652E712CF2
:103DF00060E9C62EDD24D394E42FF0E0EE54F84FB2
:103E00007F0183E0E822FF24E114F10489F4CF016B
:103E1000B3010E94E14E892B29F08EE691E0A0E0EB
:103E2000B0E00AC0CF01B6010E94E14E892BA9F390
:103E30008DE691E0A0E0B0E0080F191F2A1F3B1F9C
:103E4000D901C801AA27BB2788169906AA06BB066E
:103E500010F04F5FD1CF4E83E114F10499F4CF01FC
:103E600064E670E00E94E14E892B29F08EE691E035
:103E7000A0E0B0E00BC0CF0160E971E00E94E14E2C
:103E8000892BA1F38DE691E0A0E0B0E0081B190BAF
:103E90002A0B3B0B801A910AA20AB30ACF0164E6EF
:103EA00070E00E94E14E9C01CF0160E971E00E9448
:103EB000E14EEFE6F3E0A0E0A13059F4E114F104A3
:103EC00051F42115310511F04DE106C00097E1F3E1
:103ED00002C0408101C04CE150E060E070E0841617
:103EE0009506A606B70640F0841A950AA60AB70AF0
:103EF000AF5F3196AC3001F7AF5FAD8383948C82B6
:103F0000DF91CF911F910F91FF90EF90DF90CF90B5
:103F1000BF90AF909F908F907F906F900895CF92B9
:103F2000DF92EF92FF926B017C0180916505909189
:103F30006605A0916705B0916805C816D906EA061E
:103F4000FB0671F049E655E0C701B6010E94B81EB4
:103F5000C0926505D0926605E0926705F09268050B
:103F6000FF90EF90DF90CF9008950E948F1F809177
:103F70006B0590E008950E948F1F80916A0590E084
:103F800008950E948F1F80916D0590E008950E9412
:103F90008F1F80916C0590E008950E948F1F809183
:103FA0006E0590E008950E948F1F80916F0590E04C
:103FB0008E54984F08956F927F928F929F92AF92F6
:103FC000BF92CF92DF92EF92FF920F931F93CF9306
:103FD000DF93FC01C680AC2DB0E020E833E341EE76
:103FE00051E00E94594F4B015C0122EB37E06D011B
:103FF000C4E6D0E000E911E0C901825B97408C156E
:104000009D05DCF4C90183709927892B99F4C901B6
:10401000BE010E94E14E892B31F4C901B8010E9412
:10402000E14E892B39F480E8880E81E5981E81E005
:10403000A81EB11C2F5F3F4FDFCF6580712C8EE42F
:10404000C81A88EFD80AC60164E670E00E94E14E03
:104050008C01C60160E971E00E94E14E7C01C1E083
:10406000D0E083E0C822DD24C615D7052CF5C23088
:10407000D10589F4C114D10471F40115110519F4A5
:10408000E114F10441F480E8880E8BE3981E86E287
:10409000A81EB11C0FC0DE01A259BC4FAC91B0E00C
:1040A00020E831E541E050E00E94594F860E971E0E
:1040B000A81EB91E2196D8CF4181228130E0A0E10F
:1040C000BEE00E94434F6B017C01242F30E0ACE343
:1040D000B0E00E94434FC60ED71EE81EF91E808135
:1040E000C80ED11CE11CF11CA481B0E0119720E89E
:1040F00031E541E050E00E94644FC60ED71EE81E35
:10410000F91EC80CD91CEA1CFB1CC701B601DF91C3
:10411000CF911F910F91FF90EF90DF90CF90BF90C4
:10412000AF909F908F907F906F9008950F931F9303
:1041300060936105709362058093630590936405B5
:1041400000910C0210910D0220910E0230910F028D
:10415000060F171F281F391F0093590510935A0582
:1041600020935B0530935C0582E090E090935805C6
:10417000809357050E94484960935D0570935E05E2
:1041800080935F05909360051F910F910895CF92E2
:10419000DF92EF92FF920F931F930E944849C090C5
:1041A0005D05D0905E05E0905F05F09060056C19AC
:1041B0007D098E099F09009161051091620520918A
:1041C000630530916405683E734081059105D8F020
:1041D0000F5F1F4F2F4F3F4F0093610510936205F4
:1041E000209363053093640548EEC40E43E0D41E6B
:1041F000E11CF11CC0925D05D0925E05E0925F0566
:10420000F0926005CACF8091590590915A05A0910E
:104210005B05B0915C05081719072A073B07C8F131
:10422000E0915505F0915605309799F11995611572
:1042300071058105910519F00E9496202AC0809190
:104240000C0290910D02A0910E02B0910F024091CC
:104250006105509162056091630570916405840F5A
:10426000951FA61FB71F8093590590935A05A093D9
:104270005B05B0935C0581E090E02091570530919B
:104280005805232B11F480E090E09093580580931B
:104290005705609161057091620580916305909169
:1042A00064051F910F91FF90EF90DF90CF900895DC
:1042B0000E94C7200E948F1F80916C0590E0089596
:1042C0009093560580935505809161059091620504
:1042D000A0916305B09164058093590590935A05A8
:1042E000A0935B05B0935C050C94C7200F931F93BC
:1042F00060930C0270930D0280930E0290930F0254
:10430000009161051091620520916305309164056B
:10431000060F171F281F391F0093590510935A05C0
:1043200020935B0530935C051F910F910895FC016C
:104330008285807C8287168217821086118612827F
:104340001382148215821182108208954F925F9217
:104350006F927F928F929F92AF92BF92CF92DF9295
:10436000EF92FF920F931F93CF93DF93CDB7DEB7FA
:1043700028970FB6F894DEBF0FBECDBF8C01FC01AD
:104380004281538164817581452B462B472B09F46B
:104390001BC1828584FF18C10E94C7206B017C016C
:1043A000F8012285822F8F709EE0980F9F709330C6
:1043B00008F0F8C04681578160857185C416D5061E
:1043C000E606F70608F4EEC0823049F442815381D4
:1043D000648175814683578360877187E3C083302A
:1043E00009F047C0F80142805380648075800E94C4
:1043F000C72020E8822E21E5922EAA24A394B12C76
:10440000A50194010E94F54E60E871E581E090E01D
:104410000E94B14E640D751D861D971DF8014280E6
:10442000538064807580C616D706E806F90658F0F2
:10443000C701B601A50194010E94F54E2F5F3F4FC1
:104440004F4F5F4F06C0C701B601A50194010E94FE
:10445000F54E60E871E581E090E00E94B14E640D98
:10446000751D861D971DF801668377838087918768
:1044700099C0843009F092C0F80142805380648072
:1044800075800E94C7204B015C010E94C720698390
:104490007A838B839C830E94C7206D837E838F8366
:1044A0009887840C951CA61CB71C80E8482E81E5D3
:1044B000582E66246394712C69817A818B819C814A
:1044C000A30192010E94F54E861A970AA80AB90A1A
:1044D0006D817E818F819885A30192010E94F54EA6
:1044E0002C5F3F4F4F4F5F4FCA01B90127E030E0CB
:1044F00040E050E00E94F54E9B01AC0160E871E5A0
:1045000081E090E00E94B14E861A970AA80AB90A83
:10451000F8014281538164817581C814D904EA0489
:10452000FB0470F04A015B01F0E88F0EFAE39F1E76
:10453000F9E0AF1EB11C8C0C9D1CAE1CBF1C06C04C
:1045400046015701840E951EA61EB71EC701B6016F
:10455000A30192010E94F54E861A970AA80AB90A89
:10456000CA01B9016C5F7F4F8F4F9F4F27E030E04A
:1045700040E050E00E94F54E9B01AC0160E871E51F
:1045800081E090E00E94B14E861A970AA80AB90A03
:10459000F80186829782A086B18604C0822F8F7E22
:1045A000F8018287F80182858F70813089F4428119
:1045B0005381648175814C0D5D1D6E1D7F1D468389
:1045C00057836087718704C0F80182858F7E828758
:1045D00028960FB6F894DEBF0FBECDBFDF91CF9106
:1045E0001F910F91FF90EF90DF90CF90BF90AF9011
:1045F0009F908F907F906F905F904F90089566305E
:1046000050F4FC012BE0629FE00DF11D1124928516
:104610009F7081E009F480E008951F93CF93DF93AA
:10462000EC01162F0E94FF22882359F1812F90E080
:10463000FE012BE0129FE00DF11D112442815381F8
:1046400064817581452B462B472B41F041E0208149
:104650003181232B09F440E0242F01C020E03BE00E
:10466000389FF001399FF00D1124EC0FFD1F82855A
:1046700020FB84F98287CF01DF91CF911F910C94A9
:10468000A621DF91CF911F9108951F93CF93DF93C0
:10469000EC01162F0E94FF22882341F08BE0189F27
:1046A000C00DD11D11248A858F7E8A87DF91CF911D
:1046B0001F9108951F93CF93DF93EC01162F0E9453
:1046C000FF22882399F0FE018BE0189FE00DF11D79
:1046D00011248285807E8287118210821282138249
:1046E000148215821682178210861186DF91CF916F
:1046F0001F910895EF92FF920F931F93CF93DF9333
:104700008C01EC017C0182E4E80EF11CCE010E94D8
:1047100097212B96CE15DF05C9F71882C0E06C2FC4
:10472000C8010E945A23CF5FC630C9F7DF91CF91ED
:104730001F910F91FF90EF9008954F925F926F92AB
:104740007F928F929F92AF92BF92CF92EF92FF9201
:104750000F93CF93DF93EC014A015B013901C7014D
:104760000297039738F40E94C7206115724E8F4D4F
:104770009140B0F0412C512C9BE0949DF001959D0F
:10478000F00D1124EC0FFD1FDF011A9682858F704A
:1047900049F08FEF481A580A26E04216510469F78B
:1047A0008FEF18C0718260828C9100FB85F99E2D7D
:1047B0009F70807F892B8C9382829382A482B582A2
:1047C000642DCE01CC2019F00E940D2302C00E945E
:1047D0004523842DDF91CF910F91FF90EF90CF90E3
:1047E000BF90AF909F908F907F906F905F904F9011
:1047F00008958F929F92AF92BF92CF92DF92EF92E5
:10480000FF920F931F93CF93DF93FC017B0169010C
:10481000E8012CE330E0DA010E94524F4B015C01C9
:10482000C601AA2797FDA095BA2F880E991EAA1E29
:10483000BB1E20E13EE0D7010E94524F860E971E1C
:10484000A81EB91ECC24C39483E0E82EF12C00E00E
:104850009E01B501A401CF010E949D23DF91CF915C
:104860001F910F91FF90EF90DF90CF90BF90AF908E
:104870009F908F90089580E795E00C947A230F9392
:104880001F93CF93DF93EC01662359F00E944849B0
:1048900069837A838B839C83DF91CF911F910F91E2
:1048A00008950E94484909811A812B813C81601B2F
:1048B000710B820B930B643671058105910530F7FE
:1048C00063E070E080E090E00E947749EACF60E02A
:1048D0000C943F24FC0113AA14AA15AA16AA11824B
:1048E000128213821482411551056105710521F070
:1048F000CB01BA010C9477490895FB01BA01A901D3
:10490000DC01D296FC93EE93D19726E0CF010C9474
:10491000244C1F93CF93DF93EC01162F6BE773E0CA
:1049200089A99AA90E94FB4D4AE050E0612F89A90C
:104930009AA90E946A4E62E873E089A99AA90E9426
:10494000FB4D62E370E080E090E0DF91CF911F913A
:104950000C9477491F93CF93DF93EC01162F8D8131
:10496000882389F189A99AA9DC01ED91FC91048041
:10497000F581E02D1995892BA9F307C0263731055C
:1049800019F12835310509F41D8289A99AA9DC019C
:10499000ED91FC910480F581E02D1995181619060A
:1049A00094F489A99AA9DC01ED91FC910680F78124
:1049B000E02D19959C01332723363105F9F6612F37
:1049C000CE010E94892483E6DF91CF911F91089543
:1049D0000F931F93CF93DF931F92CDB7DEB78C0158
:1049E000662349F081E0F801858360E0C8014983CE
:1049F0000E94AA244981F80145830F90DF91CF914D
:104A00001F910F9108950F9300E020E040E060E0D7
:104A10008BEE95E00E94774D0F910C9452250F93E9
:104A200000E020E040E060E081EF95E00E94774DFB
:104A30000F9108950F9300E020E040E060E087EFE1
:104A400095E00E94774D0F9108950F9300E020E0CC
:104A500040E060E08DEF95E00E94774D0F91089562
:104A60000E94821E61E08AE00E947A4A60E087E04C
:104A70000E947A4A61E089E00E947A4A60E084E319
:104A80000E94B34A60E083E30E94B34A61E085E399
:104A90000E94B34A61E08AE00E94B34A60E089E084
:104AA0000C94B34A0C9430250F9300E020E040E0D2
:104AB00060E083E096E00E94774D0F910895809129
:104AC000390690E020913A06821B910908952091C1
:104AD0003A0680913906281750F4E22FF0E0E55CA1
:104AE000F94F808190E02F5F20933A0608958FEF71
:104AF0009FEF0895E0913A0680913906E81730F467
:104B0000F0E0E55CF94F808190E008958FEF9FEF32
:104B100008950895CF92DF92EF92FF920F931F9323
:104B2000CF93DF937C01CB018A01209115062223CC
:104B300089F0EB016B01C40ED51ECC15DD0569F0C3
:104B40006991D701ED91FC910190F081E02DC701B1
:104B50001995F3CF642F0E94EB26C801DF91CF9106
:104B60001F910F91FF90EF90DF90CF900895CF931A
:104B7000DF931F92CDB7DEB76983209115062223FC
:104B8000D1F020911606203240F021E030E0FC0107
:104B90003383228380E090E015C080911706E82FD0
:104BA000F0E0E85EF94F998190838F5F809317065C
:104BB0008093160605C061E0CE0101960E94EB26A7
:104BC00081E090E00F90DF91CF910895FC01138276
:104BD000128248EE53E060E070E0448355836683C0
:104BE000778387ED93E091838083089510923A064E
:104BF0001092390610921706109216060C9436265B
:104C0000862F413208F040E26BE376E00E945426A2
:104C100010923A0680933906089521E00C940026FC
:104C200081E0809315066093380610921706109263
:104C3000160608950C9410260F93062F21E040913C
:104C4000160668E176E0809138060E949826109258
:104C5000170610921606109215060F91089561E03E
:104C60000C941C2689E096E00C94E6251092C80668
:104C700081E08093C6061092C50661E084E10E943F
:104C8000B34A61E085E10E94B34AE9EBF0E080813C
:104C90008E7F808380818D7F808388E48093B800BD
:104CA00085E48093BC000895413208F03FC09091A4
:104CB000C8069111FCCF91E09093C8062093C606D8
:104CC0002FEF20935B061092A006240F20939F06DF
:104CD0009093C7069091C706880F892B8093C706CB
:104CE0008091C506813041F41092C5068091C706B7
:104CF0008093BB0085EC01C085EE8093BC00809161
:104D0000C8068130E1F38091A006841710F4409129
:104D1000A00621EA36E0FB01D9018A2F821B841705
:104D200018F48D918193F9CF842F089580E0089530
:104D30000F93413208F046C09091C8069111FCCF04
:104D400092E09093C8060093C6069FEF90935B068F
:104D50001092A00640939F06FB0161EA76E0DB011A
:104D60009A2F961B941718F491919D93F9CF109256
:104D7000C7069091C706880F892B8093C70680913C
:104D8000C506813041F41092C5068091C706809314
:104D9000BB0085EC01C085EE8093BC00222321F08E
:104DA0008091C8068230E1F380915B068F3F61F00D
:104DB00080915B06803251F080915B06803341F434
:104DC00083E007C081E005C080E003C082E001C04D
:104DD00084E00F910895613298F42091C806243040
:104DE00089F460937D06FC018FE796E0DC012A2FB1
:104DF000281B261718F421912D93F9CF80E00895F0
:104E000081E0089582E0089585ED8093BC00809153
:104E1000BC0084FDFCCF1092C806089585EC8093F9
:104E2000BC001092C80608951F920F920FB60F9201
:104E300011240BB60F922F933F934F935F936F9371
:104E40007F938F939F93AF93BF93EF93FF93809143
:104E5000B900887F803609F49CC068F5883209F46F
:104E60005BC090F4803109F454C038F4882309F40D
:104E7000F5C0883009F44DC0F5C0883109F44CC044
:104E8000803209F45DC0EEC0803409F468C048F493
:104E9000803309F455C0883309F0E4C080935B0681
:104EA000A8C0803509F44FC0883509F45DC0883446
:104EB00009F0D8C0D5C0883909F4C6C0A8F488372D
:104EC00009F467C038F4883609F463C0803709F400
:104ED00060C0C8C0883809F4B7C0803909F45FC021
:104EE000803809F0BFC05BC0803B09F485C038F44E
:104EF000803A09F466C0883A09F47EC0B3C0803CA9
:104F000009F4A6C0883C09F4A3C0883B09F489C011
:104F1000A9C08091C70610C09091A00680919F06FD
:104F2000981770F5E091A00681E08E0F8093A0069F
:104F3000F0E0EF55F94F80818093BB0085EC85C090
:104F400080935B068DC0E091A00681E08E0F809378
:104F5000A0068091BB00F0E0EF55F94F808390915F
:104F6000A00680919F066DC0E091A00681E08E0FA3
:104F70008093A0068091BB00F0E0EF55F94F80834D
:104F80008091C60681116CC081E08093C50684EAD9
:104F900060C083E08093C80610925C06CFCF8091FA
:104FA0005C06803208F050C0E0915C0681E08E0F14
:104FB00080935C068091BB00F0E0E35AF94F808358
:104FC000BDCF80915C06803230F4E0915C06F0E069
:104FD000E35AF94F10820E94042760915C0670E04A
:104FE000E091C106F091C2068DE596E01995109208
:104FF0005C060E940E2736C084E08093C80610929B
:105000007E0610927D06E091C306F091C4061995C4
:1050100080917D06811105C081E080937D0610920C
:105020007F06E0917E0681E08E0F80937E06F0E0A1
:10503000E158F94F80818093BB0090917E0680916A
:105040007D06981708F47ACF85E88093BC000AC0E3
:1050500085EC8093BC001092C80604C010925B06D9
:105060000E940427FF91EF91BF91AF919F918F9183
:105070007F916F915F914F913F912F910F900BBE58
:105080000F900FBE0F901F901895DC011696ED91B2
:10509000FC9117979F012F5F3F4F17963C932E93DC
:1050A0001697608381E090E00895BF92CF92DF92DF
:1050B000EF92FF920F931F93CF93DF938091E402BF
:1050C0001F928F938091C1021F928F938091540EF3
:1050D0001F928F9382E69AE09F938F938DE89AE0D8
:1050E0009F938F938BE498E09F938F9384E998E04C
:1050F0009F938F930E94A43D2DB73EB7225F3F4FF1
:105100000FB6F8943EBF0FBE2DBFC0E7D3E0B12C61
:1051100007E418E094E9E92E98E0F92E8091530E07
:10512000B81600F5CE010E946550C82ED12CDC2C9B
:10513000CC24CE0101960E9465509601280F311DA6
:10514000C9019F932F931F930F93FF92EF920E9499
:10515000A43DB39422960F900F900F900F900F9054
:105160000F90DCCF89E398E09F938F93C4E9D8E058
:10517000DF93CF930E94A43D8AE198E09F938F93A1
:10518000DF93CF930E94A43D8CEC9AE09F938F9382
:1051900084EF97E09F938F93DF93CF930E94A43D7A
:1051A0002DB73EB7225F3F4F0FB6F8943EBF0FBEFC
:1051B0002DBF81E0DF91CF911F910F91FF90EF9074
:1051C000DF90CF90BF9008959F92AF92BF92CF9201
:1051D000DF92EF92FF920F931F93CF93DF9382E6BC
:1051E0009AE09F938F938DE89AE09F938F9382E943
:1051F00094E09F938F93C4E9D8E0DF93CF930E940C
:10520000A43D8FE794E09F938F93DF93CF930E9409
:10521000A43D2BE6E22E22E0F22E07E612E08DB747
:105220009EB70C960FB6F8949EBF0FBE8DBFC0E020
:10523000D0E0912C30E7C32E34E0D32E44E9A42EE5
:1052400048E0B42E9E01F701808181FF2BC0C4315C
:1052500029F4F801808190E0CC9703C0F8018081A7
:1052600090E03F932F939F938F9381E0F7013397C3
:105270009081913009F080E01F928F93F801838133
:105280008F9382818F93DF92CF92BF92AF920E94D1
:10529000A43D93948DB79EB70C960FB6F8949EBF1D
:1052A0000FBE8DBF219695E0E90EF11C0B5F1F4FDD
:1052B000CE31D10539F66CE978E080E590E00E94C6
:1052C00043488CE998E09F938F931F929F9286E5C5
:1052D00094E09F938F93C4E9D8E0DF93CF930E942B
:1052E000A43D8BE494E09F938F93DF93CF930E9430
:1052F000A43D8CEC9AE09F938F9380E294E09F937F
:105300008F93DF93CF930E94A43D8DB79EB74296B3
:105310000FB6F8949EBF0FBE8DBF81E0DF91CF9195
:105320001F910F91FF90EF90DF90CF90BF90AF90C3
:105330009F90089582E00E94884686FF39C0982F8A
:105340009F70923071F09430D9F0913089F587FDDB
:105350000C941644609157027091580280E39EE0CD
:1053600007C087FD0C941F4460E070E088E29EE077
:105370000E941E4560ED77E080E090E00C94774954
:1053800087FF05C081E00E9488460C941F4220914F
:10539000560E822F8F7090E001966091540E70E04F
:1053A0000E94E14E8F70922F907F982B9093560E13
:1053B0000895CF93C82F0E94C72024E0C29FF00118
:1053C0001124E55FF84F6083718382839383CF91CB
:1053D00008950F931F93CF93DF93C82F8B010E94E3
:1053E000C720EC2FF0E06F5F7F4F8F4F9F4FDF01A3
:1053F000AA0FBB1FAA0FBB1FED01C553D84F68836F
:1054000079838A839B83A55FB84F0115110551F4F9
:105410004EEF5FEF6FEF7FEF4D935D936D937C9356
:1054200013970DC0222717FD2095322F060F171F47
:10543000281F391F0D931D932D933C931397E5520D
:10544000F94F83E680838091550E88608093550ED6
:10545000DF91CF911F910F9108958F929F92AF92FC
:10546000BF92CF92DF92EF92FF920F931F93CF9351
:10547000DF938C010E5F1F4FACE9B8E0E0E0E8017C
:10548000888190ED980F9A3038F4E43029F0EF5F7E
:105490000F5F1F4F8D93F3CFF0E0E456F74F10826C
:1054A0008CE998E00E94CB4FEC0197FF02C080E0AE
:1054B000ADC08091530E90E08C179D07C4F3F801A6
:1054C00080818D33E9F5209791F38091550E84FF0B
:1054D000EECF21978181803321F48C2F0E94D9292E
:1054E0001AC0813321F72DEE33E04FEF6CE978E0FD
:1054F000C80101960E947E3E882341F08CE998E025
:105500000E94CB4FBC0197FF03C0D1CF60E070E099
:105510008C2F0E94E9298DE89AE09F938F9388EB66
:1055200092E09F938F9384E998E09F938F930E94DA
:10553000A43D0F900F900F900F900F900F9065C0AB
:105540008DE89AE09F938F9385EB92E09F938F93E2
:1055500084E998E09F938F930E94A43D0F900F9051
:105560000F900F900F900F90209721F4C090530E42
:10557000C0E002C0CC2EC150812C912CAC2EB12C9D
:10558000D12CCFEAD2E004E918E072EBE72E72E00A
:10559000F72E94012A0D3B1D2C153D05B4F5809185
:1055A000550E982F93709130F1F49091D002992379
:1055B00011F082FD18C0F90163E0F595E7956A9551
:1055C000E1F7E35BF14F808190E02770332702C061
:1055D000959587952A95E2F7817099279F938F93E8
:1055E000FF92EF9204C01F921F92DF93CF931F93FD
:1055F0000F930E94A43D0F900F900F900F900F906B
:105600000F90EFEF8E1A9E0AC4CF81E0DF91CF9109
:105610001F910F91FF90EF90DF90CF90BF90AF90D0
:105620009F908F900895CF92DF92EF92FF920F9309
:105630001F930091C9061091CA062091CB063091A4
:10564000CC06011511052105310549F46093C90601
:105650007093CA068093CB069093CC061AC06B0158
:105660007C01C01AD10AE20AF30A970186010D33C0
:1056700011052105310568F06093C9067093CA06CB
:105680008093CB069093CC068091560E8F708093BA
:10569000560E1F910F91FF90EF90DF90CF900895DD
:1056A000BF92CF92DF92EF92FF920F931F93CF930F
:1056B000DF936F5F7F4F8F4F9F4FB090530EF090EF
:1056C000550E411108C0F3FAFF24F0F8ABECB7E037
:1056D000EBE0F7E040C0F3FACC27C0F9EBE0F7E0ED
:1056E000ABECB7E040E04B1529F10081118122813C
:1056F00033810115110521053105C1F06D937D93AD
:105700008D939C93139768017901C60ED71EE81EEE
:10571000F91EC082D182E282F3822091BC02C701CD
:10572000B601620F711D811D911DC1E04F5F34965E
:105730001496D9CF8091550EC0FB83F936C00081F5
:10574000118122813381011511052105310531F4C3
:105750004F5F149634964B11F2CF23C0C42FC695D9
:10576000C695C695D0E0C35BD14FC881D0E0542F19
:105770005770052E02C0D595C7950A94E2F7C0FD73
:10578000E7CF6D937D938D939C931397060F171F0F
:10579000281F391F0083118322833383FF24F3944E
:1057A000D7CF8091550EF0FA83F98093550EDF9193
:1057B000CF911F910F91FF90EF90DF90CF90BF900E
:1057C0000895CF93DF93EBECF7E0CBE0D7E0ABEDC0
:1057D000B6E01192119211921192199219921992A6
:1057E00019921D9288E0EB38F80799F7DF91CF9175
:1057F00008950E94D4420E94E1420C94E12B86ED70
:1058000093E00E9465508093930808950E94E12BD5
:105810000E94FF2B10928B0810928C0810928E0819
:1058200010928D0810928F08109290081092910893
:105830001092920808956091930886ED93E00C947D
:10584000A13D109293080C941B2C9B0190919308FE
:10585000891758F491E1899FB001112468527C4F57
:1058600041E150E0C9010C94A23D08956091930874
:105870006E3388F421E1629FB001112468527C4F9D
:1058800041E150E00E94A33D809193088F5F809397
:1058900093080C941B2C08959B01909193088917F1
:1058A00058F491E1899FB001112468527C4F41E185
:1058B00050E0C9010C94A33D08950F931F93CF931B
:1058C000DF93CDB7DEB761970FB6F894DEBF0FBE9A
:1058D000CDBF90919308891778F5992369F190E0ED
:1058E000019621E1289F8001299F100D1124085263
:1058F0001C4F2091930831E1239FC001112488524D
:105900009C4F0817190798F441E150E0B801CE0107
:1059100001960E94A23DB8016151710941E150E038
:10592000CE0101960E94A33D0F5E1F4FE2CF215092
:10593000209393080E941B2C61960FB6F894DEBF4B
:105940000FBECDBFDF91CF911F910F9108958F9220
:105950009F92AF92BF92CF92DF92EF92FF920F93FE
:105960001F93CF93DF93EC016A017B01CB01BA0156
:105970000E94B51F8C01C701B6010E94BB1F5C01CC
:105980008889882309F47FC0988097FE23C0898086
:1059900081E08815F8F4C701B60120E831E541E05F
:1059A00050E00E94F54EC82CD12CE12CF12CCA01FC
:1059B000B901A70196010E94F54E292D2F77C22E1D
:1059C000D12CE12CF12C6C157D058E059F0509F07D
:1059D0005AC030C0C701B6010E94C71F288130E0FD
:1059E0009927059667E070E00E94E14E02C0359568
:1059F00027958A95E2F720FF46C0C701B6010E94AD
:105A0000C11F982E888187FF15C08981811103C02D
:105A100090FE10C038C0813069F4892D8F3199F122
:105A20008D3131F4C701B6010E94CD1F029759F1A3
:105A300090FE29C02CE3209FC001219F900D1124CE
:105A40008A0D9B1D4A815B8184179507E0F02C81AC
:105A50003D8128173907B8F02E813F812115310586
:105A600091F0FC01E41BF50BCF01B9010E94CD4E72
:105A7000629FA001639F500D729F500D112481E021
:105A80004E175F0709F080E0DF91CF911F910F91D2
:105A9000FF90EF90DF90CF90BF90AF909F908F904E
:105AA00008958F929F92AF92BF92CF92DF92EF9222
:105AB000FF921F93CF93DF93EC011881C9800E945E
:105AC000C7208C2C912CA12CB12C212F2F77D12CDD
:105AD000C20ED11CEE24D7FCE094FE2C20E831E568
