:100000000C9438070C9469070C9469070C946907E1
:100010000C9469070C9469070C9469070C946907A0
:100020000C9469070C9469070C9469070C94690790
:100030000C9469070C9469070C9469070C94690780
:100040000C9469070C9469070C9469070C94690770
:100050000C9469070C9469070C9469070C94AA4ED8
:100060000C9469070C943F520C9475520C946907D8
:100070000C9469070C9469070C9469070C94690740
:100080000C9469070C9469070C9469070C94690730
:100090000C9469070C9469070C9469070C94DC298B
:1000A0000C9469070C9469070C9469070C94690710
:1000B0000C9469070C9469070C9469070C94690700
:1000C0000C9469070C9469070C9469070C946907F0
:1000D0000C9469070C9469070C9469070C946907E0
:1000E0000C946907F64FF94FE84FEC4FF24F305040
:1000F000FD4F015007500B500F50155019501D5017
:100100003050235027502B500C9412170C94E53C80
:100110000C94E4500C94CB500C94EC520C94F94B8E
:100120000C94DF270C9486160C9474430C942B21AA
:100130000C94F0440C9487120C94E21E0C94521F01
:100140000C940D210C94063B0C94D5170C94E516D9
:100150000C940B140C9477170C94A9520C94C82788
:100160000C94DB0D0C9487360C9429160C944939A9
:100170000C94AF160C944F280C948A140C94D13B19
:100180000C94A9120C9476530C947C280C94F33D97
:100190000C94D6120C94F4360C943F160C940A1658
:1001A0000C94F64F0C942B500C94E84F0C94102B9D
:1001B0000C9474140C94CC160C946E160C9493122C
:1001C0000C94D6500C9425160C94B5490C949B3B7A
:1001D0000C9415500C9469480C9430500C942C28B5
:1001E0000C940F500C9462340C94BC120C94E01ECE
:1001F0000C949F520C941D200C94F94F0C944514B0
:100200000C94872B0C9401500C9469140C94202BA3
:100210000C9476120C94DF120C9457530C940B50E0
:100220000C944E280C9420130C94CE080C94D427D4
:100230000C9464080C94FD4F0C9423500C94EA2702
:100240000C9419500C9456510C9451160C941D504A
:100250000C9478510C94C9500C9489120C94661625
:100260000C9472160C94F8490C94F9120C94E11E3B
:100270000C9427500C94EC4F0C9431200C94FA28D9
:100280000C9411160C943F280C94FD120C94192810
:100290000C94FF150C9424280C9424130C94FC3E0D
:1002A0000C94F24F0C943A150C9484120C94211671
:1002B0000C940D2B0C94F8500C94B1120C94FE2657
:1002C0000C94AE130C94075024460024440024449C
:1002D0000024460024463C6D657461206874747087
:1002E0002D65717569763D22726566726573682247
:1002F00020636F6E74656E743D22313B2075726CA5
:100300003D2F223E0024463C7363726970743E6147
:100310006C65727428224F7074696F6E73207661F9
:100320006C7565732073617665642E22293B2446C3
:100330000024463C7363726970743E616C6572742C
:1003400028224E65772070617373776F7264732013
:100350006D757374206D617463682122293B776920
:100360006E646F772E6C6F636174696F6E3D222FC0
:10037000766F223B3C2F7363726970743E0A0024CF
:10038000463C7363726970743E616C6572742822B6
:100390004E65772070617373776F72642073657434
:1003A0002E22293B24460024463C736372697074F4
:1003B0003E616C657274282256616C756573206F9E
:1003C0007574206F6620626F756E642122293B77F9
:1003D000696E646F772E6C6F636174696F6E3D2216
:1003E0002F766F223B3C2F7363726970743E0A0054
:1003F00024463C7363726970743E24460052656201
:100400006F6F74696E672E2E2E0024463C6D6574E6
:100410006120687474702D65717569763D2272650E
:1004200066726573682220636F6E74656E743D2218
:1004300024443B2075726C3D2F223E003C73637256
:10044000697074207372633D2224462F7669657744
:100450006F7074696F6E732E6A73223E3C2F7363E4
:10046000726970743E0A003C2F7363726970743E47
:100470000A00305D3B766172206E6F7074733D24AC
:10048000442C6C6F633D222453223B0022244622DD
:100490002C24442C24442C24442C003C7363726987
:1004A00070743E766172206F7074733D5B002446F9
:1004B0002446003C736372697074207372633D223A
:1004C00024462F686F6D652E6A73223E3C2F73633E
:1004D000726970743E0A003C7363726970742073B1
:1004E00072633D22706E2E6A73223E3C2F736372DC
:1004F0006970743E0A000A766172206C72756E3DF6
:100500005B24442C24442C24442C244C5D3C2F7329
:1005100063726970743E0A005B302C305D5D3B0A8B
:1005200076617220656E3D24442C72643D24442C17
:1005300072733D24442C6D6D3D24442C726473749D
:100540003D244C2C6D61733D24442C7572733D2405
:10055000442C776C3D24442C697061733D24442CF9
:100560006C6F633D222453223B005B24442C244CBB
:100570005D2C00305D3B7661722070733D5B002422
:10058000442C00766172206E6272643D24442C74A7
:100590007A3D24442C73626974733D5B003C736341
:1005A000726970743E766172207665723D24442CC7
:1005B000646576743D244C3B0A002446244600774B
:1005C000696E646F772E6C6F636174696F6E3D2224
:1005D0002F7670223B3C2F7363726970743E0A0061
:1005E000616C657274282250726F6772616D20248D
:1005F00044206D6F64696669656422293B00616C03
:1006000065727428224E65772070726F6772616D13
:100610002061646465642E22293B0024463C736398
:10062000726970743E003C736372697074207372F7
:10063000633D2224462F706C6F7470726F672E6A50
:1006400073223E3C2F7363726970743E0A003C73E0
:100650006372697074207372633D22706E2E6A73C8
:10066000223E3C2F7363726970743E0A00305D3B1A
:100670000024442C00766172206D61736F703D5BC5
:100680000024463C7363726970743E766172207315
:1006900065713D24442C6D61733D24442C776C3D81
:1006A00024442C7364743D24442C6D746F6E3D247B
:1006B000442C6D746F66663D24442C6465766461D9
:1006C000793D24442C6465766D696E3D24442C6428
:1006D000643D24442C6D6D3D24442C79793D2444A3
:1006E0003B0024463C7363726970743E77696E64A4
:1006F0006F772E6C6F636174696F6E3D222F767019
:10070000223B3C2F7363726970743E0A003C736332
:1007100072697074207372633D2224462F6D6F647A
:1007200070726F672E6A73223E3C2F73637269701A
:10073000743E0A003C2F7363726970743E0A3C7306
:100740006372697074207372633D22706E2E6A73D7
:10075000223E3C2F7363726970743E0A005D3B0059
:100760002C2444007661722070726F673D5B2444D4
:100770002C24442C24442C24442C24442C24442C69
:100780002444003C7363726970743E766172206E1B
:10079000626F617264733D24442C7069643D24442B
:1007A0002C697061733D24443B0024462446003C80
:1007B000736372697074207372633D2224462F76CE
:1007C00069657770726F672E6A73223E3C2F736380
:1007D000726970743E0A003C7363726970742073AE
:1007E00072633D22706E2E6A73223E3C2F736372D9
:1007F0006970743E0A00244624463C736372697033
:10080000743E0024463C7363726970743E24460053
:100810003C736372697074207372633D2224462FA7
:1008200076696577726F2E6A73223E3C2F7363720E
:100830006970743E0A003C7363726970742073724D
:10084000633D22706E2E6A73223E3C2F7363726981
:1008500070743E0A00305D3B3C2F736372697074A4
:100860003E0A0024442C00244624463C73637269EB
:1008700070743E766172206E626F617264733D24A3
:10088000442C6D61733D24442C697061733D244494
:100890002C6475723D5B003C7363726970742073E5
:1008A00072633D707324442E6A733E3C2F736372EF
:1008B0006970743E0A003C2F7363726970743E0A5B
:1008C00000766172206E70726F67733D24442C6EE7
:1008D000626F617264733D24442C697061733D24BE
:1008E000442C6D6E703D24442C70643D5B5D3B0078
:1008F0002446005D3B002C24440070645B24445D6E
:100900003D5B24442C24442C24442C24442C244497
:100910002C24442C24440024463C73637269707474
:100920003E616C65727428224368616E676573204E
:1009300073617665642E22293B2446002446766145
:10094000722000305D3B3C2F7363726970743E0A05
:100950003C736372697074207372633D2224462F66
:100960007669657773746174696F6E732E6A73222A
:100970003E3C2F7363726970743E0A0024442C005D
:10098000766172206D61736F703D5B0024463C732D
:1009900063726970743E766172206E626F61726418
:1009A000733D24442C6D61786C656E3D24442C6D40
:1009B00061733D24442C697061733D24442C0027ED
:1009C000275D3B0A00272453272C00736E616D6559
:1009D000733D5B00207365630025004E6F00596511
:1009E00073002B002B0020474D54003030003A009C
:1009F0002D002B000020202020002D5261696E2048
:100A000053746F702D002D44697361626C656421AD
:100A10002D003A0045004D433A003A002E002D00CB
:100A2000200020200020003A00200042333A686F66
:100A30006C6420746F20736176650042333A73658D
:100A40006C2042312F42323A636867003D3D536566
:100A500074204F7074696F6E733D3D00506C65611A
:100A6000736520576169742E2E2E0052657365746C
:100A700074696E6720454550524F4D00436F6E6E4E
:100A8000656374696E672E2E2E00706E00637200AF
:100A9000767200637300767300707300736E006388
:100AA0006F00766F006770006370006470006D7097
:100AB0000076700063760077696E646F772E6C6FD6
:100AC000636174696F6E3D222F223B3C2F7363720A
:100AD0006970743E0A00485454502F312E3020342F
:100AE000303120556E617574686F72697A65640D76
:100AF0000A436F6E74656E742D547970653A207474
:100B00006578742F68746D6C0D0A0D0A3C68313E6F
:100B100034303120556E617574686F72697A65641E
:100B20003C2F68313E003C6D657461206E616D65DF
:100B30003D76696577706F727420636F6E74656E51
:100B4000743D2277696474683D363430223E0D0A64
:100B500000485454502F312E3020323030204F4B2B
:100B60000D0A436F6E74656E742D547970653A206A
:100B7000746578742F68746D6C0D0A507261676DBE
:100B8000613A206E6F2D63616368650D0A0D0A007E
:100B9000687474703A2F2F72617973686F6262792A
:100BA0002E6E65742F736372697074732F6A617629
:100BB000612F737663322E300053756E005361746B
:100BC0000046726900546875005765640054756585
:100BD000004D6F6E00526573657420616C6C3F0050
:100BE0004C4344204261636B6C696768743A004C03
:100BF000434420436F6E74726173743A00446576A7
:100C00006963652049443A0049676E6F72652070D8
:100C1000617373776F72643A0053656C66746573C1
:100C2000742074696D653A005761746572696E6706
:100C3000206C6576656C3A004E6F726D616C6C79F4
:100C4000206F70656E3A00557365207261696E2081
:100C500073656E736F723A004D61732E206F666616
:100C60002061646A2E3A004D61732E206F6E206100
:100C7000646A2E3A004D61737465722073746174F6
:100C8000696F6E3A0053746174696F6E2064656CAD
:100C900061793A0053657175656E7469616C3A00EB
:100CA0004578702E20626F617264733A00417574EA
:100CB0006F207265636F6E6E6563743A000048540E
:100CC000545020706F72743A006970343A00697041
:100CD000333A006970323A00476174657761792E62
:100CE0006970313A006970343A006970333A0069CA
:100CF00070323A005374617469632E6970313A003E
:100D000055736520444843503A004E54502053795F
:100D10006E633A0054696D65207A6F6E653A0046DD
:100D200069726D77617265207665722E0000000A27
:100D30000B02090C0D0E080703040100000000005F
:100D400000000000000000000000000000000000A3
:100D50000000000000000000001211100000000060
:100D60000000000000000000000000000000000083
:100D70000000000102102020080810204010204030
:100D8000800201020108040201010204081020404F
:100D9000808040201008040201800402018040206D
:100DA0001008040201080402010102040810204096
:100DB000800102040810204080050505050705088C
:100DC000080808020202020A0A08080404040401CE
:100DD00001010101010101030303030303030304F0
:100DE0000707070C0C0C0C0C0C0C0C020202020680
:100DF000060606060606060B0B0B0B0B0B0B0B0071
:100E00000020002300260029002C002F00320000C3
:100E1000010000030106010901000022002500284D
:100E2000002B002E003100340002010000050108F3
:100E3000010B0100002100240027002A002D0030B2
:100E400000330001010000040107010A0100CE087F
:100E5000DB0D76126914FF15D517FE26C827D42797
:100E6000DF27EA271928FA286234F94BA952575389
:100E700011241FBECFEFD1E2DEBFCDBF00E00CBF1B
:100E800015E0A0E0B2E0EAE4FDEA00E00BBF02C03A
:100E900007900D92AC33B107D9F72FE0ACE3B5E082
:100EA00001C01D92A13CB207E1F71EE0C0E7DEE001
:100EB00000E006C022970109FE010BBF0E948D557C
:100EC000CE34D10780E00807A9F70E9467530C943D
:100ED000A3560C94000008956AE00E94E25420E1B9
:100EE000829F900D1124892F0895982F92959F70BD
:100EF0008F702AE0929F800D11240895CF93DF9385
:100F0000EC0168E670E085EA96E00E94E22860E085
:100F100085EA96E00E947C2888810E946C07682FF1
:100F200085EA96E00E947C2889810E946C07682FE0
:100F300085EA96E00E947C288A810E946C07682FCF
:100F400085EA96E00E947C288B810E946C07682FBE
:100F500085EA96E00E947C288C810E946C07682FAD
:100F600085EA96E00E947C288D810E946C07682F9C
:100F700085EA96E00E947C288E818E510E946C0743
:100F8000682F85EA96E00E947C2885EA96E00E9418
:100F9000F728882321F010923C0580E003C081E00F
:100FA00080933C05DF91CF910895CF93DF93CDB728
:100FB000DEB727970FB6F894DEBF0FBECDBFAE01E8
:100FC0004F5F5F4F0E947B21898180688983CE01BA
:100FD00001960E947E0789818F778983CE010196D1
:100FE0000E947E0727960FB6F894DEBF0FBECDBFD6
:100FF000DF91CF9108951F93CF93DF93EC0168E6C3
:1010000070E085EA96E00E94E22860E085EA96E0DA
:101010000E947C2885EA96E00E94F728882319F030
:1010200010923C054CC081E080933C0547E050E0C5
:1010300068E670E085EA96E00E94D52885EA96E0A9
:101040000E9424280797DCF185EA96E00E942C286C
:10105000182F8F770E947507888385EA96E00E9493
:101060002C280E947507898385EA96E00E942C2827
:101070008F730E9475078A8385EA96E00E942C2868
:101080000E9475078B8385EA96E00E942C280E94B7
:1010900075078C8385EA96E00E942C280E947507CC
:1010A0008D8385EA96E00E942C280E947507825E57
:1010B0008E83812F8095881F8827881F01C080E03C
:1010C000DF91CF911F910895CF93DF93CDB7DEB716
:1010D00027970FB6F894DEBF0FBECDBFCE010196A5
:1010E0000E94FB07882329F0CE0101960E949E22D0
:1010F00003C060E070E0CB0127960FB6F894DEBF26
:101100000FBECDBFDF91CF9108950E9624E1FC0173
:1011100011922A95E9F70895CF93DF93EC01625F6E
:101120007F4F0E943C53CE01DF91CF910895CF9322
:10113000DF93EC016E5E7F4F0E943C53CE01DF9146
:10114000CF910895CF93DF93EC016A5E7F4F0E94A9
:101150003C53CE01DF91CF910895CF93DF93EC0103
:10116000625E7F4F0E943C53CE01DF91CF91089584
:1011700080E3FB0180833296842F82958F7090E10B
:10118000899F401911244A3014F4405D01C0495C24
:101190004293882311F0482FEFCF08950F9300E07A
:1011A00020E040E060E08DE395E00E9430530F9135
:1011B00008956F927F928F929F92AF92BF92CF923B
:1011C000DF92EF92FF920F931F93CF93DF93CDB7F0
:1011D000DEB7AC970FB6F894DEBF0FBECDBF7C0173
:1011E000862EB42EA52E20E2922ECE0101966C0101
:1011F000FC01292D11922A95E9F70FEF2FEF4FEF00
:101200006FEF86960E9430538EE295E09AA389A3F1
:1012100089A59AA5ABA5BCA58BA39CA3ADA3BEA392
:101220008701095B1F4F43E450E0BE016F5D7F4FB4
:10123000C8010E946616019609F4BFC081E0898347
:101240008A8386E0782E7B821C82F7016481758117
:10125000868197810E945D556D837E838F839887F9
:10126000A986BA8680E890E09C878B874CE150E0A5
:10127000B601C8010E947216F601292D11922A9515
:10128000E9F7570188E0A80EB11CF501D6010190DD
:101290000D927A94E1F740E150E0B601C8010E9456
:1012A0007216F60111929A94E9F796E0692E712C64
:1012B00040E250E0B601C8010E947216F1E06F1AD8
:1012C0007108B1F783E6898392E89A8393E59B835B
:1012D0008C8385E38D8381E08E838F829DE3988765
:1012E00097E099878A8786E0F501DE011B960190D9
:1012F0000D928A95E1F78CE0898B8A8B66E173E029
:10130000CE0143960E941C56F7014385BE01675EDD
:101310007F4FC7010E94B808F7014485BE01655E92
:101320007F4FC7010E94B808F7014585BE01635E83
:101330007F4FC7010E94B8084EE150E0B601C801D6
:101340000E947216F3E08F121EC082E3898384E04C
:101350008A83F70196859B8397859C8390899D83DB
:1013600091899E8396E39F838887828D8987838D69
:101370008A87848D8B87858D8C874CE050E0B60101
:10138000C8010E94721687E3898386E08A8391E010
:101390009B8393E09C838D838FE08E838AE38F838E
:1013A0008BE388878FEF898749E050E0B601C80159
:1013B0000E947216C8010E946E16AC960FB6F89481
:1013C000DEBF0FBECDBFDF91CF911F910F91FF9078
:1013D000EF90DF90CF90BF90AF909F908F907F90D5
:1013E0006F9008952F923F924F925F926F927F92EB
:1013F0008F929F92AF92BF92CF92DF92EF92FF9225
:101400000F931F93CF93DF93CDB7DEB7E3970FB65C
:10141000F894DEBF0FBECDBF7C012A013B016901FC
:101420000E94F44E4B015C018701095B1F4FC8010C
:101430000E9412171816190694F00E94F44E6819AB
:1014400079098A099B094616570668067906F0F05D
:1014500062E370E080E090E00E94234FE8CF42E238
:1014600050E0BE016F5F7F4FC8010E94AF168981B7
:10147000823031F4F801858996898334910541F0F1
:1014800019A6C8010E943F1689A566C18FEF64C1E5
:101490006D817E818F8198850E945D554B015C0135
:1014A000F601608371838283938346E050E0B70145
:1014B000685F7F4FCE014D960E940F56892B99F49D
:1014C000F70180819181A281B38188169906AA06CD
:1014D000BB0648F084819581A681B781881599055E
:1014E000AA05BB0528F4C8010E943F1680E034C15C
:1014F00089899A89AB89BC89F70186879787A08BF0
:10150000B18B3EECC32ED12CC8010E948616F1E0AF
:10151000CF1AD108C9F719A6C70182969BA78AA737
:10152000F701B696FDA7ECA708969FA78EA73C9754
:101530006F018E9699AB88AB3897FBABEAAB57013E
:10154000F6E1AF0EB11C47018EE1880E911CC80177
:101550000E942516181619060CF093CFC8010E9498
:1015600086168333910509F4CDC0F4F481309105DA
:10157000B9F11CF4892B59F3DFC083309105C1F117
:10158000069709F0D9C0C8010E9486163C0144E0C4
:1015900050E0B401C8010E94AF16212C312C7724F1
:1015A000F4E06F1A71083FC08A33910509F47EC0D8
:1015B0003CF48533910561F0C69709F43FC0BCC087
:1015C0008B33910509F488C08F3F910501F2B4C0B7
:1015D000C8010E948616C8010E94861689A7B7CF47
:1015E000C8010E94861644E050E06AA97BA93AC06F
:1015F000C8010E9486163C0144E050E0B501C801D4
:101600000E94AF16212C312C772494E0691A7108BE
:10161000261437040CF09BCFC8010E948616EFEF0A
:101620002E1A3E0AF5CF261437040CF090CFC801CD
:101630000E9486168FEF281A380AF5CFC8010E943B
:101640008616782EF701828D811110C0838D81114D
:101650000DC0848D81110AC0858D811107C044E0C1
:1016600050E0B601C8010E94AF1671CFE8A9F9A9F0
:101670002080318042805380B601CE0183960E9443
:101680003C538DA19EA1AFA1B8A582159305A405D9
:10169000B50529F3212C312C721409F458CFC80157
:1016A0000E948616FFEF2F1A3F0AF6CFC8010E944C
:1016B000861644E050E06CA57DA5C8010E94AF16D7
:1016C000F70166A177A180A591A50E945D5566A34B
:1016D00077A380A791A73BCFC8010E94861644E05C
:1016E00050E06EA57FA5C8010E94AF16F70162A564
:1016F00073A584A595A50E945D5562A773A784A7CD
:1017000095A725CFC8010E94861644E050E06AA53F
:101710007BA5C8010E94AF16F70162A173A184A145
:1017200095A10E945D5562A373A384A395A366A7A8
:1017300077A780AB91AB0BCFC8010E948616382EDD
:10174000612C712C361409F402CFC8010E94861650
:10175000FFEF6F1A7F0AF6CFE3960FB6F894DEBF5D
:101760000FBECDBFDF91CF911F910F91FF90EF90F2
:10177000DF90CF90BF90AF909F908F907F906F90B1
:101780005F904F903F902F9008952F923F924F92ED
:101790005F926F927F928F929F92AF92BF92CF9201
:1017A000DF92EF92FF920F931F93CF93DF93CDB70A
:1017B000DEB727970FB6F894DEBF0FBECDBF8C0102
:1017C00020ED37E040E050E061E070E080E090E044
:1017D0000E94B654D80114966D937D938D939C937B
:1017E0001797F80160837183828393834801F7E43C
:1017F0008F0E911CC4010E94511664E470E0C40174
:101800000E94E516882309F428C10E94F44E6B015A
:101810007C01A12CB12C1D82180186E4280E311CFC
:10182000D801DE96BF83AE8338EE432E33E0532ECD
:10183000612C712CF1018081833009F4FDC081118C
:101840001FC0F80184819581A681B7810196A11DF1
:10185000B11D84839583A683B7830E94F44E6C19CF
:101860007D098E099F09A30192010E941655A901C5
:1018700061E0C8010E94D90881E0D1018C93BEC00B
:101880008430F9F4F80184819581A681B7810196AD
:10189000A11DB11D84839583A683B7830E94F44E56
:1018A0006C197D098E099F09A30192010E941655AA
:1018B000A90163E0C8010E94D908E2E0D101EC93DC
:1018C0009DC0813061F5AE81BF814D915D916D917B
:1018D0007C919E012F5F3F4FC8010E94F2098D83CA
:1018E000823009F08BC089819A81AB81BC81F8017B
:1018F00084839583A683B7830E94F44E6C197D0977
:101900008E099F09A30192010E941655A90163E067
:10191000C8010E94D908ED81D101EC9375C08230D5
:1019200009F06CC0AE81BF814D915D916D917C914C
:101930009E012F5F3F4FC8010E94F2098D838530C1
:1019400009F056C083E0F1018083F80182A193A1E0
:10195000A4A1B5A1892B8A2B8B2B41F484E893E0B9
:10196000A0E0B0E082A393A3A4A3B5A3F80186A14D
:1019700097A1A0A5B1A5892B8A2B8B2B61F482A1FD
:1019800093A1A4A1B5A1B695A7959795879586A390
:1019900097A3A0A7B1A7D8019A964D915D916D919B
:1019A0007C919D9796968D919D910D90BC91A02DC7
:1019B000452B462B472B59F4AC01BD01440F551F55
:1019C000661F771FF80142A753A764A775A7F80100
:1019D00086A797A7A0ABB1AB82A593A5A4A5B5A5F3
:1019E00082AB93ABA4ABB5ABAA24A394B12C0CC02F
:1019F000FD81F63019F4D1011C9206C0BD81BF3FB4
:101A000019F4F10110821D82F1E0AF16B10409F45E
:101A100011CF0E94F44E6C197D098E099F09D801DF
:101A2000DA962D913D914D915C91DD972617370700
:101A30004807590708F0FECEC4010E945116F8016C
:101A400084819581A681B7810196A11DB11D8483F2
:101A50009583A683B783C50102C080E090E02796F6
:101A60000FB6F894DEBF0FBECDBFDF91CF911F91AF
:101A70000F91FF90EF90DF90CF90BF90AF909F902D
:101A80008F907F906F905F904F903F902F90089530
:101A9000CF92DF92EF92FF920F931F93CF93DF933A
:101AA000EC016B011AA21BA21CA21DA21EA21FA266
:101AB00018A619A61AA61BA61CA61DA61EAA1FAA12
:101AC00018AE19AE2AAF3BAF4CAF5DAFFC01FE962E
:101AD000E082F182028313838C01085F1F4F86E04E
:101AE000F80111928A95E9F7CE010E94850886E0F7
:101AF000F601D80101900D928A95E1F7FE01EA5BAB
:101B0000FF4F1082CE01DF91CF911F910F91FF9077
:101B1000EF90DF90CF900C94C50BFB014281538175
:101B200064817581FC0142835383648375831782CA
:101B300016820895CF93FB0181918111FDCFFB01A6
:101B400080E090E020E030E0CAE06191662309F196
:101B50002430310564F56E3271F48F3F910509F040
:101B600034F5DA01A20FB31F12968C932F5F3F4F0B
:101B700080E090E0EACFDC01CA9FC001CB9F900DCE
:101B80001124772767FD709560537109860F971FA1
:101B9000DCCF8F3F910509F054F4243031053CF43B
:101BA000FA01E20FF31F828381E090E002C080E03F
:101BB00090E0CF9108950F9300E020E040E060E0D6
:101BC00083E495E00E9430530F910895AF92BF9245
:101BD000CF92DF92EF92FF920F931F93CF93DF93F9
:101BE00000D0CDB7DEB76C017B010E94F44EF60148
:101BF000778366838601085F1F4FB6016A5F7F4F58
:101C000042E050E0C8010E94721681E090E09A83A1
:101C1000898342E050E0BE016F5F7F4FC8010E94A0
:101C2000721680E091E09A83898342E050E0BE0121
:101C30006F5F7F4FC8010E9472161A82198242E0BC
:101C400050E0BE016F5F7F4FC8010E94721642E0F4
:101C500050E0BE016F5F7F4FC8010E94721642E0E4
:101C600050E0BE016F5F7F4FC8010E94721667018E
:101C7000F6018081882311F1F7016F0181918111B3
:101C800015C05601AE18BF081A141B0494F4AB8299
:101C900041E050E0BE016D5F7F4FC8010E947216A7
:101CA000A501B701C8010E94721603C08E3229F740
:101CB000E8CF7601FFEFEF1AFF0ADACF1B8241E08F
:101CC00050E0BE016D5F7F4FC8010E947216E12C8B
:101CD000FF24F394FA82E98242E050E0BE016F5F94
:101CE0007F4FC8010E947216FA82E98242E050E0FA
:101CF000BE016F5F7F4FC8010E94721681E090E0C5
:101D00000F900F900F90DF91CF911F910F91FF9047
:101D1000EF90DF90CF90BF90AF9008954F925F9279
:101D20006F927F928F929F92AF92BF92CF92DF92EB
:101D3000EF92FF920F931F93CF93DF93CDB7DEB750
:101D400063970FB6F894DEBF0FBECDBF7C015B0179
:101D50006A010E94F44E2B013C018701085F1F4F6E
:101D60004501A12CB12CC8010E94121718161906A2
:101D700094F00E94F44E6419750986099709861635
:101D80009706A806B906D0F062E370E080E090E024
:101D90000E94234FE8CFF70142815381648175810E
:101DA000818D928DA38DB48D481759076A077B07E3
:101DB00041F4858D968DC59721F406C08FEF9FEF76
:101DC000F9C08EEF9FEFF6C0C8010E9425160C9750
:101DD0000CF4EEC04CE050E0BE016F5F7F4FC801D5
:101DE0000E94AF168B819C819827892798279A8B10
:101DF000898BF7014681578129813A814217530720
:101E000011F497FD06C0C8010E943F168CEF9FEFAA
:101E1000D1C08F709270892B31F0C8010E943F169B
:101E20008BEF9FEFC7C0AF80B884BA24AB24BA242D
:101E3000A114B10419F0E12CF12C23C0C8010E94B7
:101E40003F168AEF9FEFB6C041E050E0BE01635FEE
:101E50007F4FC8010E94AF168D8581111BC08D85F3
:101E60008111F2CFC8010E948616C8010E94861611
:101E7000C8010E948616C8010E948616FFEFEF1A5D
:101E8000FF0A8D819E81982789279827E816F906F1
:101E9000D8F20AC08D859FEF980F9D878823F9F2AD
:101EA000C8010E948616F6CFE12CF12C41E050E0EB
:101EB000BE016D5E7F4FC8010E94AF168B89982FBF
:101EC000907C61F4882371F08B899FEF980F9B8B36
:101ED000882341F0C8010E948616F6CFC8010E94EF
:101EE00086161B8A8B898111E1CF42E050E0BE014A
:101EF000615F7F4FC8010E94AF1642E050E0BE0113
:101F0000635F7F4FC8010E94AF16C8010E9486160A
:101F1000C8010E948616C8010E948616C8010E9448
:101F2000861642E050E0BE016F5E7F4FC8010E94FE
:101F3000AF168F8598898115914029F48D859E85EE
:101F40008115914019F0812C912C16C089899A89AC
:101F50008115944031F0C8010E943F1687EF9FEF32
:101F600029C0B6016E5F7F4F44E050E0C8010E9477
:101F7000AF1681E090E01EC089899A899827892749
:101F800098278816990638F4C8010E9486162FEF04
:101F9000821A920AF1CF8FEFE81AF80AEA14FB04CA
:101FA00009F084CFC8010E943F1686EF9FEF02C060
:101FB0008DEF9FEF63960FB6F894DEBF0FBECDBFD7
:101FC000DF91CF911F910F91FF90EF90DF90CF9015
:101FD000BF90AF909F908F907F906F905F904F9049
:101FE00008958F929F92AF92BF92CF92DF92EF921D
:101FF000FF920F931F93CF93DF9300D000D0CDB704
:10200000DEB78C015B016A010E949A0D4C010097BA
:1020100009F05DC0F801428153816481758180912E
:10202000450590914605A0914705B0914805481790
:1020300059076A077B0709F44EC00E94F44E7801E5
:10204000F8E0EF0EF11C6F7077277C5FC7010E94EC
:10205000E516813009F043C08EE295E09A838983CA
:10206000F80182819381A481B5818B839C83AD83A8
:10207000BE8345E350E0BE016F5F7F4FC7010E9402
:102080006616892B19F4812C912C1DC0B501C8014D
:102090000E94E60D892BB9F3C7010E946E16892BA9
:1020A00091F333E0A32EB12CA60168E873E1C801D7
:1020B0000E948E0E4C01F1E0AF1AB10821F08F3F63
:1020C0002FEF920789F3C7010E94511608C0882498
:1020D0008394912C04C09EEF892E99249A94C40174
:1020E00026960FB6F894DEBF0FBECDBFDF91CF911D
:1020F0001F910F91FF90EF90DF90CF90BF90AF9026
:102100009F908F9008952091EF05222399F03FB77B
:10211000F8942091EF05213059F42DB32093ED056B
:102120004DB32091EE05209524232DBB3FBF02C067
:102130003093ED058CBD9DBD08958091EF058823FA
:1021400061F09FB7F8942091EF058091ED05213063
:1021500019F48DBB9FBF08958FBF089544E050E0F0
:10216000BC0181E090E00C94811C44E050E0BC0193
:1021700085E090E00C94811C44E050E0BC018FE0CD
:1021800090E00C94811CAF92BF92CF92DF92EF92BD
:10219000FF920F931F93CF93DF9300D000D0CDB762
:1021A000DEB76C015B018091B305811107C080E946
:1021B00095E00E94621781E08093B30589E495E081
:1021C000F601978386838DED95E00E94191C80E5CA
:1021D00090E00E94831046E050E0B50189E090E075
:1021E0000E94811C00E020E040E060E0CE0101960A
:1021F0000E943053CE0103960E94BC100E949D1095
:1022000010EAE12E1FE0F12E00E010E020E63AEEA9
:1022100040E050E0B501F601868197810E94480DAB
:102220005C0181309105B9F580E590E00E94831052
:10223000F60166817781CE0101960E948C08CE015D
:1022400003960E94BC10F60166817781CE0101964B
:102250000E94A208CE0103960E94AE10F60166818C
:102260007781CE0101960E949708CE0103960E94C5
:10227000B5100E949D10F60166817781CE0101960E
:102280000E94AD084B815C816D817E81F6014283A5
:10229000538364837583C50126960FB6F894DEBF19
:1022A0000FBECDBFDF91CF911F910F91FF90EF90A7
:1022B000DF90CF90BF90AF9008958F929F92AF9292
:1022C000BF92CF92DF92EF92FF920F931F93CF9323
:1022D000DF931F921F92CDB7DEB74C016A015901FF
:1022E0008DED95E069837A830E94191C80E590E06A
:1022F0000E94831046E050E069817A8189E090E095
:102300000E94811CC60102960E94BC10C801029660
:102310000E94AE10C70102960E94B5100E949D1047
:10232000F5014281538164817581F40142835383B5
:10233000648375830F900F90DF91CF911F910F9160
:10234000FF90EF90DF90CF90BF90AF909F908F90D5
:1023500008956F927F928F929F92AF92BF92CF9289
:10236000DF92EF92FF920F931F93CF93DF93CDB73E
:10237000DEB76E970FB6F894DEBF0FBECDBF6C010F
:102380005B017A014901380100E02FEF4FEF6FEF59
:10239000CE0149960E9430532EE235E03A832983DC
:1023A0008B8D9C8DAD8DBE8D8B839C83AD83BE83C9
:1023B00038872F83F30182819381A481B581898736
:1023C0009A87AB87BC873E872D87F40182819381F2
:1023D000A481B5818F87988BA98BBA8B3C8B2B8B73
:1023E000F70142815381648175814D8B5E8B6F8BC8
:1023F000788FCE0101967C018E01095F1F4F9E01EF
:10240000235F3F4FAE014D5E5F4FB501C6010E9495
:102410005D116E960FB6F894DEBF0FBECDBFDF9193
:10242000CF911F910F91FF90EF90DF90CF90BF90D1
:10243000AF909F908F907F906F900895CF93DF9390
:10244000EC010E94265380E590E00E948310BE01BB
:102450006E5F7F4F44E050E08FE090E00E94B21D3D
:102460000E949D10CE01DF91CF910895CF93DF930D
:10247000EC010E94265380E590E00E948310BE018B
:102480006E5F7F4F44E050E085E090E00E94B21D17
:102490000E949D10CE01DF91CF910895CF93DF93DD
:1024A000EC010E94265380E590E00E948310BE015B
:1024B0006E5F7F4F44E050E081E090E00E94B21DEB
:1024C0000E949D10CE01DF91CF9108952EE235E05C
:1024D000FC0131832083FB0142815381648175813A
:1024E000FC01428353836483758308950F9300E056
:1024F00020E040E060E083EC95E00E9430538BEAFE
:1025000095E00F910C94265381E086270895862F3D
:102510000895DC01ED91FC91048CF58DE02D199569
:1025200091E089270895CF93DF931F92CDB7DEB74F
:102530006983DC01ED91FC910280F381E02D41E0A3
:1025400050E0BE016F5F7F4F19950F90DF91CF91E3
:10255000089521E0FC018485843009F420E0822F75
:102560000895FC019485FB018485981303C081E0E4
:10257000943009F480E008950F931F93CF93DF9375
:10258000EC018A018C85843021F00E94B619892BD8
:1025900039F481E090E09B838A8380E090E001C081
:1025A000C801DF91CF911F910F910895FC0184859F
:1025B000843011F00C94AD1A80E090E00895CF9330
:1025C000DF931F92CDB7DEB741E050E0BE016F5FF1
:1025D0007F4FFC0184850E944C1A181619061CF4C2
:1025E000898190E002C08FEF9FEF0F90DF91CF9134
:1025F0000895FC0184850C944C1A0F931F93CF937C
:10260000DF931F92CDB7DEB78C01DC01ED91FC9119
:102610000480F581E02D1995892B51F0BE016F5F83
:102620007F4FF80184850E94D81A898190E002C00A
:102630008FEF9FEF0F90DF91CF911F910F91089532
:10264000FC0184850C94081BCF92DF92EF92FF92DD
:102650000F931F93CF93DF93CDB7DEB7AF970FB62E
:10266000F894DEBF0FBECDBF7C018B016A01CE01A5
:1026700001960E942653CE0109960E946217CE0150
:102680008A960E9426536BEA75E0CE0184960E94DA
:102690006612BE016C5D7F4FCE0101960E948D0DCA
:1026A000AE01465D5F4FB801CE0101960E94F10F69
:1026B00081309105C1F4D701ED91FC910484F58539
:1026C000E02D8EE295E09DA38CA30CA51DA52EA563
:1026D0003FA50EA31FA328A739A7A601BE016C5DC5
:1026E0007F4FC7011995AF960FB6F894DEBF0FBEA6
:1026F000CDBFDF91CF911F910F91FF90EF90DF90B1
:10270000CF900895FC011382128248EE53E060E0FE
:1027100070E0448355836683778381E293E09183FD
:10272000808384E084870895FC01262F138212821F
:1027300048EE53E060E070E044835583668377831E
:1027400081E293E09183808324870895FC0184854E
:10275000843011F00C945C1880E00895DF92EF92C1
:10276000FF920F931F93CF93DF93EC017B018A01BC
:102770008C85843009F045C0D12C8D2D0E945C18C9
:10278000811102C0DC8607C08B7F8831D9F3D394D6
:1027900084E0D812F2CF8C85843099F120910A021E
:1027A00030910B022F5F3F4F11F420E030EC30935B
:1027B0000B0220930A0240910A0250910B0220E082
:1027C00061E00E94AE18B7016E5F7F4FA8018C8553
:1027D0000E943619811103C084E08C8712C0CE019B
:1027E0000E94A613873151F061E070E080E090E034
:1027F0000E94234FCE010E94A613ECCF81E090E00F
:1028000002C080E090E0DF91CF911F910F91FF9087
:10281000EF90DF900895CF92DF92EF92FF92CF93E7
:10282000DF93EC018C85843049F10E948F190E945E
:10283000F44E6B017C01CE010E94A6138823A1F007
:1028400061E070E080E090E00E94234F0E94F44E2F
:102850006C197D098E099F09683E734081059105B9
:1028600050F38C850E948318EC85F0E0EE0FFF1F7B
:10287000E554FA4F1182108284E08C87DF91CF916A
:10288000FF90EF90DF90CF900895CF93DF93EC010E
:102890008C858430D1F0CE010E94A6138431A9F03A
:1028A000882399F0883189F08C3169F4E881F981C5
:1028B0000480F581E02DCE01199521E0892B09F4E2
:1028C00020E0822F03C081E001C080E0DF91CF9142
:1028D00008950F9300E020E040E060E089EC95E08F
:1028E0000E9430530F910895CF93DF931F92CDB77D
:1028F000DEB76983DC01ED91FC910280F381E02D6C
:1029000041E050E0BE016F5F7F4F19950F90DF915E
:10291000CF910895EF92FF920F931F93CF93DF9380
:10292000CDB7DEB72D970FB6F894DEBF0FBECDBF83
:102930007C0100E010E0602FCE0101960E9494130C
:10294000CE0101960E94A613811116C0F7014481A1
:10295000558120E061E0802F0E94AE18802F0E94F8
:102960000319F70184819581F801EE0FFF1FE554EB
:10297000FA4F9183808305C00F5F1F4F043011050C
:10298000D1F62D960FB6F894DEBF0FBECDBFDF9106
:10299000CF911F910F91FF90EF900895FC0113824A
:1029A000128285E493E09183808375836483089524
:1029B000BF92CF92DF92EF92FF920F931F93CF932C
:1029C000DF93CDB7DEB72D970FB6F894DEBF0FBEFD
:1029D000CDBF8C014BEBC42E45E0D42EB12CE12CA5
:1029E000F12C6B2DCE0101960E949413D6012D91EE
:1029F0003D916D01F8018481958128173907B1F463
:102A0000CE0101960E94A613843169F0CE01019691
:102A10000E94A6138C3151F4CE0101960E94D61269
:102A2000892B99F003C0EE24E394F12CB394F4E0E5
:102A3000BF12D7CFEF2871F4D801ED91FC9104803B
:102A4000F581E02DC801199505C0CE0101960E94BF
:102A50000B14ECCF2D960FB6F894DEBF0FBECDBF92
:102A6000DF91CF911F910F91FF90EF90DF90CF906A
:102A7000BF9008957F928F929F92AF92BF92CF9214
:102A8000DF92EF92FF920F931F93CF93DF93CDB717
:102A9000DEB72D970FB6F894DEBF0FBECDBF6C0129
:102AA0005B014A010E94D8145BEBE52E55E0F52E40
:102AB000712C00E010E0672DCE0101960E94941366
:102AC000F701219131917F01F601848195812817C9
:102AD000390731F4CE0101960E94A6138731C9F05F
:102AE0007394F4E07F12E7CFC8012D960FB6F894E7
:102AF000DEBF0FBECDBFDF91CF911F910F91FF9031
:102B0000EF90DF90CF90BF90AF909F908F907F908D
:102B10000895A401B501CE0101960E94BC12080FD0
:102B2000191FDECFBF92CF92DF92EF92FF920F93E9
:102B30001F93CF93DF93CDB7DEB72D970FB6F894E1
:102B4000DEBF0FBECDBF8C016B01CB010E94D8143C
:102B50006BEBE62E65E0F62EB12C6B2DCE010196C7
:102B60000E949413F701219131917F01F601848134
:102B700095812817390751F5CE0101960E94A613B9
:102B8000873111F08C3111F5CE0101960E94D612D9
:102B9000892BE1F08B819C81F801938382838D8165
:102BA0009E81AF81B88584839583A683B783498549
:102BB0005A856B857C85408751876287738781E260
:102BC00093E0918380838D85848708C0B394F4E07B
:102BD000BF12C3CF64E0C8010E949413C8012D96B0
:102BE0000FB6F894DEBF0FBECDBFDF91CF911F911E
:102BF0000F91FF90EF90DF90CF90BF9008950F93CB
:102C000000E020E040E060E08FEC95E00E9430536F
:102C10000F910895DC01ED91FC91008CF18DE02D78
:102C200019942EE235E0FC0131832083FB014189B8
:102C3000528963897489FC01428353836483758359
:102C40000895FC01858996890895FC01818D928DF6
:102C50000895CF93DF931F92CDB7DEB76983DC0170
:102C6000ED91FC910280F381E02D41E050E0BE0146
:102C70006F5F7F4F19950F90DF91CF910895CF939C
:102C8000DF93EC01898D9A8D892B41F0E881F981E0
:102C90000680F781E02DCE011995F4CFDF91CF9119
:102CA0000895CF93DF93EC018C85843061F00E940E
:102CB0008318EC85F0E0EE0FFF1FE554FA4F118208
:102CC000108284E08C87DF91CF910895FC01108EF3
:102CD000178A6E5F7F4F84850C94511BFC0184859D
:102CE0000C94981BCF93DF93EC019A018F89988DF8
:102CF000AB01BC018C850E94091B2F89388D280FE0
:102D0000391F388F2F8BDF91CF9108950F931F9329
:102D1000CF93DF931F92CDB7DEB78C01FC01818D7D
:102D2000928D892B59F041E050E0BE016F5F7F4FDB
:102D300084850E944C1A181619061CF08FEF9FEF1D
:102D400008C0F801818D928D0197928F818F8981C2
:102D500090E00F90DF91CF911F910F910895CF9345
:102D6000DF93EC01898D9A8D009719F48FEF9FEF17
:102D700010C04817590708F0AC018C850E944C1A06
:102D8000181619069CF7298D3A8D281B390B3A8F96
:102D9000298FDF91CF910895CF93DF931F92CDB705
:102DA000DEB7FC01218D328D232B49F0BE016F5F10
:102DB0007F4F84850E94D81A898190E002C08FEFEE
:102DC0009FEF0F90DF91CF910895FF920F931F9384
:102DD000CF93DF93EC018B018C858430E1F4F12CEF
:102DE0008F2D0E945C18811102C0FC8606C08831BC
:102DF000E1F3F39484E0F812F3CF8C85843059F03A
:102E00001E870D871A8E198E20E0A80162E00E94AD
:102E1000AE1881E001C080E0DF91CF911F910F914A
:102E2000FF9008950F931F93CF93DF93CDB7DEB735
:102E300028970FB6F894DEBF0FBECDBF8C01DC0122
:102E4000ED91FC910284F385E02D1995F8018485BC
:102E50000E94AD1A1816190644F548E050E0BE016C
:102E60006F5F7F4FD8011C968C910E944C1A1816E8
:102E70001906ECF4BE016F5F7F4FC8010F960E94E8
:102E80004C538D8190E0982F88272E81820F911DC1
:102E9000F801968B858B8F8190E0982F8827288565
:102EA000820F911D928F818F02C080E090E0289662
:102EB0000FB6F894DEBF0FBECDBFDF91CF911F914B
:102EC0000F910895FC011382128248EE53E060E0F6
:102ED00070E044835583668377838FE493E0918326
:102EE000808384E08487CF010F960C942653CF9281
:102EF000DF92EF92FF920F931F93CF93DF93CDB7A3
:102F0000DEB7AF970FB6F894DEBF0FBECDBF7C0122
:102F10008B016A01CE0101960E942653CE010996CB
:102F20000E946217CE018A960E9426536BEA75E0D2
:102F3000CE0184960E946612BE016C5D7F4FCE0169
:102F400001960E948D0DAE01465D5F4FB801CE0126
:102F500001960E94F10F81309105C1F4D701ED91E6
:102F6000FC910088F189E02D8EE295E09DA38CA371
:102F70000CA51DA52EA53FA50EA31FA328A739A705
:102F8000A601BE016C5D7F4FC7011995AF960FB6C4
:102F9000F894DEBF0FBECDBFDF91CF911F910F918F
:102FA000FF90EF90DF90CF9008950F9300E020E026
:102FB00040E060E085ED95E00E9430530F91089568
:102FC000CF92DF92EF92FF920F9330E0C12CF2E1AB
:102FD000DF2EFAE7EF2EF12C4C155D056E057F050F
:102FE00040F4F694E794D794C7943F5F3630A1F746
:102FF00037E041E04327211102C050E701C050E50E
:10300000242F30E03595279523700C70202B252B2D
:10301000FC012083417041830F91FF90EF90DF907E
:10302000CF90089590E0982F882744E050E0845F87
:103030009B4F0C94811C282F30E02C5F3F4F922F28
:103040008827860F971F0C94B01C62E070E00C94E8
:103050001B18FB01282F30E02C5F3F4F922F882751
:10306000642F8E0F9F1F0C94F61BCF93DF93C82FF6
:10307000D62F472F64E070E00E9429184D2F65E09D
:1030800070E08C2FDF91CF910C942918462F62E0CD
:1030900070E00C942918CF93DF93C82FD62F472FB9
:1030A00060E170E00E9429184D2F61E170E08C2FE3
:1030B000DF91CF910C9429180F931F93CF93DF9337
:1030C00000D0CDB7DEB7182F00E021E040E059E096
:1030D0006DE370E0CE0101960E94E01789819A812C
:1030E0000E94831063E070E0812F0E941B188B8385
:1030F0000E949D108B810F900F900F90DF91CF91C8
:103100001F910F9108950F931F93CF93DF931F92F9
:103110001F92CDB7DEB7182F00E021E040E059E064
:103120006DE370E0CE0101960E94E01789819A81DB
:103130000E94831040E150E0612F8DED95E00E94E8
:103140007B1E6FEF812F0E9446180E949D100F90EA
:103150000F90DF91CF911F910F910895CF92DF9241
:10316000EF92FF920F931F93CF93DF931F921F92C3
:10317000CDB7DEB7182FD62E7A01C22E8FEF860F6D
:103180008530A8F5812F0E94831800E021E040E0FF
:1031900059E06DE370E0CE0101960E94E01789814D
:1031A0009A810E9483104D2D4C2960E070E0812FA0
:1031B0000E942918E114F10411F0B7010AC06091CE
:1031C000DB057091DC056F5F7F4F7093DC056093CA
:1031D000DB05812F0E94351841E050E0612F8DED15
:1031E00095E00E947B1E0E949D1081E001C080E05E
:1031F0000F900F90DF91CF911F910F91FF90EF9063
:10320000DF90CF9008950F931F93CF93DF931F927A
:103210001F92CDB7DEB7182F00E021E040E059E063
:103220006DE370E0CE0101960E94E01789819A81DA
:103230000E94831063E070E0812F0E941B1883318D
:1032400021F00E949D1080E00AC042E050E0612F12
:103250008DED95E00E947B1E0E949D1081E00F90F5
:103260000F90DF91CF911F910F910895CF92DF9230
:10327000EF92FF920F931F93CF93DF931F921F92B2
:10328000CDB7DEB7182F7B016A01FB0180818F3F2C
:1032900051F481818F3F99F482818F3F81F4838142
:1032A0008F3F69F430C081110AC0FB018181811117
:1032B00006C08281811103C08381882321F1C1145A
:1032C000D10409F100E021E040E059E06DE370E055
:1032D000CE0101960E94E01789819A810E94831095
:1032E000B701812F0E941218B601812F0E944B183E
:1032F00044E050E0612F8DED95E00E947B1E0E941E
:103300009D1081E001C080E00F900F90DF91CF9180
:103310001F910F91FF90EF90DF90CF9008950F9342
:103320001F93CF93DF931F921F92CDB7DEB7182F55
:1033300000E021E040E059E06DE370E0CE0101964D
:103340000E94E01789819A810E94831048E050E032
:10335000612F8DED95E00E947B1E0E949D100F90C5
:103360000F90DF91CF911F910F910895BF92CF924F
:10337000DF92EF92FF920F931F93CF93DF9300D0D2
:10338000CDB7DEB7B82E6B017A01413088E058071F
:1033900018F0E12C98E0F92E00E021E040E059E03F
:1033A0006DE370E0CE0101960E94E01789819A8159
:1033B0000E9483106B2D8DED95E00E94E81C8C011E
:1033C00063E070E08B2D0E941B188B830E949D1080
:1033D0008B81873111F08C3131F40E94A94E0E158A
:1033E0001F05D0F202C0E12CF12C00E021E040E00A
:1033F00059E06DE370E0CE0101960E94E0178981EB
:103400009A810E9483109701A6016B2D8DED95E0A6
:103410000E94A71D40E250E06B2D8DED95E00E94CB
:103420007B1E8B2D0E94251884FD22C063E070E076
:103430008B2D0E941B18811108C00E949D108B2D9E
:103440000E94831880E090E01AC00E949D100E94A4
:10345000A94E00E021E040E059E06DE370E0CE01CC
:1034600001960E94E01789819A810E948310D9CF2A
:1034700060E18B2D0E9446180E949D10C7010F909D
:103480000F900F90DF91CF911F910F91FF90EF90D0
:10349000DF90CF90BF900895AF92BF92CF92DF920E
:1034A000EF92FF920F931F93CF93DF931F921F9280
:1034B000CDB7DEB7182F5B016A0100E021E040E0E4
:1034C00059E06DE370E0CE0101960E94E01789811A
:1034D0009A810E948310612F8DED95E00E941C1D42
:1034E0007C010097A1F463E070E0812F0E941B181B
:1034F000843119F1882309F121E030E08C3111F495
:1035000020E030E0EE24FF24E21AF30A16C0C816C9
:10351000D9060CF476011E141F047CF400E0970118
:10352000A501612F8DED95E00E942B1E40E450E037
:10353000612F8DED95E00E947B1E0E949D10C701BA
:103540000F900F90DF91CF911F910F91FF90EF900F
:10355000DF90CF90BF90AF9008950F931F93CF93BC
:10356000DF9300D01F92CDB7DEB7182F00E021E027
:1035700040E059E06DE370E0CE0101960E94E01753
:1035800089819A810E948310612F8DED95E00E94C0
:103590001C1D8B839C830E949D108B819C810F90AE
:1035A0000F900F900F90DF91CF911F910F91089581
:1035B000EF92FF920F931F93CF93DF931F921F926F
:1035C000CDB7DEB7182F7B0100E021E040E059E0E5
:1035D0006DE370E0CE0101960E94E01789819A8127
:1035E0000E94831001E021E030E0A701612F8DED02
:1035F00095E00E942B1E0E949D1081E090E00F90AC
:103600000F90DF91CF911F910F91FF90EF90089550
:1036100008959F92AF92BF92CF92DF92EF92FF9266
:103620000F931F93CF93DF931F921F92CDB7DEB7F7
:10363000982E6B015A01790100E021E040E059E049
:103640006DE370E0CE0101960E94E01789819A81B6
:103650000E948310692D8DED95E00E94E81C8E1567
:103660009F0530F4692D8DED95E00E94E81C7C01EA
:1036700087019501A601692D8DED95E00E94381D09
:103680000E949D10C7010F900F90DF91CF911F9165
:103690000F91FF90EF90DF90CF90BF90AF909F90F1
:1036A0000895CF92DF92EF92FF920F931F93CF93E3
:1036B000DF931F921F92CDB7DEB7182F7B016A01EF
:1036C000FB018081811109C08181811106C0828145
:1036D000811103C083818823F1F0C114D104D9F092
:1036E00000E021E040E059E06DE370E0CE0101969A
:1036F0000E94E01789819A810E948310B701812F6F
:103700000E941218B601812F0E944B180E949D1032
:1037100081E090E002C080E090E00F900F90DF9198
:10372000CF911F910F91FF90EF90DF90CF90089570
:103730000F931F93CF93DF931F921F92CDB7DEB7E6
:10374000182F00E021E040E059E06DE370E0CE0189
:1037500001960E94E01789819A810E94831040E2BD
:1037600050E0612F8DED95E00E947B1E812F0E941D
:10377000251884FD21C0812F0E94251883FF09C0D0
:1037800068E1812F0E9446180E949D1080E090E021
:103790001BC00E949D100E94A94E00E021E040E065
:1037A00059E06DE370E0CE0101960E94E017898137
:1037B0009A810E948310DACF60E1812F0E9446181F
:1037C0000E949D1081E090E00F900F90DF91CF91CB
:1037D0001F910F9108958EBD00000DB407FEFDCF1F
:1037E0008EB508952C9808952C9A08951F93CF9321
:1037F000DF931F921F92CDB7DEB7182F6A8399838C
:103800000E94F21B80EF0E94EB1B9981892F0E947E
:10381000EB1B812F0E94EB1B6A81862F0E94EB1B02
:103820000E94F41B81E00F900F90DF91CF911F91C8
:103830000895CF93DF93EC016CE271E080E090E0BB
:103840000E94234F0E944521249A8091EF058823EE
:1038500099F09FB7F8948091EF05813059F48DB3BA
:103860008093ED052DB38091EE05809582238DBB6D
:103870009FBF02C09093ED0580E58CBD1DBC60E844
:1038800080E090E00E94F61B65E58BE190E00E94ED
:10389000F61B65E58AE190E00E94F61B8091EF053A
:1038A000882361F09FB7F8942091EF058091ED0592
:1038B000213019F48DBB9FBF01C08FBF80E090E421
:1038C0009983888380E090E69987888780E098E4F0
:1038D0009B838A8380E098E69B878A8780E090E5D7
:1038E0009D838C8380E090E79D878C8780E098E5BE
:1038F0009F838E8380E098E79F878E87DF91CF91AB
:103900000895CF92DF92EF92FF920F931F93CF9380
:10391000DF93EC017A018B016C01C40ED51ECC152E
:10392000DD05A1F00E94F21B80EF0E94EB1B8D2FA2
:103930000E94EB1B8C2F0E94EB1B2196F8018191BA
:103940008F010E94EB1B0E94F41BE9CFC701DF919E
:10395000CF911F910F91FF90EF90DF90CF9008953E
:103960001F93CF93DF931F92CDB7DEB7182F9983A4
:103970000E94F21B8FE00E94EB1B9981892F0E940D
:10398000EB1B812F0E94EB1B80E00E94EB1B8983C5
:103990000E94F41B89810F90DF91CF911F910895B0
:1039A0001F93CF93DF93182F60E270E00E941B18E3
:1039B000C82FD0E061E270E0812F0E941B18DC2F3D
:1039C000CC279E01282BC901DF91CF911F9108952B
:1039D000FF920F931F93CF93DF93F62EC0E0D0E0BA
:1039E0008F2D0E94D01C8C01009721F08F2D0E94FA
:1039F000D01CEC01C017D10799F7CE01DF91CF9110
:103A00001F910F91FF9008951F93CF93DF93182F6D
:103A100066E270E00E941B18C82FD0E067E270E0F9
:103A2000812F0E941B18DC2FCC279E01282BC90157
:103A3000DF91CF911F910895FF920F931F93CF9322
:103A4000DF93F62EC0E0D0E08F2D0E94041D8C0184
:103A5000009721F08F2D0E94041DEC01C017D107A3
:103A600099F7CE01DF91CF911F910F91FF900895AB
:103A70006F927F929F92AF92BF92CF92DF92EF921E
:103A8000FF920F931F93CF93DF931F92CDB7DEB7B3
:103A9000D82E962E3A01590164E270E0892D99835F
:103AA0000E941B18E82EF12C65E270E0892D0E941F
:103AB0001B18FE2CEE24E82AE60CF71C9701377041
:103AC0006D2C9981792E690C711C690C711CD301C4
:103AD000ED91FC91E20FF31FC901800F911F81301E
:103AE0009840A0F0C12C48E0D42EC21AD30AA601F7
:103AF000B501CF010E94811CA8014C195D09B501D7
:103B00006C0D7D1DF3018081918103C0A801B50179
:103B1000CF010E94811CE00EF11E4F2D64E270E087
:103B2000892D0E9429184E2D65E270E0892D0F9095
:103B3000DF91CF911F910F91FF90EF90DF90CF9089
:103B4000BF90AF909F907F906F900C9429180F9327
:103B50001F9389019A0140E050E00E94381D1F9197
:103B60000F910895CF92DF92EF92FF920F931F93E0
:103B7000CF93DF93EC017A018B016C01C40ED51E4B
:103B8000CC15DD05A9F00E94F21B8FE00E94EB1B13
:103B90008D2F0E94EB1B8C2F0E94EB1B219680E047
:103BA0000E94EB1BF80181938F010E94F41BE8CF68
:103BB000C701DF91CF911F910F91FF90EF90DF90A0
:103BC000CF900895AF92BF92CF92DF92EF92FF9283
:103BD0000F931F93CF93DF931F921F92CDB7DEB742
:103BE0005A8349835901E981FA81F7707C01E60E15
:103BF000F11CE60EF11CD70118968D919C91199736
:103C00008E0F9F1F98012E0F3F1F2130384098F0D4
:103C1000C12C68E0D62ECE1ADF0AA601B5010E949B
:103C2000B21DA8014C195D09B5016C0D7D1DF70190
:103C30008085918502C0A801B5010F900F90DF919A
:103C4000CF911F910F91FF90EF90DF90CF90BF9099
:103C5000AF900C94B21D8F929F92AF92BF92CF9271
:103C6000DF92EF92FF920F931F93CF93DF936C013C
:103C7000962E5A017901802E68E270E0892D0E940B
:103C80001B18C82FD0E069E270E0892D0E941B1834
:103C9000DC2FCC27C82B87019501AE01692DC60109
:103CA0000E94E21D81101AC0CE0DDF1D4D2F68E26B
:103CB00070E0892D0E9429184C2F69E270E0892D4F
:103CC000DF91CF911F910F91FF90EF90DF90CF90F8
:103CD000BF90AF909F908F900C942918DF91CF9157
:103CE0001F910F91FF90EF90DF90CF90BF90AF901A
:103CF0009F908F900895CF93C62F61E070E08C2F36
:103D00000E94291861E070E08C2F0E941B1881111D
:103D1000F9CFCF910895FC0112828FEF8183108239
:103D200013820895FC018381882331F0611103C05F
:103D30008FEF8183089511820895CF93DF93EC0173
:103D40006A8385EA96E00E94BB2841E06A8185EAA1
:103D500096E00E94D22891E0811101C090E09B83FF
:103D600085EA96E00E942C2888838B8190E0DF9181
:103D7000CF910895CF93DF93EC018B818823A9F035
:103D800089818095862388836A8185EA96E00E94EE
:103D9000D828688185EA96E00E947C2885EA96E02A
:103DA0000E94F728282F30E002C020E030E081E0B8
:103DB00090E0232B11F080E090E0DF91CF91089507
:103DC00008950895DC01ED91FC910284F385E02DC6
:103DD00041E0199581E090E00895FC011382128280
:103DE00023E733E0318320830895DC01ED91FC91DA
:103DF0000084F185E02D6FEF1994DC01ED91FC91C9
:103E00000284F385E02D40E0199461E00E94FD1EDC
:103E100080ED97E00C944B4F62E00E94FD1E80ED18
:103E200097E00C944B4FCF93DF93CDB7DEB7289735
:103E30000FB6F894DEBF0FBECDBF1D8220E42E83E7
:103E400034E13F8334E5388719822A8320E12B83CC
:103E500020E52C83FC012781421710F04FEF420F21
:103E6000FC01308550E0FE01E40FF51F303121F4F4
:103E7000243011F4218101C02581260F2068622F92
:103E800028960FB6F894DEBF0FBECDBFDF91CF915D
:103E90000C94FD1EFC016581262F246025836C6037
:103EA0000C94FD1ECF93DF93EC01423018F08C810F
:103EB00088608C834F836887222329F0413019F46E
:103EC0008C8184608C8364E670E080E090E00E94E6
:103ED000234F6C8164FD31C0E881F9810284F38550
:103EE000E02D42E063E0CE01199584E991E10E9462
:103EF0004B4FE881F9810284F385E02D42E063E0D5
:103F0000CE01199584E991E10E944B4FE881F98136
:103F10000284F385E02D42E063E0CE01199586E945
:103F200090E00E944B4FE881F9810284F385E02DF7
:103F300042E062E0CE01199516C06062CE010E9497
:103F4000FD1E84E991E10E944B4F6C816062CE01BD
:103F50000E94FD1E86E990E00E944B4F6C816062DA
:103F6000CE010E94FD1E6C816062CE010E94FD1E8A
:103F700084E08D83CE010E944A1FCE010E94051F5E
:103F800082E08E8366E0CE010E94FD1ECE01DF91AD
:103F9000CF910C94F51EFC0165816E7F658368608E
:103FA0000C94FD1EFC016581262F2160258369602C
:103FB0000C94FD1ECF92DF92EF92FF920F931F930E
:103FC000CF93DF931F921F92CDB7DEB78C0167703E
:103FD00088E0689FB00111246064C80149835A8356
:103FE0000E94FD1E8EE190E00E944B4F4981C42E3D
:103FF0005A81D52EE12CF12CD6016D916D01D8019D
:10400000ED91FC910190F081E02DC801199588E2B5
:1040100090E00E944B4FBFEFEB1AFB0AE8E0EE1670
:10402000F10451F70F900F90DF91CF911F910F91F5
:10403000FF90EF90DF90CF90089521E001C0220F14
:104040006A95EAF7DC011C962C931C971A965C93F0
:104050004E931997ED91FC910084F185E02D60E07D
:104060001994FC012485222399F08185928500977B
:1040700019F4611105C006C0019721F4611102C055
:10408000258701C015866585CF010E960C94BA1E52
:1040900008950F931F93CF93DF93EC018C01025F80
:1040A0001F4F6B85C8010E949D1E019761F461E05E
:1040B000C8010E94921E1C8260E0C8010E94BA1EC4
:1040C00081E090E002C080E090E0DF91CF911F910D
:1040D0000F9108958F92AF92CF92EF920F93CF935B
:1040E000DF93CDB7DEB7FC01638714861586128691
:1040F000118681E0982F01C0990F4A95EAF7928BBB
:10410000982F01C0990F2A95EAF7938B982F01C039
:10411000990F0A95EAF7948B982F01C0990FEA94AA
:10412000EAF7958B982F01C0990FCA94EAF7968BFE
:10413000982F01C0990FAA94EAF7978B01C0880FB6
:104140008A94EAF7808FDF91CF910F91EF90CF9013
:10415000AF908F9008956F927F928F92AF92CF928F
:10416000EF920F93CF93DF9300D0CDB7DEB73C0132
:104170002B834A8369830E94ED1E83E893E0F30159
:1041800091838083C3010E960E948B1E2B814A81EE
:104190006981C3010E946A200F900F900F90DF91F8
:1041A000CF910F91EF90CF90AF908F907F906F90C5
:1041B0000895FF920F931F93CF93DF93EC01F62E98
:1041C0008C01025F1F4F6A896F29C8010E94BA1EC5
:1041D0006A8960956F21C801DF91CF911F910F917E
:1041E000FF900C94BA1E20E030E050E060FF05C064
:1041F000FC01E20FF31F7589572B66952F5F3F4F28
:104200002430310599F7413011F4FC014489FC0157
:104210006585652B642B0C94D9200F931F93CF9346
:10422000DF93EC01142F062F0F70423011F440E0A1
:104230000AC070E084E0759567958A95E1F7CE0134
:104240000E94F320412F602FCE01DF91CF911F916B
:104250000F910C94F3200F931F93CF93DF9300D013
:10426000CDB7DEB78C012B834A8369830E94492036
:104270002B814A816981C8010F900F900F90DF91C7
:10428000CF911F910F910C94521FCF93CFB7F894F9
:104290008091F005811127C0EEEEFDE08491E8EAFF
:1042A000FDE09491E82FF0E0EE0FFF1FED5CF14F81
:1042B000A591B4918C91892321F461E085E30E945A
:1042C0006A5061E085E30E9431508CB580618CBDFD
:1042D0008CB580648CBD61E084E30E94315061E064
:1042E00083E30E9431508091F0058F5F8093F00549
:1042F000CFBFCF9108956F927F928F929F92AF928E
:10430000BF92CF92DF92EF92FF920F931F93CF93C2
:10431000DF93EA012CE3C22ED12CE12CF12CA70172
:1043200096010E9416556883CA01B901A70196013A
:104330000E9416556983CA01B90128E130E040E0C6
:1043400050E00E94165549015A016A83CA01B90119
:104350006C5F7F4F8F4F9F4F27E030E040E050E091
:104360000E9416556F5F6B8300E010E0980140E0FB
:1043700054E6652E712C60E9C62EDD24D394E42F1B
:10438000F0E0EE54F84F7F0183E0E822FF24E114CF
:10439000F10489F4CF01B3010E940255892B29F061
:1043A0008EE691E0A0E0B0E00AC0CF01B6010E9425
:1043B0000255892BA9F38DE691E0A0E0B0E0080F4B
:1043C000191F2A1F3B1FD901C801AA27BB2788161E
:1043D0009906AA06BB0610F04F5FD1CF4E83E114B9
:1043E000F10499F4CF0164E670E00E940255892B34
:1043F00029F08EE691E0A0E0B0E00BC0CF0160E9CB
:1044000071E00E940255892BA1F38DE691E0A0E0B6
:10441000B0E0081B190B2A0B3B0B801A910AA20A69
:10442000B30ACF0164E670E00E9402559C01CF01FF
:1044300060E971E00E940255EFE8F3E0A0E0A130EE
:1044400059F4E114F10451F42115310511F04DE155
:1044500006C00097E1F302C0408101C04CE150E08A
:1044600060E070E084169506A606B70640F0841A50
:10447000950AA60AB70AAF5F3196AC3001F7AF5F75
:10448000AD8383948C82DF91CF911F910F91FF9028
:10449000EF90DF90CF90BF90AF909F908F907F90E4
:1044A0006F900895CF92DF92EF92FF926B017C01A3
:1044B0008091010690910206A0910306B091040636
:1044C000C816D906EA06FB0671F045E056E0C701BA
:1044D000B6010E947B21C0920106D0920206E092B2
:1044E0000306F0920406FF90EF90DF90CF900895BE
:1044F0000E9452228091070690E008950E94522265
:104500008091060690E008950E945222809109064B
:1045100090E008950E9452228091080690E008954C
:104520000E94522280910A0690E008950E94522231
:1045300080910B0690E08E54984F08956F927F9271
:104540008F929F92AF92BF92CF92DF92EF92FF92A3
:104550000F931F93CF93DF93FC01C680AC2DB0E087
:1045600020E833E341EE51E00E947A554B015C01B3
:1045700022EB37E06D01C4E6D0E000E911E0C901AB
:10458000825B97408C159D05DCF4C90183709927E7
:10459000892B99F4C901BE010E940255892B31F47F
:1045A000C901B8010E940255892B39F480E8880EB0
:1045B00081E5981E81E0A81EB11C2F5F3F4FDFCF21
:1045C0006580712C8EE4C81A88EFD80AC60164E6AB
:1045D00070E00E9402558C01C60160E971E00E9402
:1045E00002557C01C1E0D0E083E0C822DD24C6157D
:1045F000D7052CF5C230D10589F4C114D10471F46A
:104600000115110519F4E114F10441F480E8880E54
:104610008BE3981E86E2A81EB11C0FC0DE01A257D4
:10462000BC4FAC91B0E020E831E541E050E00E94A1
:104630007A55860E971EA81EB91E2196D8CF4181A5
:10464000228130E0A0E1BEE00E9464556B017C0154
:10465000242F30E0ACE3B0E00E946455C60ED71EB4
:10466000E81EF91E8081C80ED11CE11CF11CA4813A
:10467000B0E0119720E831E541E050E00E94855517
:10468000C60ED71EE81EF91EC80CD91CEA1CFB1C5E
:10469000C701B601DF91CF911F910F91FF90EF906D
:1046A000DF90CF90BF90AF909F908F907F906F9052
:1046B00008950F931F936093FD057093FE058093FB
:1046C000FF059093000600910C0210910D022091BD
:1046D0000E0230910F02060F171F281F391F00937B
:1046E000F5051093F6052093F7053093F80582E061
:1046F00090E09093F4058093F3050E94F44E60934C
:10470000F9057093FA058093FB059093FC051F91C2
:104710000F910895CF92DF92EF92FF920F931F9324
:104720000E94F44EC090F905D090FA05E090FB0588
:10473000F090FC056C197D098E099F090091FD051B
:104740001091FE052091FF0530910006683E7340F0
:1047500081059105D8F00F5F1F4F2F4F3F4F0093FA
:10476000FD051093FE052093FF053093000648EEEB
:10477000C40E43E0D41EE11CF11CC092F905D09296
:10478000FA05E092FB05F092FC05CACF8091F50591
:104790009091F605A091F705B091F8050817190753
:1047A0002A073B07C8F1E091F105F091F205309737
:1047B00099F11995611571058105910519F00E940E
:1047C00059232AC080910C0290910D02A0910E02F3
:1047D000B0910F024091FD055091FE056091FF05DB
:1047E00070910006840F951FA61FB71F8093F505D3
:1047F0009093F605A093F705B093F80581E090E05B
:104800002091F3053091F405232B11F480E090E022
:104810009093F4058093F3056091FD057091FE057A
:104820008091FF05909100061F910F91FF90EF90EE
:10483000DF90CF9008950E948A230E945222809197
:10484000080690E008959093F2058093F105809119
:10485000FD059091FE05A091FF05B09100068093A3
:10486000F5059093F605A093F705B093F8050C9421
:104870008A230F931F9360930C0270930D02809311
:104880000E0290930F020091FD051091FE052091FC
:10489000FF0530910006060F171F281F391F0093D0
:1048A000F5051093F6052093F7053093F8051F9151
:1048B0000F910895FC018285807C82871682178281
:1048C0001086118612821382148215821182108240
:1048D00008954F925F926F927F928F929F92AF92C4
:1048E000BF92CF92DF92EF92FF920F931F93CF93DD
:1048F000DF93CDB7DEB728970FB6F894DEBF0FBEB3
:10490000CDBF8C01FC014281538164817581452BAF
:10491000462B472B09F41BC1828584FF18C10E94D6
:104920008A236B017C01F8012285822F8F709EE023
:10493000980F9F70933008F0F8C0468157816085CA
:104940007185C416D506E606F70608F4EEC0823077
:1049500049F442815381648175814683578360871E
:104960007187E3C0833009F047C0F801428053806B
:10497000648075800E948A2320E8822E21E5922E91
:10498000AA24A394B12CA50194010E94165560E8B5
:1049900071E581E090E00E94D254640D751D861D82
:1049A000971DF8014280538064807580C616D70633
:1049B000E806F90658F0C701B601A50194010E9466
:1049C00016552F5F3F4F4F4F5F4F06C0C701B601CF
:1049D000A50194010E94165560E871E581E090E020
:1049E0000E94D254640D751D861D971DF8016683C3
:1049F00077838087918799C0843009F092C0F8014D
:104A000042805380648075800E948A234B015C0140
:104A10000E948A2369837A838B839C830E948A23E2
:104A20006D837E838F839887840C951CA61CB71C8E
:104A300080E8482E81E5582E66246394712C6981A4
:104A40007A818B819C81A30192010E941655861A5E
:104A5000970AA80AB90A6D817E818F819885A30182
:104A600092010E9416552C5F3F4F4F4F5F4FCA0176
:104A7000B90127E030E040E050E00E9416559B016C
:104A8000AC0160E871E581E090E00E94D254861AA2
:104A9000970AA80AB90AF801428153816481758195
:104AA000C814D904EA04FB0470F04A015B01F0E881
:104AB0008F0EFAE39F1EF9E0AF1EB11C8C0C9D1CFB
:104AC000AE1CBF1C06C046015701840E951EA61ED3
:104AD000B71EC701B601A30192010E941655861A9E
:104AE000970AA80AB90ACA01B9016C5F7F4F8F4FB4
:104AF0009F4F27E030E040E050E00E9416559B01B8
:104B0000AC0160E871E581E090E00E94D254861A21
:104B1000970AA80AB90AF80186829782A086B18608
:104B200004C0822F8F7EF8018287F80182858F7002
:104B3000813089F442815381648175814C0D5D1D02
:104B40006E1D7F1D468357836087718704C0F801FF
:104B500082858F7E828728960FB6F894DEBF0FBEBF
:104B6000CDBFDF91CF911F910F91FF90EF90DF901C
:104B7000CF90BF90AF909F908F907F906F905F90FD
:104B80004F900895663050F4FC012BE0629FE00DD9
:104B9000F11D112492859F7081E009F480E0089551
:104BA0001F93CF93DF93EC01162F0E94C225882319
:104BB00059F1812F90E0FE012BE0129FE00DF11DD5
:104BC00011244281538164817581452B462B472BEB
:104BD00041F041E020813181232B09F440E0242F72
:104BE00001C020E03BE0389FF001399FF00D112417
:104BF000EC0FFD1F828520FB84F98287CF01DF91B6
:104C0000CF911F910C946924DF91CF911F9108954A
:104C10001F93CF93DF93EC01162F0E94C2258823A8
:104C200041F08BE0189FC00DD11D11248A858F7E25
:104C30008A87DF91CF911F9108951F93CF93DF93C0
:104C4000EC01162F0E94C225882399F0FE018BE00B
:104C5000189FE00DF11D11248285807E82871182CC
:104C60001082128213821482158216821782108695
:104C70001186DF91CF911F910895EF92FF920F93CC
:104C80001F93CF93DF938C01EC017C0182E4E80E4B
:104C9000F11CCE010E945A242B96CE15DF05C9F7D0
:104CA0001882C0E06C2FC8010E941D26CF5FC6305D
:104CB000C9F7DF91CF911F910F91FF90EF90089569
:104CC0004F925F926F927F928F929F92AF92BF921C
:104CD000CF92EF92FF920F93CF93DF93EC014A01B3
:104CE0005B013901C7010297039738F40E948A23B8
:104CF0006115724E8F4D9140B0F0412C512C9BE0CC
:104D0000949DF001959DF00D1124EC0FFD1FDF0126
:104D10001A9682858F7049F08FEF481A580A26E05C
:104D20004216510469F78FEF18C0718260828C912E
:104D300000FB85F99E2D9F70807F892B8C9382824A
:104D40009382A482B582642DCE01CC2019F00E94FA
:104D5000D02502C00E940826842DDF91CF910F91AB
:104D6000FF90EF90CF90BF90AF909F908F907F90EB
:104D70006F905F904F9008958F929F92AF92BF92E5
:104D8000CF92DF92EF92FF920F931F93CF93DF9317
:104D9000FC017B016901E8012CE330E0DA010E94AB
:104DA00073554B015C01C601AA2797FDA095BA2F48
:104DB000880E991EAA1EBB1E20E13EE0D7010E946C
:104DC0007355860E971EA81EB91ECC24C39483E08B
:104DD000E82EF12C00E09E01B501A401CF010E9454
:104DE0006026DF91CF911F910F91FF90EF90DF90A0
:104DF000CF90BF90AF909F908F9008958CE096E0F9
:104E00000C943D260C94F44E0F931F93CF93DF9395
:104E1000EC01662359F00E94F44E69837A838B83F8
:104E20009C83DF91CF911F910F9108950E94F44EC2
:104E300009811A812B813C81601B710B820B930BC2
:104E4000643671058105910530F763E070E080E01C
:104E500090E00E94234FEACF60E00C940427FC010D
:104E600013AA14AA15AA16AA1182128213821482F6
:104E7000411551056105710521F0CB01BA010C9472
:104E8000234F0895FB01BA01A901DC01D296FC93DE
:104E9000EE93D19726E0CF010C94DD511F93CF9371
:104EA000DF93EC01162F6BE973E089A99AA90E94A0
:104EB000B4534AE050E0612F89A99AA90E948B540B
:104EC00062EA73E089A99AA90E94B45362E370E090
:104ED00080E090E0DF91CF911F910C94234F1F93BE
:104EE000CF93DF93EC01162F8D81882389F189A957
:104EF0009AA9DC01ED91FC910480F581E02D1995D2
:104F0000892BA9F307C02637310519F1283531055A
:104F100009F41D8289A99AA9DC01ED91FC91048014
:104F2000F581E02D19951816190694F489A99AA906
:104F3000DC01ED91FC910680F781E02D19959C0133
:104F4000332723363105F9F6612FCE010E944E2713
:104F500083E6DF91CF911F9108950F931F93CF9315
:104F6000DF931F92CDB7DEB78C01662349F081E055
:104F7000F801858360E0C80149830E946F27498159
:104F8000F80145830F90DF91CF911F910F91089504
:104F90000F9300E020E040E060E087E896E00E94A8
:104FA00030530F910C9417280F9300E020E040E05D
:104FB00060E08DE896E00E9430530F9108950F93C2
:104FC00000E020E040E060E083E996E00E9430539A
:104FD0000F9108950F9300E020E040E060E089E940
:104FE00096E00E9430530F9108950E94452161E0A0
:104FF0008AE00E94315060E087E00E94315061E019
:1050000089E00E94315060E084E30E946A5060E0D1
:1050100083E30E946A5061E085E30E946A5061E088
:105020008AE00E946A5060E089E00C946A500C9417
:10503000F5270F9300E020E040E060E08FE996E084
:105040000E9430530F9108958091D50690E02091F1
:10505000D606821B910908952091D6068091D50627
:10506000281750F4E22FF0E0E952F94F808190E0E8
:105070002F5F2093D60608958FEF9FEF0895E0915C
:10508000D6068091D506E81730F4F0E0E952F94FE2
:10509000808190E008958FEF9FEF08950895CF925B
:1050A000DF92EF92FF920F931F93CF93DF937C01D8
:1050B000CB018A012091B106222389F0EB016B011B
:1050C000C40ED51ECC15DD0569F06991D701ED91AF
:1050D000FC910190F081E02DC7011995F3CF642F69
:1050E0000E94B329C801DF91CF911F910F91FF90CA
:1050F000EF90DF90CF900895CF93DF931F92CDB7BD
:10510000DEB769832091B1062223D1F02091B20647
:10511000203240F021E030E0FC013383228380E044
:1051200090E015C08091B306E82FF0E0EC54F94F01
:10513000998190838F5F8093B3068093B20605C0F8
:1051400061E0CE0101960E94B32981E090E00F90CA
:10515000DF91CF910895FC011382128248EE53E053
:1051600060E070E0448355836683778387EF93E044
:105170009183808308951092D6061092D5061092DE
:10518000B3061092B2060C94FE28862F413208F026
:1051900040E267ED76E00E941C291092D6068093CB
:1051A000D506089521E00C94C52821E00C94C5286B
:1051B00081E08093B1066093D4061092B3061092FA
:1051C000B20608950C94D8280F93062F21E0409141
:1051D000B20664EB76E08091D4060E9460291092BA
:1051E000B3061092B2061092B1060F91089561E0D5
:1051F0000C94E42885EA96E00C94AB28109264079E
:1052000081E0809362071092610761E084E10E946F
:105210006A5061E085E10E946A50E9EBF0E080812C
:105220008E7F808380818D7F808388E48093B80027
:1052300085E48093BC000895413208F03FC090910E
:1052400064079111FCCF91E090936407209362076B
:105250002FEF2093F70610923C07240F20933B0773
:105260009093630790916307880F892B809363075E
:1052700080916107813041F410926107809163074A
:105280008093BB0085EC01C085EE8093BC008091CB
:1052900064078130E1F380913C07841710F440915A
:1052A0003C072DE337E0FB01D9018A2F821B8417CD
:1052B00018F48D918193F9CF842F089580E008959B
:1052C0000F93413208F046C0909164079111FCCFD2
:1052D00092E090936407009362079FEF9093F70624
:1052E00010923C0740933B07FB016DE377E0DB0145
:1052F0009A2F961B941718F491919D93F9CF1092C1
:10530000630790916307880F892B809363078091CF
:105310006107813041F410926107809163078093A7
:10532000BB0085EC01C085EE8093BC00222321F0F8
:10533000809164078230E1F38091F7068F3F61F03E
:105340008091F706803251F08091F706803341F466
:1053500083E007C081E005C080E003C082E001C0B7
:1053600084E00F910895613298F42091640724300D
:1053700089F460931907FC018BE197E0DC012A2F87
:10538000281B261718F421912D93F9CF80E008955A
:1053900081E0089582E0089585ED8093BC008091BE
:1053A000BC0084FDFCCF10926407089585EC8093C7
:1053B000BC001092640708951F920F920FB60F92CF
:1053C00011240BB60F922F933F934F935F936F93DC
:1053D0007F938F939F93AF93BF93EF93FF938091AE
:1053E000B900887F803609F49CC068F5883209F4DA
:1053F0005BC090F4803109F454C038F4882309F478
:10540000F5C0883009F44DC0F5C0883109F44CC0AE
:10541000803209F45DC0EEC0803409F468C048F4FD
:10542000803309F455C0883309F0E4C08093F7064F
:10543000A8C0803509F44FC0883509F45DC08834B0
:1054400009F0D8C0D5C0883909F4C6C0A8F4883797
:1054500009F467C038F4883609F463C0803709F46A
:1054600060C0C8C0883809F4B7C0803909F45FC08B
:10547000803809F0BFC05BC0803B09F485C038F4B8
:10548000803A09F466C0883A09F47EC0B3C0803C13
:1054900009F4A6C0883C09F4A3C0883B09F489C07C
:1054A000A9C08091630710C090913C0780913B0791
:1054B000981770F5E0913C0781E08E0F80933C07D0
:1054C000F0E0E35CF84F80818093BB0085EC85C001
:1054D0008093F7068DC0E0913C0781E08E0F8093AA
:1054E0003C078091BB00F0E0E35CF84F8083909133
:1054F0003C0780913B076DC0E0913C0781E08E0F37
:1055000080933C078091BB00F0E0E35CF84F808320
:105510008091620781116CC081E08093610784EA09
:1055200060C083E0809364071092F806CFCF80912B
:10553000F806803208F050C0E091F80681E08E0F46
:105540008093F8068091BB00F0E0E750F94F80832C
:10555000BDCF8091F806803230F4E091F806F0E09B
:10556000E750F94F10820E94CC296091F80670E054
:10557000E0915D07F0915E0789EF96E01995109232
:10558000F8060E94D62936C084E080936407109202
:105590001A0710921907E0915F07F09160071995BB
:1055A00080911907811105C081E08093190710923D
:1055B0001B07E0911A0781E08E0F80931A07F0E035
:1055C000E55EF84F80818093BB0090911A0780912F
:1055D0001907981708F47ACF85E88093BC000AC0B1
:1055E00085EC8093BC001092640704C01092F7060B
:1055F0000E94CC29FF91EF91BF91AF919F918F9124
:105600007F916F915F914F913F912F910F900BBEC2
:105610000F900FBE0F901F90189580913C05089534
:10562000DC011696ED91FC9117979F012F5F3F4F7C
:1056300017963C932E931697608381E090E008952F
:10564000E0913109F09132091994DC01ED91FC915E
:105650000190F081E02D1994DC01ED91FC91019015
:10566000F081E02D1994CF93C82F0E948A2324E063
:10567000C29FF0011124E855F84F60837183828343
:105680009383CF9108950F931F93CF93DF93C82FE8
:105690008B010E948A23EC2FF0E06F5F7F4F8F4FCA
:1056A0009F4FDF01AA0FBB1FAA0FBB1FED01C859F7
:1056B000D74F688379838A839B83A855B84F011598
:1056C000110551F44EEF5FEF6FEF7FEF4D935D9358
:1056D0006D937C9313970DC0222717FD2095322FD1
:1056E000060F171F281F391F0D931D932D933C93F1
:1056F0001397E858F84F83E68083809145098860C6
:1057000080934509DF91CF911F910F9108958F925A
:105710009F92AF92BF92CF92DF92EF92FF920F9340
:105720001F93CF93DF938C010E5F1F4FA8E6B9E064
:10573000E0E0E801888190ED980F9A3038F4E43089
:1057400029F0EF5F0F5F1F4F8D93F3CFF0E0E85923
:10575000F64F108288E699E00E94F155EC0197FF20
:1057600002C080E0ADC08091430990E08C179D0796
:10577000C4F3F80180818D33E9F5209791F380918E
:10578000450984FFEECF21978181803321F48C2F4E
:105790000E94332B1AC0813321F72FE834E04FEFFA
:1057A00068E679E0C80101960E94724B882341F0B7
:1057B00088E699E00E94F155BC0197FF03C0D1CF64
:1057C00060E070E08C2F0E94432B81E59BE09F936B
:1057D0008F9384ED92E09F938F9380E699E09F935F
:1057E0008F930E94984A0F900F900F900F900F90F8
:1057F0000F9065C081E59BE09F938F9381ED92E0D0
:105800009F938F9380E699E09F938F930E94984A8D
:105810000F900F900F900F900F900F90209721F402
:10582000C0904309C0E002C0CC2EC150812C912C05
:10583000AC2EB12CD12CCBECD2E000E619E05EEC22
:10584000E52E52E0F52E94012A0D3B1D2C153D0549
:10585000B4F580914509982F93709130F1F49091AF
:10586000C302992311F082FD18C0F90143E0F595B8
:10587000E7954A95E1F7E35CF64F808190E0277069
:10588000332702C0959587952A95E2F7817099276D
:105890009F938F93FF92EF9204C01F921F92DF930A
:1058A000CF931F930F930E94984A0F900F900F90E1
:1058B0000F900F900F90EFEF8E1A9E0AC4CF81E0E9
:1058C000DF91CF911F910F91FF90EF90DF90CF90DC
:1058D000BF90AF909F908F900895CF92DF92EF92FC
:1058E000FF920F931F930091660710916707209115
:1058F000680730916907011511052105310549F443
:1059000060936607709367078093680790936907B1
:105910001AC06B017C01C01AD10AE20AF30A97018E
:1059200086010D3311052105310568F06093660786
:105930007093670780936807909369078091460981
:105940008F70809346091F910F91FF90EF90DF9029
:10595000CF900895CF92DF92EF92FF920F931F9313
:10596000CF93DF936F5F7F4F8F4F9F4F50914309CE
:10597000C0914509411108C0C3FBDD24D0F8A8E659
:10598000B8E0E8EAF7E041C0C090AF02D12CE12CCA
:10599000F12CC3FBCC27C0F9E8EAF7E0A8E6B8E0B1
:1059A00040E0451709F10081118122813381011501
:1059B000110521053105A1F06D937D938D939C9385
:1059C0001397060F171F281F391F00831183228387
:1059D0003383C901B8016C0D7D1D8E1D9F1DC1E073
:1059E0004F5F34961496DDCF80914509C0FB83F953
:1059F00035C00081118122813381011511052105F6
:105A0000310531F44F5F149634964513F2CF22C01E
:105A1000C42FC695C695C695D0E0C35CD64FE88026
:105A2000F12CC42FC77002C0F594E794CA95E2F731
:105A3000E0FCE8CF6D937D938D939C931397060FB5
:105A4000171F281F391F0083118322833383DD240E
:105A5000D394D8CF80914509D0FA83F98093450932
:105A6000DF91CF911F910F91FF90EF90DF90CF903A
:105A700008950F931F93CF93DF93CDB7DEB7289789
:105A80000FB6F894DEBF0FBECDBF8B012091DC02B4
:105A9000FC01258345E2BC018CE494E00E946C4B40
:105AA000882389F110930C0300930B038091690202
:105AB000882329F083E094E00E94C14C25C08091A6
:105AC0006E028D83809173028E83809178028F8322
:105AD00080917D02888780918202898380918702EC
