:100000000C9426070C9457070C9457070C94570729
:100010000C9457070C9457070C9457070C945707E8
:100020000C9457070C9457070C9457070C945707D8
:100030000C9457070C9457070C9457070C945707C8
:100040000C9457070C9457070C9457070C945707B8
:100050000C9457070C9457070C9457070C94A64B15
:100060000C9457070C942E4F0C94644F0C94570724
:100070000C9457070C9457070C9457070C94570788
:100080000C9457070C9457070C9457070C94570778
:100090000C9457070C9457070C9457070C9495270A
:1000A0000C9457070C9457070C9457070C94570758
:1000B0000C9457070C9457070C9457070C94570748
:1000C0000C9457070C9457070C9457070C94570738
:1000D0000C9457070C9457070C9457070C94570728
:1000E0000C945707E74CEA4CD94CDD4CE34C214DBE
:1000F000EE4CF24CF84CFC4C004D064D0A4D0E4DAA
:10010000214D144D184D1C4D0C94A0160C944650C6
:100110000C94184D0C94D94C0C9457160C94FB2548
:100120000C948E4F0C94BA4D0C94864B0C94A83EB4
:100130000C940F3A0C94EE120C94214D0C94F84C44
:100140000C9467120C9403170C94454E0C94E74CD6
:100150000C9477160C94D6160C94C54D0C9434421E
:100160000C9402160C945F160C948B440C949B3CDC
:100170000C9465140C9411130C94C6170C947812FB
:100180000C946F3B0C9415130C949A120C94121649
:100190000C94064D0C940B260C948B350C94ED2A84
:1001A0000C946B070C9463160C9430160C94751217
:1001B0000C94E34C0C94FB150C94144D0C946817A0
:1001C0000C94E8250C94DD4C0C94CC0D0C94BD16CD
:1001D0000C9435240C94663D0C94483F0C94902567
:1001E0000C9484120C94004D0C94FC130C94E02598
:1001F0000C941C4D0C94D5250C9484250C942B1533
:100200000C949F130C94D6280C94EA4C0C94A625BD
:100210000C94A2120C94FC4C0C9441390C94D01206
:100220000C94674E0C94C6280C94C52B0C94F24C7D
:100230000C94D34D0C9416160C9436140C941A1678
:100240000C945A140C94DB4F0C9442160C943826E0
:100250000C94AD120C940A4D0C94DC3B0C94C71218
:100260000C94E74D0C949B250C940A260C94BF0823
:100270000C940E380C94CC390C94EA120C940E4D5C
:100280000C947B140C94EE4C0C94303D0C94984FD1
:100290000C94F0150C9455080C947A120C94B32617
:1002A0000C94655024460024440024440024460055
:1002B00024463C6D65746120687474702D65717599
:1002C00069763D22726566726573682220636F6E7F
:1002D00074656E743D22313B2075726C3D2F223E59
:1002E0000024463C7363726970743E616C6572747D
:1002F00028224F7074696F6E732076616C75657318
:100300002073617665642E22293B24460024463CF6
:100310007363726970743E616C65727428224E65F5
:10032000772070617373776F726473206D75737467
:10033000206D617463682122293B77696E646F7751
:100340002E6C6F636174696F6E3D222F766F223B56
:100350003C2F7363726970743E0A0024463C7363D9
:10036000726970743E616C65727428224E657720E4
:1003700070617373776F7264207365742E22293BEA
:1003800024460024463C7363726970743E616C6558
:100390007274282256616C756573206F7574206FB6
:1003A0006620626F756E642122293B77696E646FE7
:1003B000772E6C6F636174696F6E3D222F766F22AA
:1003C0003B3C2F7363726970743E0A0024463C7391
:1003D00063726970743E2446005265626F6F74697F
:1003E0006E672E2E2E0024463C6D65746120687465
:1003F00074702D65717569763D22726566726573DC
:10040000682220636F6E74656E743D2224443B2025
:1004100075726C3D2F223E003C73637269707420CC
:100420007372633D2224462F766965776F70746915
:100430006F6E732E6A73223E3C2F73637269707401
:100440003E0A003C2F7363726970743E0A00305D8F
:100450003B766172206E6F7074733D24442C6C6F18
:10046000633D222453223B00222446222C24442C88
:1004700024442C24442C003C7363726970743E76CF
:100480006172206F7074733D5B0024462446003C0B
:10049000736372697074207372633D2224462F68FF
:1004A0006F6D652E6A73223E3C2F736372697074A0
:1004B0003E0A003C736372697074207372633D225C
:1004C000706E2E6A73223E3C2F7363726970743EA5
:1004D0000A000A766172206C72756E3D5B24442CB2
:1004E00024442C24442C244C5D3C2F73637269708B
:1004F000743E0A005B302C305D5D3B0A76617220F1
:10050000656E3D24442C72643D24442C72733D245A
:10051000442C6D6D3D24442C726473743D244C2C2A
:100520006D61733D24442C7572733D24442C776CAB
:100530003D24442C697061733D24442C6C6F633DF1
:10054000222453223B005B24442C244C5D2C00309D
:100550005D3B7661722070733D5B0024442C007615
:100560006172206E6272643D24442C747A3D24448E
:100570002C73626974733D5B003C736372697074C1
:100580003E766172207665723D24442C64657674F3
:100590003D244C3B0A00244624460077696E646F74
:1005A000772E6C6F636174696F6E3D222F767022B7
:1005B0003B3C2F7363726970743E0A00616C657214
:1005C00074282250726F6772616D202444206D6F11
:1005D00064696669656422293B00616C65727428F0
:1005E000224E65772070726F6772616D206164645E
:1005F00065642E22293B0024463C73637269707443
:100600003E003C736372697074207372633D2224F0
:10061000462F706C6F7470726F672E6A73223E3C47
:100620002F7363726970743E0A003C736372697061
:1006300074207372633D22706E2E6A73223E3C2FCB
:100640007363726970743E0A00305D3B0024442C71
:1006500000766172206D61736F703D5B0024463CD3
:100660007363726970743E766172207365713D24A4
:10067000442C6D61733D24442C776C3D24442C73D1
:1006800064743D24442C6D746F6E3D24442C6D7451
:100690006F66663D24442C6465766461793D24442C
:1006A0002C6465766D696E3D24442C64643D24445D
:1006B0002C6D6D3D24442C79793D24443B00244627
:1006C0003C7363726970743E77696E646F772E6CE9
:1006D0006F636174696F6E3D222F7670223B3C2FF1
:1006E0007363726970743E0A003C7363726970745C
:1006F000207372633D2224462F6D6F6470726F67A2
:100700002E6A73223E3C2F7363726970743E0A0036
:100710003C2F7363726970743E0A3C736372697034
:1007200074207372633D22706E2E6A73223E3C2FDA
:100730007363726970743E0A005D3B002C244400B0
:100740007661722070726F673D5B24442C24442CC8
:1007500024442C24442C24442C24442C2444003CA5
:100760007363726970743E766172206E626F61723B
:1007700064733D24442C7069643D24442C69706189
:10078000733D24443B0024462446003C7363726955
:100790007074207372633D2224462F7669657770EA
:1007A000726F672E6A73223E3C2F73637269707496
:1007B0003E0A003C736372697074207372633D2259
:1007C000706E2E6A73223E3C2F7363726970743EA2
:1007D0000A00244624463C7363726970743E002408
:1007E000463C7363726970743E2446003C736372C6
:1007F000697074207372633D2224462F7669657791
:10080000726F2E6A73223E3C2F7363726970743E5E
:100810000A003C736372697074207372633D2270C6
:100820006E2E6A73223E3C2F7363726970743E0AA7
:1008300000305D3B3C2F7363726970743E0A002484
:10084000442C00244624463C7363726970743E76DF
:100850006172206E626F617264733D24442C6D611D
:10086000733D24442C697061733D24442C6475727B
:100870003D5B003C736372697074207372633D70FA
:100880007324442E6A733E3C2F7363726970743E06
:100890000A003C2F7363726970743E0A00766172BD
:1008A000206E70726F67733D24442C6E626F6172AC
:1008B00064733D24442C697061733D24442C6D6E37
:1008C000703D24442C70643D5B5D3B002446005D1C
:1008D0003B002C24440070645B24445D3D5B244455
:1008E0002C24442C24442C24442C24442C24442CF8
:1008F00024440024463C7363726970743E616C65E5
:10090000727428224368616E67657320736176652F
:10091000642E22293B244600244676617220003052
:100920005D3B3C2F7363726970743E0A3C73637263
:10093000697074207372633D2224462F766965774F
:1009400073746174696F6E732E6A73223E3C2F73E9
:1009500063726970743E0A0024442C007661722030
:100960006D61736F703D5B0024463C736372697008
:10097000743E766172206E626F617264733D2444CE
:100980002C6D61786C656E3D24442C6D61733D2443
:10099000442C697061733D24442C0027275D3B0A79
:1009A00000272453272C00736E616D65733D5B0037
:1009B000207365630025004E6F00596573002B009E
:1009C0002B0020474D54003030003A002D002B0002
:1009D0000020202020002D5261696E2053746F701A
:1009E0002D002D44697361626C6564212D003A000D
:1009F00045004D433A003A002E002D0020002020F3
:100A00000020003A00200042333A686F6C64207482
:100A10006F20736176650042333A73656C20423112
:100A20002F42323A636867003D3D536574204F7032
:100A300074696F6E733D3D00506C6561736520573E
:100A40006169742E2E2E00526573657474696E6729
:100A500020454550524F4D00436F6E6E656374697B
:100A60006E672E2E2E00706E006372007672006329
:100A70007300767300707300736E00636F00766F9F
:100A8000006770006370006470006D700076700025
:100A900063760077696E646F772E6C6F636174693B
:100AA0006F6E3D222F223B3C2F7363726970743E40
:100AB0000A00485454502F312E3020343031205504
:100AC0006E617574686F72697A65640D0A436F6E42
:100AD00074656E742D547970653A20746578742F3E
:100AE00068746D6C0D0A0D0A3C68313E343031205B
:100AF000556E617574686F72697A65643C2F6831F0
:100B00003E003C6D657461206E616D653D76696582
:100B100077706F727420636F6E74656E743D2277A8
:100B2000696474683D363430223E0D0A00485454DE
:100B3000502F312E3020323030204F4B0D0A436F72
:100B40006E74656E742D547970653A20746578748E
:100B50002F68746D6C0D0A507261676D613A206E7A
:100B60006F2D63616368650D0A0D0A006874747007
:100B70003A2F2F72617973686F6262792E6E657495
:100B80002F736372697074732F6A6176612F737645
:100B900063322E300053756E0053617400467269E3
:100BA000005468750057656400547565004D6F6E9C
:100BB00000526573657420616C6C3F004C434420A7
:100BC0004261636B6C696768743A004C434420432C
:100BD0006F6E74726173743A004465766963652060
:100BE00049443A0049676E6F72652070617373778C
:100BF0006F72643A0053656C66746573742074692F
:100C00006D653A005761746572696E67206C657630
:100C1000656C3A004E6F726D616C6C79206F706517
:100C20006E3A00557365207261696E2073656E734C
:100C30006F723A004D61732E206F66662061646AA0
:100C40002E3A004D61732E206F6E2061646A2E3A39
:100C5000004D61737465722073746174696F6E3ACC
:100C60000053746174696F6E2064656C61793A0039
:100C700053657175656E7469616C3A004578702EC4
:100C800020626F617264733A004175746F207265FF
:100C9000636F6E6E6563743A000048545450207060
:100CA0006F72743A006970343A006970333A0069BF
:100CB00070323A00476174657761792E6970313A14
:100CC000006970343A006970333A006970323A0052
:100CD0005374617469632E6970313A0055736520ED
:100CE000444843503A004E54502053796E633A00C2
:100CF00054696D65207A6F6E653A004669726D774A
:100D0000617265207665722E0000000A0B02090CE4
:100D10000D0E0807030401000000000000000000A1
:100D200000000000000000000000000000000000C3
:100D30000000000000121110000000000000000080
:100D400000000000000000000000000000000001A2
:100D500002102020080810204010204080020102CC
:100D60000108040201010204081020408080402094
:100D700010080402018004020180402010080402CF
:100D8000010804020101020408102040800102044D
:100D90000810204080050505050705080808080219
:100DA0000202020A0A080804040404010101010104
:100DB0000101010303030303030303040707070CF3
:100DC0000C0C0C0C0C0C0C020202020606060606A9
:100DD0000606060B0B0B0B0B0B0B0B000020002366
:100DE00000260029002C002F003200000100000323
:100DF000010601090100002200250028002B002E19
:100E0000003100340002010000050108010B01005F
:100E1000002100240027002A002D003000330001AB
:100E2000010000040107010A01006B07BF08CC0D97
:100E300067125A14F015C6173524842590259B2572
:100E4000A625D525B3263442984F465011241FBEFF
:100E5000CFEFD1E2DEBFCDBF00E00CBF15E0A0E0D8
:100E6000B2E0E0E7F9EA00E00BBF02C007900D92A4
:100E7000A230B107D9F72FE0A2E0B5E001C01D9282
:100E8000A336B207E1F71EE0CCE4DEE000E006C0E6
:100E900022970109FE010BBF0E946652CA32D10798
:100EA00080E00807A9F70E9456500C94B6540C94A1
:100EB00000006AE00E94BB5120E1829F900D112446
:100EC000892F0895982F92959F708F702AE0929F96
:100ED000800D112408958BE696E00C947726CF932D
:100EE000DF93EC0168E670E08BE696E00E949B26BB
:100EF00060E08BE696E00E94382688810E945907C0
:100F0000682F8BE696E00E94382689810E94590757
:100F1000682F8BE696E00E9438268A810E94590746
:100F2000682F8BE696E00E9438268B810E94590735
:100F3000682F8BE696E00E9438268C810E94590724
:100F4000682F8BE696E00E9438268D810E94590713
:100F5000682F8BE696E00E9438268E818E510E9483
:100F60005907682F8BE696E00E9438268BE696E0BC
:100F70000E94B026882321F01092020580E003C071
:100F800081E080930205DF91CF910895CF93DF93A5
:100F9000CDB7DEB727970FB6F894DEBF0FBECDBF33
:100FA000AE014F5F5F4F0E94B21E898180688983C6
:100FB000CE0101960E946F0789818F778983CE01C8
:100FC00001960E946F0727960FB6F894DEBF0FBEFA
:100FD000CDBFDF91CF9108951F93CF93DF93EC01A5
:100FE00068E670E08BE696E00E949B2660E08BE668
:100FF00096E00E9438268BE696E00E94B026882371
:1010000019F0109202054CC081E08093020547E080
:1010100050E068E670E08BE696E00E948E268BE654
:1010200096E00E94E0250797DCF18BE696E00E94AF
:10103000E825182F8F770E94620788838BE696E059
:101040000E94E8250E94620789838BE696E00E9451
:10105000E8258F730E9462078A838BE696E00E94E0
:10106000E8250E9462078B838BE696E00E94E825C4
:101070000E9462078C838BE696E00E94E8250E941E
:1010800062078D838BE696E00E94E8250E94620746
:10109000825E8E83812F8095881F8827881F01C0DC
:1010A00080E0DF91CF911F910895CF93DF93CDB76B
:1010B000DEB727970FB6F894DEBF0FBECDBFCE01C7
:1010C00001960E94EC07882329F0CE0101960E9428
:1010D000D51F03C060E070E0CB0127960FB6F894EF
:1010E000DEBF0FBECDBFDF91CF9108950E9624E1F4
:1010F000FC0111922A95E9F70895CF93DF93EC0153
:10110000625F7F4F0E942B50CE01DF91CF910895F7
:10111000CF93DF93EC016E5E7F4F0E942B50CE0188
:10112000DF91CF910895CF93DF93EC016A5E7F4FFB
:101130000E942B50CE01DF91CF910895CF93DF9382
:10114000EC01625E7F4F0E942B50CE01DF91CF9168
:10115000089580E3FB0180833296842F82958F70FF
:1011600090E1899F401911244A3014F4405D01C078
:10117000495C4293882311F0482FEFCF08950F93D5
:1011800000E020E040E060E083E095E00E941F5036
:101190000F9108956F927F928F929F92AF92BF921C
:1011A000CF92DF92EF92FF920F931F93CF93DF9333
:1011B000CDB7DEB7AC970FB6F894DEBF0FBECDBF8C
:1011C0007C01862EB42EA52E20E2922ECE01019611
:1011D0006C01FC01292D11922A95E9F70FEF2FEFF1
:1011E0004FEF6FEF86960E941F508FEF94E09AA307
:1011F00089A389A59AA5ABA5BCA58BA39CA3ADA3E8
:10120000BEA38701095B1F4F43E450E0BE016F5D41
:101210007F4FC8010E945716019609F4BFC081E0B4
:1012200089838A8386E0782E7B821C82F701648121
:101230007581868197810E9436526D837E838F836C
:101240009887A986BA8680E890E09C878B874CE1D6
:1012500050E0B601C8010E946316F601292D1192D3
:101260002A95E9F7570188E0A80EB11CF501D601CF
:1012700001900D927A94E1F740E150E0B601C80187
:101280000E946316F60111929A94E9F796E0692E8E
:10129000712C40E250E0B601C8010E946316F1E0F3
:1012A0006F1A7108B1F783E6898392E89A8393E510
:1012B0009B838C8385E38D8381E08E838F829DE386
:1012C000988797E099878A8786E0F501DE011B966B
:1012D00001900D928A95E1F78CE0898B8A8B66E10B
:1012E00073E0CE0143960E942F54F7014385BE015F
:1012F000675E7F4FC7010E94A908F7014485BE01C0
:10130000655E7F4FC7010E94A908F7014585BE01B0
:10131000635E7F4FC7010E94A9084EE150E0B6010D
:10132000C8010E946316F3E08F121EC082E3898316
:1013300084E08A83F70196859B8397859C839089B7
:101340009D8391899E8396E39F838887828D898779
:10135000838D8A87848D8B87858D8C874CE050E0C8
:10136000B601C8010E94631687E3898386E08A83F9
:1013700091E09B8393E09C838D838FE08E838AE34F
:101380008F838BE388878FEF898749E050E0B60130
:10139000C8010E946316C8010E945F16AC960FB682
:1013A000F894DEBF0FBECDBFDF91CF911F910F919B
:1013B000FF90EF90DF90CF90BF90AF909F908F9075
:1013C0007F906F9008952F923F924F925F926F920D
:1013D0007F928F929F92AF92BF92CF92DF92EF92C5
:1013E000FF920F931F93CF93DF93CDB7DEB7E397B1
:1013F0000FB6F894DEBF0FBECDBF7C012A013B01C2
:1014000069010E94F04B4B015C018701095B1F4F92
:10141000C8010E9403171816190694F00E94F04B99
:10142000681979098A099B094616570668067906DC
:10143000F0F062E370E080E090E00E941F4CE8CFA3
:1014400042E250E0BE016F5F7F4FC8010E94A016CC
:101450008981823031F4F801858996898334910538
:1014600041F019A6C8010E94301689A566C18FEF08
:1014700064C16D817E818F8198850E9436524B01B7
:101480005C01F601608371838283938346E050E0C0
:10149000B701685F7F4FCE014D960E942254892B81
:1014A00099F4F70180819181A281B3818816990610
:1014B000AA06BB0648F084819581A681B78188156C
:1014C0009905AA05BB0528F4C8010E94301680E0E2
:1014D00034C189899A89AB89BC89F7018687978746
:1014E000A08BB18B3EECC32ED12CC8010E94771685
:1014F000F1E0CF1AD108C9F719A6C70182969BA7B8
:101500008AA7F701B696FDA7ECA708969FA78EA716
:101510003C976F018E9699AB88AB3897FBABEAABE3
:101520005701F6E1AF0EB11C47018EE1880E911C08
:10153000C8010E941616181619060CF093CFC801A0
:101540000E9477168333910509F4CDC0F4F48130FD
:101550009105B9F11CF4892B59F3DFC08330910553
:10156000C1F1069709F0D9C0C8010E9477163C0165
:1015700044E050E0B401C8010E94A016212C312C97
:101580007724F4E06F1A71083FC08A33910509F49B
:101590007EC03CF48533910561F0C69709F43FC0E5
:1015A000BCC08B33910509F488C08F3F910501F2CF
:1015B000B4C0C8010E947716C8010E94771689A797
:1015C000B7CFC8010E94771644E050E06AA97BA912
:1015D0003AC0C8010E9477163C0144E050E0B501D2
:1015E000C8010E94A016212C312C772494E0691A9E
:1015F0007108261437040CF09BCFC8010E9477169F
:10160000EFEF2E1A3E0AF5CF261437040CF090CFD8
:10161000C8010E9477168FEF281A380AF5CFC80143
:101620000E947716782EF701828D811110C0838D6C
:1016300081110DC0848D81110AC0858D811107C073
:1016400044E050E0B601C8010E94A01671CFE8A99D
:10165000F9A92080318042805380B601CE01839663
:101660000E942B508DA19EA1AFA1B8A58215930514
:10167000A405B50529F3212C312C721409F458CF97
:10168000C8010E947716FFEF2F1A3F0AF6CFC80154
:101690000E94771644E050E06CA57DA5C8010E9429
:1016A000A016F70166A177A180A591A50E943652E8
:1016B00066A377A380A791A73BCFC8010E947716A6
:1016C00044E050E06EA57FA5C8010E94A016F70176
:1016D00062A573A584A595A50E94365262A773A73B
:1016E00084A795A725CFC8010E94771644E050E053
:1016F0006AA57BA5C8010E94A016F70162A173A18B
:1017000084A195A10E94365262A373A384A395A3DA
:1017100066A777A780AB91AB0BCFC8010E94771665
:10172000382E612C712C361409F402CFC8010E94A6
:101730007716FFEF6F1A7F0AF6CFE3960FB6F8948D
:10174000DEBF0FBECDBFDF91CF911F910F91FF90F4
:10175000EF90DF90CF90BF90AF909F908F907F9051
:101760006F905F904F903F902F9008952F923F92EF
:101770004F925F926F927F928F929F92AF92BF92A1
:10178000CF92DF92EF92FF920F931F93CF93DF934D
:10179000CDB7DEB727970FB6F894DEBF0FBECDBF2B
:1017A0008C0120ED37E040E050E061E070E080E047
:1017B00090E00E948F51D80114966D937D938D9384
:1017C0009C931797F8016083718382839383480108
:1017D000F7E48F0E911CC4010E94421664E470E08D
:1017E000C4010E94D616882309F428C10E94F04B38
:1017F0006B017C01A12CB12C1D82180186E4280EFE
:10180000311CD801DE96BF83AE8338EE432E33E021
:10181000532E612C712CF1018081833009F4FDC0BD
:1018200081111FC0F80184819581A681B78101963D
:10183000A11DB11D84839583A683B7830E94F04BBD
:101840006C197D098E099F09A30192010E94EF5135
:10185000A90161E0C8010E94CA0881E0D1018C930E
:10186000BEC08430F9F4F80184819581A681B781E6
:101870000196A11DB11D84839583A683B7830E9421
:10188000F04B6C197D098E099F09A30192010E94FA
:10189000EF51A90163E0C8010E94CA08E2E0D1014A
:1018A000EC939DC0813061F5AE81BF814D915D911A
:1018B0006D917C919E012F5F3F4FC8010E94E3090B
:1018C0008D83823009F08BC089819A81AB81BC8184
:1018D000F80184839583A683B7830E94F04B6C192B
:1018E0007D098E099F09A30192010E94EF51A90170
:1018F00063E0C8010E94CA08ED81D101EC9375C074
:10190000823009F06CC0AE81BF814D915D916D91C7
:101910007C919E012F5F3F4FC8010E94E3098D8398
:10192000853009F056C083E0F1018083F80182A17F
:1019300093A1A4A1B5A1892B8A2B8B2B41F484E818
:1019400093E0A0E0B0E082A393A3A4A3B5A3F80121
:1019500086A197A1A0A5B1A5892B8A2B8B2B61F419
:1019600082A193A1A4A1B5A1B695A79597958795B6
:1019700086A397A3A0A7B1A7D8019A964D915D9190
:101980006D917C919D9796968D919D910D90BC91B6
:10199000A02D452B462B472B59F4AC01BD01440F1C
:1019A000551F661F771FF80142A753A764A775A7A5
:1019B000F80186A797A7A0ABB1AB82A593A5A4A574
:1019C000B5A582AB93ABA4ABB5ABAA24A394B12CC1
:1019D0000CC0FD81F63019F4D1011C9206C0BD8106
:1019E000BF3F19F4F10110821D82F1E0AF16B1047E
:1019F00009F411CF0E94F04B6C197D098E099F09E3
:101A0000D801DA962D913D914D915C91DD97261785
:101A100037074807590708F0FECEC4010E94421656
:101A2000F80184819581A681B7810196A11DB11D20
:101A300084839583A683B783C50102C080E090E0CC
:101A400027960FB6F894DEBF0FBECDBFDF91CF91C2
:101A50001F910F91FF90EF90DF90CF90BF90AF90CC
:101A60009F908F907F906F905F904F903F902F90BE
:101A70000895CF92DF92EF92FF920F931F93CF932F
:101A8000DF93EC016B011AA21BA21CA21DA21EA2D5
:101A90001FA218A619A61AA61BA61CA61DA61EAA3A
:101AA0001FAA18AE19AE2AAF3BAF4CAF5DAFFC0119
:101AB000FE96E082F182028313838C01085F1F4F40
:101AC00086E0F80111928A95E9F7CE010E94760826
:101AD00086E0F601D80101900D928A95E1F7FE01AA
:101AE000EA5BFF4F1082CE01DF91CF911F910F91E2
:101AF000FF90EF90DF90CF900C94B60BFB014281EA
:101B0000538164817581FC014283538364837583AF
:101B1000178216820895CF93FB0181918111FDCF29
:101B2000FB0180E090E020E030E0CAE061916623B4
:101B300009F12430310564F56E3271F48F3F91055F
:101B400009F034F5DA01A20FB31F12968C932F5FC0
:101B50003F4F80E090E0EACFDC01CA9FC001CB9FFD
:101B6000900D1124772767FD709560537109860FDA
:101B7000971FDCCF8F3F910509F054F424303105D5
:101B80003CF4FA01E20FF31F828381E090E002C08F
:101B900080E090E0CF9108950F9300E020E040E0D6
:101BA00060E089E095E00E941F500F910895AF9288
:101BB000BF92CF92DF92EF92FF920F931F93CF933A
:101BC000DF9300D0CDB7DEB76C017B010E94F04BF4
:101BD000F601778366838601085F1F4FB6016A5F4F
:101BE0007F4F42E050E0C8010E94631681E090E020
:101BF0009A83898342E050E0BE016F5F7F4FC80146
:101C00000E94631680E091E09A83898342E050E06D
:101C1000BE016F5F7F4FC8010E9463161A8219824E
:101C200042E050E0BE016F5F7F4FC8010E94631623
:101C300042E050E0BE016F5F7F4FC8010E94631613
:101C400042E050E0BE016F5F7F4FC8010E94631603
:101C50006701F6018081882311F1F7016F018191FD
:101C6000811115C05601AE18BF081A141B0494F454
:101C7000AB8241E050E0BE016D5F7F4FC8010E9422
:101C80006316A501B701C8010E94631603C08E3216
:101C900029F7E8CF7601FFEFEF1AFF0ADACF1B82B0
:101CA00041E050E0BE016D5F7F4FC8010E946316A6
:101CB000E12CFF24F394FA82E98242E050E0BE0175
:101CC0006F5F7F4FC8010E946316FA82E98242E08B
:101CD00050E0BE016F5F7F4FC8010E94631681E034
:101CE00090E00F900F900F90DF91CF911F910F9187
:101CF000FF90EF90DF90CF90BF90AF9008954F92FC
:101D00005F926F927F928F929F92AF92BF92CF928B
:101D1000DF92EF92FF920F931F93CF93DF93CDB794
:101D2000DEB763970FB6F894DEBF0FBECDBF7C0160
:101D30005B016A010E94F04B2B013C018701085FA7
:101D40001F4F4501A12CB12CC8010E940317181682
:101D5000190694F00E94F04B6419750986099709D9
:101D600086169706A806B906D0F062E370E080E018
:101D700090E00E941F4CE8CFF701428153816481BB
:101D80007581818D928DA38DB48D481759076A078F
:101D90007B0741F4858D968DC59721F406C08FEFA2
:101DA0009FEFF9C08EEF9FEFF6C0C8010E94161694
:101DB0000C970CF4EEC04CE050E0BE016F5F7F4F1B
:101DC000C8010E94A0168B819C819827892798279B
:101DD0009A8B898BF7014681578129813A81421775
:101DE000530711F497FD06C0C8010E9430168CEF0E
:101DF0009FEFD1C08F709270892B31F0C8010E9483
:101E000030168BEF9FEFC7C0AF80B884BA24AB24E5
:101E1000BA24A114B10419F0E12CF12C23C0C8019B
:101E20000E9430168AEF9FEFB6C041E050E0BE013D
:101E3000635F7F4FC8010E94A0168D8581111BC072
:101E40008D858111F2CFC8010E947716C8010E94CA
:101E50007716C8010E947716C8010E947716FFEF17
:101E6000EF1AFF0A8D819E81982789279827E81607
:101E7000F906D8F20AC08D859FEF980F9D878823B9
:101E8000F9F2C8010E947716F6CFE12CF12C41E05F
:101E900050E0BE016D5E7F4FC8010E94A0168B8985
:101EA000982F907C61F4882371F08B899FEF980FB5
:101EB0009B8B882341F0C8010E947716F6CFC8019A
:101EC0000E9477161B8A8B898111E1CF42E050E096
:101ED000BE01615F7F4FC8010E94A01642E050E042
:101EE000BE01635F7F4FC8010E94A016C8010E9417
:101EF0007716C8010E947716C8010E947716C8019C
:101F00000E94771642E050E0BE016F5E7F4FC8012D
:101F10000E94A0168F8598898115914029F48D859E
:101F20009E858115914019F0812C912C16C08989CC
:101F30009A898115944031F0C8010E94301687EFCC
:101F40009FEF29C0B6016E5F7F4F44E050E0C801AB
:101F50000E94A01681E090E01EC089899A89982786
:101F6000892798278816990638F4C8010E947716A1
:101F70002FEF821A920AF1CF8FEFE81AF80AEA14CB
:101F8000FB0409F084CFC8010E94301686EF9FEF52
:101F900002C08DEF9FEF63960FB6F894DEBF0FBEC1
:101FA000CDBFDF91CF911F910F91FF90EF90DF9008
:101FB000CF90BF90AF909F908F907F906F905F90E9
:101FC0004F9008958F929F92AF92BF92CF92DF92DF
:101FD000EF92FF920F931F93CF93DF9300D000D027
:101FE000CDB7DEB78C015B016A010E948B0D4C01FD
:101FF000009709F05DC0F8014281538164817581C9
:1020000080910B0590910C05A0910D05B0910E05E6
:10201000481759076A077B0709F44EC00E94F04B26
:102020007801F8E0EF0EF11C6F7077277C5FC70135
:102030000E94D616813009F043C08FEF94E09A8356
:102040008983F80182819381A481B5818B839C83EC
:10205000AD83BE8345E350E0BE016F5F7F4FC70194
:102060000E945716892B19F4812C912C1DC0B501A3
:10207000C8010E94D70D892BB9F3C7010E945F16D2
:10208000892B91F333E0A32EB12CA60168E873E10C
:10209000C8010E947F0E4C01F1E0AF1AB10821F097
:1020A0008F3F2FEF920789F3C7010E94421608C0A5
:1020B00088248394912C04C09EEF892E99249A94AD
:1020C000C40126960FB6F894DEBF0FBECDBFDF91D8
:1020D000CF911F910F91FF90EF90DF90CF90BF9025
:1020E000AF909F908F9008952091B505222399F08D
:1020F0003FB7F8942091B505213059F42DB32093C2
:10210000B3054DB32091B405209524232DBB3FBFCB
:1021100002C03093B3058CBD9DBD08958091B50577
:10212000882361F09FB7F8942091B5058091B3059D
:10213000213019F48DBB9FBF08958FBF089544E0EF
:1021400050E0BC0181E090E00C94721C44E050E04F
:10215000BC0185E090E00C94721C44E050E0BC01AE
:102160008FE090E00C94721CAF92BF92CF92DF92FE
:10217000EF92FF920F931F93CF93DF9300D000D085
:10218000CDB7DEB76C015B0180917905811107C085
:1021900086E595E00E94531781E0809379058FE0F2
:1021A00095E0F6019783868383EA95E00E940A1CF6
:1021B00080E590E00E94741046E050E0B50189E0AF
:1021C00090E00E94721C00E020E040E060E0CE0160
:1021D00001960E941F50CE0103960E94AD100E94EE
:1021E0008E1010EAE12E1FE0F12E00E010E020E654
:1021F0003AEE40E050E0B501F601868197810E94F9
:10220000390D5C0181309105B9F580E590E00E94BF
:102210007410F60166817781CE0101960E947D08D7
:10222000CE0103960E94AD10F60166817781CE0142
:1022300001960E949308CE0103960E949F10F6011A
:1022400066817781CE0101960E948808CE010396AF
:102250000E94A6100E948E10F60166817781CE0141
:1022600001960E949E084B815C816D817E81F60102
:102270004283538364837583C50126960FB6F89411
:10228000DEBF0FBECDBFDF91CF911F910F91FF90A9
:10229000EF90DF90CF90BF90AF9008958F929F9274
:1022A000AF92BF92CF92DF92EF92FF920F931F9364
:1022B000CF93DF931F921F92CDB7DEB74C016A0117
:1022C000590183EA95E069837A830E940A1C80E5BC
:1022D00090E00E94741046E050E069817A8189E0C4
:1022E00090E00E94721CC60102960E94AD10C801C7
:1022F00002960E949F10C70102960E94A6100E949B
:102300008E10F5014281538164817581F40142830D
:102310005383648375830F900F90DF91CF911F914A
:102320000F91FF90EF90DF90CF90BF90AF909F9074
:102330008F9008956F927F928F929F92AF92BF92EB
:10234000CF92DF92EF92FF920F931F93CF93DF9381
:10235000CDB7DEB76E970FB6F894DEBF0FBECDBF18
:102360006C015B017A014901380100E02FEF4FEF6A
:102370006FEFCE0149960E941F502FEF34E03A8351
:1023800029838B8D9C8DAD8DBE8D8B839C83AD837E
:10239000BE8338872F83F30182819381A481B58125
:1023A00089879A87AB87BC873E872D87F401828116
:1023B0009381A481B5818F87988BA98BBA8B3C8B35
:1023C0002B8BF70142815381648175814D8B5E8B2C
:1023D0006F8B788FCE0101967C018E01095F1F4FB4
:1023E0009E01235F3F4FAE014D5E5F4FB501C601B9
:1023F0000E944E116E960FB6F894DEBF0FBECDBF91
:10240000DF91CF911F910F91FF90EF90DF90CF90D0
:10241000BF90AF909F908F907F906F900895CF93D3
:10242000DF93EC010E94155080E590E00E9474104B
:10243000BE016E5F7F4F44E050E08FE090E00E946D
:10244000A31D0E948E10CE01DF91CF910895CF93EE
:10245000DF93EC010E94155080E590E00E9474101B
:10246000BE016E5F7F4F44E050E085E090E00E9447
:10247000A31D0E948E10CE01DF91CF910895CF93BE
:10248000DF93EC010E94155080E590E00E947410EB
:10249000BE016E5F7F4F44E050E081E090E00E941B
:1024A000A31D0E948E10CE01DF91CF9108952FEFD2
:1024B00034E0FC0131832083FB014281538164813C
:1024C0007581FC01428353836483758308950F9360
:1024D00000E020E040E060E089E895E00E941F50C5
:1024E00081E795E00F910C94155081E086270895BF
:1024F000862F0895DC01ED91FC91048CF58DE02D83
:10250000199591E089270895CF93DF931F92CDB756
:10251000DEB76983DC01ED91FC910280F381E02D4F
:1025200041E050E0BE016F5F7F4F19950F90DF9142
:10253000CF91089521E0FC018485843009F420E0E6
:10254000822F0895FC019485FB018485981303C0B4
:1025500081E0943009F480E008950F931F93CF93A6
:10256000DF93EC018A018C85843021F00E94A71949
:10257000892B39F481E090E09B838A8380E090E0AE
:1025800001C0C801DF91CF911F910F910895FC0107
:102590008485843011F00C949E1A80E090E00895B8
:1025A000CF93DF931F92CDB7DEB741E050E0BE017D
:1025B0006F5F7F4FFC0184850E943D1A1816190633
:1025C0001CF4898190E002C08FEF9FEF0F90DF91A4
:1025D000CF910895FC0184850C943D1A0F931F93AD
:1025E000CF93DF931F92CDB7DEB78C01DC01ED9165
:1025F000FC910480F581E02D1995892B51F0BE01E5
:102600006F5F7F4FF80184850E94C91A898190E02D
:1026100002C08FEF9FEF0F90DF91CF911F910F912D
:102620000895FC0184850C94F91ACF92DF92EF9201
:10263000FF920F931F93CF93DF93CDB7DEB7AF9782
:102640000FB6F894DEBF0FBECDBF7C018B016A01CF
:10265000CE0101960E941550CE0109960E94531793
:10266000CE018A960E94155061E775E0CE018496EE
:102670000E945712BE016C5D7F4FCE0101960E94F1
:102680007E0DAE01465D5F4FB801CE0101960E94FE
:10269000E20F81309105C1F4D701ED91FC910484E2
:1026A000F585E02D8FEF94E09DA38CA30CA51DA5CF
:1026B0002EA53FA50EA31FA328A739A7A601BE01DB
:1026C0006C5D7F4FC7011995AF960FB6F894DEBFCA
:1026D0000FBECDBFDF91CF911F910F91FF90EF9073
:1026E000DF90CF900895FC011382128248EE53E0F0
:1026F00060E070E0448355836683778381E293E0F2
:102700009183808384E084870895FC01262F1382BF
:10271000128248EE53E060E070E0448355836683A4
:10272000778381E293E09183808324870895FC017D
:102730008485843011F00C944D1880E00895DF9268
:10274000EF92FF920F931F93CF93DF93EC017B01E6
:102750008A018C85843009F045C0D12C8D2D0E94D2
:102760004D18811102C0DC8607C08B7F8831D9F3F8
:10277000D39484E0D812F2CF8C85843099F12091E3
:102780000A0230910B022F5F3F4F11F420E030EC32
:1027900030930B0220930A0240910A0250910B02DF
:1027A00020E061E00E949F18B7016E5F7F4FA80193
:1027B0008C850E942719811103C084E08C8712C088
:1027C000CE010E949713873151F061E070E080E004
:1027D00090E00E941F4CCE010E949713ECCF81E045
:1027E00090E002C080E090E0DF91CF911F910F91C7
:1027F000FF90EF90DF900895CF92DF92EF92FF92DB
:10280000CF93DF93EC018C85843049F10E948019CD
:102810000E94F04B6B017C01CE010E94971388232C
:10282000A1F061E070E080E090E00E941F4C0E9407
:10283000F04B6C197D098E099F09683E7340810534
:10284000910550F38C850E947418EC85F0E0EE0F32
:10285000FF1FEF57FA4F1182108284E08C87DF91BF
:10286000CF91FF90EF90DF90CF900895CF93DF93BB
:10287000EC018C858430D1F0CE010E949713843115
:10288000A9F0882399F0883189F08C3169F4E881C6
:10289000F9810480F581E02DCE01199521E0892B85
:1028A00009F420E0822F03C081E001C080E0DF91C5
:1028B000CF9108950F9300E020E040E060E08FE8C2
:1028C00095E00E941F500F910895CF93DF931F92C0
:1028D000CDB7DEB76983DC01ED91FC910280F38115
:1028E000E02D41E050E0BE016F5F7F4F19950F90E2
:1028F000DF91CF910895EF92FF920F931F93CF93A3
:10290000DF93CDB7DEB72D970FB6F894DEBF0FBEBD
:10291000CDBF7C0100E010E0602FCE0101960E9447
:102920008513CE0101960E949713811116C0F701FD
:102930004481558120E061E0802F0E949F18802F04
:102940000E94F418F70184819581F801EE0FFF1FB2
:10295000EF57FA4F9183808305C00F5F1F4F0430FC
:102960001105D1F62D960FB6F894DEBF0FBECDBF80
:10297000DF91CF911F910F91FF90EF900895FC018F
:102980001382128285E493E091838083758364834C
:102990000895BF92CF92DF92EF92FF920F931F9311
:1029A000CF93DF93CDB7DEB72D970FB6F894DEBF88
:1029B0000FBECDBF8C0141E8C42E45E0D42EB12C12
:1029C000E12CF12C6B2DCE0101960E948513D601CE
:1029D0002D913D916D01F80184819581281739076A
:1029E000B1F4CE0101960E949713843169F0CE01B3
:1029F00001960E9497138C3151F4CE0101960E94EA
:102A0000C712892B99F003C0EE24E394F12CB39400
:102A1000F4E0BF12D7CFEF2871F4D801ED91FC910B
:102A20000480F581E02DC801199505C0CE010196FD
:102A30000E94FC13ECCF2D960FB6F894DEBF0FBEAC
:102A4000CDBFDF91CF911F910F91FF90EF90DF905D
:102A5000CF90BF9008957F928F929F92AF92BF9236
:102A6000CF92DF92EF92FF920F931F93CF93DF935A
:102A7000CDB7DEB72D970FB6F894DEBF0FBECDBF32
:102A80006C015B014A010E94C91451E8E52E55E032
:102A9000F52E712C00E010E0672DCE0101960E940A
:102AA0008513F701219131917F01F6018481958190
:102AB0002817390731F4CE0101960E949713873108
:102AC000C9F07394F4E07F12E7CFC8012D960FB6DA
:102AD000F894DEBF0FBECDBFDF91CF911F910F9154
:102AE000FF90EF90DF90CF90BF90AF909F908F902E
:102AF0007F900895A401B501CE0101960E94AD1208
:102B0000080F191FDECFBF92CF92DF92EF92FF9294
:102B10000F931F93CF93DF93CDB7DEB72D970FB6EB
:102B2000F894DEBF0FBECDBF8C016B01CB010E94BC
:102B3000C91461E8E62E65E0F62EB12C6B2DCE01AE
:102B400001960E948513F701219131917F01F601D1
:102B5000848195812817390751F5CE0101960E948D
:102B60009713873111F08C3111F5CE0101960E9437
:102B7000C712892BE1F08B819C81F80193838283BA
:102B80008D819E81AF81B88584839583A683B78329
:102B900049855A856B857C85408751876287738715
:102BA00081E293E0918380838D85848708C0B3940C
:102BB000F4E0BF12C3CF64E0C8010E948513C801CE
:102BC0002D960FB6F894DEBF0FBECDBFDF91CF912B
:102BD0001F910F91FF90EF90DF90CF90BF900895DD
:102BE0000F9300E020E040E060E085E995E00E947E
:102BF0001F500F910895DC01ED91FC91008CF18D37
:102C0000E02D19942FEF34E0FC0131832083FB0188
:102C10004189528963897489FC01428353836483A7
:102C200075830895FC01858996890895FC01818D3D
:102C3000928D0895CF93DF931F92CDB7DEB769834E
:102C4000DC01ED91FC910280F381E02D41E050E048
:102C5000BE016F5F7F4F19950F90DF91CF9108955F
:102C6000CF93DF93EC01898D9A8D892B41F0E88118
:102C7000F9810680F781E02DCE011995F4CFDF911F
:102C8000CF910895CF93DF93EC018C85843061F070
:102C90000E947418EC85F0E0EE0FFF1FEF57FA4F1B
:102CA0001182108284E08C87DF91CF910895FC011E
:102CB000108E178A6E5F7F4F84850C94421BFC0137
:102CC00084850C94891BCF93DF93EC019A018F8943
:102CD000988DAB01BC018C850E94FA1A2F89388D22
:102CE000280F391F388F2F8BDF91CF9108950F93C5
:102CF0001F93CF93DF931F92CDB7DEB78C01FC01FA
:102D0000818D928D892B59F041E050E0BE016F5FBB
:102D10007F4F84850E943D1A181619061CF08FEF0C
:102D20009FEF08C0F801818D928D0197928F818F5E
:102D3000898190E00F90DF91CF911F910F910895BD
:102D4000CF93DF93EC01898D9A8D009719F48FEF63
:102D50009FEF10C04817590708F0AC018C850E94FE
:102D60003D1A181619069CF7298D3A8D281B390B28
:102D70003A8F298FDF91CF910895CF93DF931F92E0
:102D8000CDB7DEB7FC01218D328D232B49F0BE017A
:102D90006F5F7F4F84850E94C91A898190E002C0CD
:102DA0008FEF9FEF0F90DF91CF910895FF920F93D8
:102DB0001F93CF93DF93EC018B018C858430E1F47A
:102DC000F12C8F2D0E944D18811102C0FC8606C087
:102DD0008831E1F3F39484E0F812F3CF8C858430EA
:102DE00059F01E870D871A8E198E20E0A80162E027
:102DF0000E949F1881E001C080E0DF91CF911F9178
:102E00000F91FF9008950F931F93CF93DF93CDB74A
:102E1000DEB728970FB6F894DEBF0FBECDBF8C018A
:102E2000DC01ED91FC910284F385E02D1995F80108
:102E300084850E949E1A1816190644F548E050E051
:102E4000BE016F5F7F4FD8011C968C910E943D1A86
:102E500018161906ECF4BE016F5F7F4FC8010F967C
:102E60000E943B508D8190E0982F88272E81820F01
:102E7000911DF801968B858B8F8190E0982F882784
:102E80002885820F911D928F818F02C080E090E093
:102E900028960FB6F894DEBF0FBECDBFDF91CF915D
:102EA0001F910F910895FC011382128248EE53E0A6
:102EB00060E070E044835583668377838FE493E01A
:102EC0009183808384E08487CF010F960C94155002
:102ED000CF92DF92EF92FF920F931F93CF93DF93E6
:102EE000CDB7DEB7AF970FB6F894DEBF0FBECDBF3C
:102EF0007C018B016A01CE0101960E941550CE0122
:102F000009960E945317CE018A960E94155061E7D8
:102F100075E0CE0184960E945712BE016C5D7F4F12
:102F2000CE0101960E947E0DAE01465D5F4FB80155
:102F3000CE0101960E94E20F81309105C1F4D701C4
:102F4000ED91FC910088F189E02D8FEF94E09DA335
:102F50008CA30CA51DA52EA53FA50EA31FA328A7D6
:102F600039A7A601BE016C5D7F4FC7011995AF96C9
:102F70000FB6F894DEBF0FBECDBFDF91CF911F918A
:102F80000F91FF90EF90DF90CF9008950F9300E0A6
:102F900020E040E060E08BE995E00E941F500F9137
:102FA0000895CF92DF92EF92FF920F9330E0C12C01
:102FB000F2E1DF2EFAE7EF2EF12C4C155D056E05E0
:102FC0007F0540F4F694E794D794C7943F5F36307A
:102FD000A1F737E041E04327211102C050E701C0CB
:102FE00050E5242F30E03595279523700C70202B69
:102FF000252BFC012083417041830F91FF90EF90BE
:10300000DF90CF90089590E0982F882744E050E01B
:10301000845F9B4F0C94721C282F30E02C5F3F4F35
:10302000922F8827860F971F0C94A11C62E070E0F6
:103030000C940C18FB01282F30E02C5F3F4F922F8F
:103040008827642F8E0F9F1F0C94E71BCF93DF936D
:10305000C82FD62F472F64E070E00E941A184D2F1A
:1030600065E070E08C2FDF91CF910C941A18462FF9
:1030700062E070E00C941A18CF93DF93C82FD62F1C
:10308000472F60E170E00E941A184D2F61E170E057
:103090008C2FDF91CF910C941A180F931F93CF931D
:1030A000DF9300D0CDB7DEB7182F00E021E040E07D
:1030B00059E06DE370E0CE0101960E94D11789813D
:1030C0009A810E94741063E070E0812F0E940C18B6
:1030D0008B830E948E108B810F900F900F90DF9149
:1030E000CF911F910F9108950F931F93CF93DF936B
:1030F0001F921F92CDB7DEB7182F00E021E040E00D
:1031000059E06DE370E0CE0101960E94D1178981EC
:103110009A810E94741040E150E0612F83EA95E0AB
:103120000E946C1E6FEF812F0E9437180E948E1034
:103130000F900F90DF91CF911F910F910895CF9233
:10314000DF92EF92FF920F931F93CF93DF931F9223
:103150001F92CDB7DEB7182FD62E7A01C22E8FEF71
:10316000860F8530A8F5812F0E94741800E021E0B9
:1031700040E059E06DE370E0CE0101960E94D11766
:1031800089819A810E9474104D2D4C2960E070E075
:10319000812F0E941A18E114F10411F0B7010AC03E
:1031A0006091A1057091A2056F5F7F4F7093A2059A
:1031B0006093A105812F0E94261841E050E0612F05
:1031C00083EA95E00E946C1E0E948E1081E001C08F
:1031D00080E00F900F90DF91CF911F910F91FF90A2
:1031E000EF90DF90CF9008950F931F93CF93DF93CD
:1031F0001F921F92CDB7DEB7182F00E021E040E00C
:1032000059E06DE370E0CE0101960E94D1178981EB
:103210009A810E94741063E070E0812F0E940C1864
:10322000833121F00E948E1080E00AC042E050E01D
:10323000612F83EA95E00E946C1E0E948E1081E04F
:103240000F900F90DF91CF911F910F910895CF9222
:10325000DF92EF92FF920F931F93CF93DF931F9212
:103260001F92CDB7DEB7182F7B016A01FB01808169
:103270008F3F51F481818F3F99F482818F3F81F498
:1032800083818F3F69F430C081110AC0FB018181C5
:10329000811106C08281811103C08381882321F1BD
:1032A000C114D10409F100E021E040E059E06DE3F0
:1032B00070E0CE0101960E94D11789819A810E9407
:1032C0007410B701812F0E940318B601812F0E944C
:1032D0003C1844E050E0612F83EA95E00E946C1EA8
:1032E0000E948E1081E001C080E00F900F90DF916E
:1032F000CF911F910F91FF90EF90DF90CF900895A5
:103300000F931F93CF93DF931F921F92CDB7DEB71A
:10331000182F00E021E040E059E06DE370E0CE01BD
:1033200001960E94D11789819A810E94741048E009
:1033300050E0612F83EA95E00E946C1E0E948E107F
:103340000F900F90DF91CF911F910F910895BF9231
:10335000CF92DF92EF92FF920F931F93CF93DF9361
:1033600000D0CDB7DEB7B82E6B017A01413088E0CE
:10337000580718F0E12C98E0F92E00E021E040E039
:1033800059E06DE370E0CE0101960E94D11789816A
:103390009A810E9474106B2D83EA95E00E94D91CDB
:1033A0008C0163E070E08B2D0E940C188B830E94CF
:1033B0008E108B81873111F08C3131F40E94A54B36
:1033C0000E151F05D0F202C0E12CF12C00E021E027
:1033D00040E059E06DE370E0CE0101960E94D11704
:1033E00089819A810E9474109701A6016B2D83EA4E
:1033F00095E00E94981D40E250E06B2D83EA95E035
:103400000E946C1E8B2D0E94161884FD22C063E062
:1034100070E08B2D0E940C18811108C00E948E1044
:103420008B2D0E94741880E090E01AC00E948E10CC
:103430000E94A54B00E021E040E059E06DE370E020
:10344000CE0101960E94D11789819A810E94741041
:10345000D9CF60E18B2D0E9437180E948E10C701D2
:103460000F900F900F90DF91CF911F910F91FF90D0
:10347000EF90DF90CF90BF900895AF92BF92CF9220
:10348000DF92EF92FF920F931F93CF93DF931F92E0
:103490001F92CDB7DEB7182F5B016A0100E021E073
:1034A00040E059E06DE370E0CE0101960E94D11733
:1034B00089819A810E947410612F83EA95E00E94AD
:1034C0000D1D7C010097A1F463E070E0812F0E9444
:1034D0000C18843119F1882309F121E030E08C3196
:1034E00011F420E030E0EE24FF24E21AF30A16C0C3
:1034F000C816D9060CF476011E141F047CF400E0F3
:103500009701A501612F83EA95E00E941C1E40E40B
:1035100050E0612F83EA95E00E946C1E0E948E109D
:10352000C7010F900F90DF91CF911F910F91FF90E6
:10353000EF90DF90CF90BF90AF9008950F931F93BF
:10354000CF93DF9300D01F92CDB7DEB7182F00E0E6
:1035500021E040E059E06DE370E0CE0101960E9469
:10356000D11789819A810E947410612F83EA95E0B6
:103570000E940D1D8B839C830E948E108B819C81E9
:103580000F900F900F900F90DF91CF911F910F919F
:103590000895EF92FF920F931F93CF93DF931F92A3
:1035A0001F92CDB7DEB7182F7B0100E021E040E08D
:1035B00059E06DE370E0CE0101960E94D117898138
:1035C0009A810E94741001E021E030E0A701612F90
:1035D00083EA95E00E941C1E0E948E1081E090E01C
:1035E0000F900F90DF91CF911F910F91FF90EF906F
:1035F000089508959F92AF92BF92CF92DF92EF927B
:10360000FF920F931F93CF93DF931F921F92CDB71B
:10361000DEB7982E6B015A01790100E021E040E00D
:1036200059E06DE370E0CE0101960E94D1178981C7
:103630009A810E947410692D83EA95E00E94D91C3A
:103640008E159F0530F4692D83EA95E00E94D91C00
:103650007C0187019501A601692D83EA95E00E940E
:10366000291D0E948E10C7010F900F90DF91CF91FE
:103670001F910F91FF90EF90DF90CF90BF90AF9090
:103680009F900895CF92DF92EF92FF920F931F9336
:10369000CF93DF931F921F92CDB7DEB7182F7B0118
:1036A0006A01FB018081811109C08181811106C0FD
:1036B0008281811103C083818823F1F0C114D10478
:1036C000D9F000E021E040E059E06DE370E0CE0188
:1036D00001960E94D11789819A810E947410B701C6
:1036E000812F0E940318B601812F0E943C180E946E
:1036F0008E1081E090E002C080E090E00F900F908B
:10370000DF91CF911F910F91FF90EF90DF90CF90BD
:1037100008950F931F93CF93DF931F921F92CDB7FE
:10372000DEB7182F00E021E040E059E06DE370E0E3
:10373000CE0101960E94D11789819A810E9474104E
:1037400040E250E0612F83EA95E00E946C1E812FD9
:103750000E94161884FD21C0812F0E94161883FF35
:1037600009C068E1812F0E9437180E948E1080E006
:1037700090E01BC00E948E100E94A54B00E021E04B
:1037800040E059E06DE370E0CE0101960E94D11750
:1037900089819A810E947410DACF60E1812F0E94A2
:1037A00037180E948E1081E090E00F900F90DF910B
:1037B000CF911F910F9108958EBD00000DB407FEAB
:1037C000FDCF8EB508952C9808952C9A08951F93D7
:1037D000CF93DF931F921F92CDB7DEB7182F6A8366
:1037E00099830E94E31B80EF0E94DC1B9981892F43
:1037F0000E94DC1B812F0E94DC1B6A81862F0E94A5
:10380000DC1B0E94E51B81E00F900F90DF91CF91B0
:103810001F910895CF93DF93EC016CE271E080E09B
:1038200090E00E941F4C0E947C1E249A8091B50556
:10383000882399F09FB7F8948091B505813059F4A9
:103840008DB38093B3052DB38091B4058095822309
:103850008DBB9FBF02C09093B30580E58CBD1DBC9E
:1038600060E880E090E00E94E71B65E58BE190E076
:103870000E94E71B65E58AE190E00E94E71B8091CA
:10388000B505882361F09FB7F8942091B505809124
:10389000B305213019F48DBB9FBF01C08FBF80E0FD
:1038A00090E49983888380E090E69987888780E018
:1038B00098E49B838A8380E098E69B878A8780E0F0
:1038C00090E59D838C8380E090E79D878C8780E0E6
:1038D00098E59F838E8380E098E79F878E87DF91AE
:1038E000CF910895CF92DF92EF92FF920F931F93A3
:1038F000CF93DF93EC017A018B016C01C40ED51ECE
:10390000CC15DD05A1F00E94E31B80EF0E94DC1BBB
:103910008D2F0E94DC1B8C2F0E94DC1B2196F8014E
:1039200081918F010E94DC1B0E94E51BE9CFC7013A
:10393000DF91CF911F910F91FF90EF90DF90CF908B
:1039400008951F93CF93DF931F92CDB7DEB7182F43
:1039500099830E94E31B8FE00E94DC1B9981892FD1
:103960000E94DC1B812F0E94DC1B80E00E94DC1B7C
:1039700089830E94E51B89810F90DF91CF911F9170
:1039800008951F93CF93DF93182F60E270E00E9499
:103990000C18C82FD0E061E270E0812F0E940C1853
:1039A000DC2FCC279E01282BC901DF91CF911F91DD
:1039B0000895FF920F931F93CF93DF93F62EC0E0ED
:1039C000D0E08F2D0E94C11C8C01009721F08F2D1B
:1039D0000E94C11CEC01C017D10799F7CE01DF91FD
:1039E000CF911F910F91FF9008951F93CF93DF9375
:1039F000182F66E270E00E940C18C82FD0E067E232
:103A000070E0812F0E940C18DC2FCC279E01282B00
:103A1000C901DF91CF911F910895FF920F931F93DA
:103A2000CF93DF93F62EC0E0D0E08F2D0E94F51CDF
:103A30008C01009721F08F2D0E94F51CEC01C0171E
:103A4000D10799F7CE01DF91CF911F910F91FF9090
:103A500008956F927F929F92AF92BF92CF92DF9222
:103A6000EF92FF920F931F93CF93DF931F92CDB7E7
:103A7000DEB7D82E962E3A01590164E270E0892D06
:103A800099830E940C18E82EF12C65E270E0892DD4
:103A90000E940C18FE2CEE24E82AE60CF71C970175
:103AA00037706D2C9981792E690C711C690C711C11
:103AB000D301ED91FC91E20FF31FC901800F911F1B
:103AC00081309840A0F0C12C48E0D42EC21AD30A0D
:103AD000A601B501CF010E94721CA8014C195D0915
:103AE000B5016C0D7D1DF3018081918103C0A8019A
:103AF000B501CF010E94721CE00EF11E4F2D64E251
:103B000070E0892D0E941A184E2D65E270E0892D13
:103B10000F90DF91CF911F910F91FF90EF90DF9069
:103B2000CF90BF90AF909F907F906F900C941A1899
:103B30000F931F9389019A0140E050E00E94291DD4
:103B40001F910F910895CF92DF92EF92FF920F9302
:103B50001F93CF93DF93EC017A018B016C01C40EAC
:103B6000D51ECC15DD05A9F00E94E31B8FE00E9455
:103B7000DC1B8D2F0E94DC1B8C2F0E94DC1B2196EE
:103B800080E00E94DC1BF80181938F010E94E51BFD
:103B9000E8CFC701DF91CF911F910F91FF90EF9078
:103BA000DF90CF900895AF92BF92CF92DF92EF92C5
:103BB000FF920F931F93CF93DF931F921F92CDB766
:103BC000DEB75A8349835901E981FA81F7707C0194
:103BD000E60EF11CE60EF11CD70118968D919C9112
:103BE00019978E0F9F1F98012E0F3F1F21303840CD
:103BF00098F0C12C68E0D62ECE1ADF0AA601B501D6
:103C00000E94A31DA8014C195D09B5016C0D7D1D15
:103C1000F7018085918502C0A801B5010F900F9032
:103C2000DF91CF911F910F91FF90EF90DF90CF9098
:103C3000BF90AF900C94A31D8F929F92AF92BF92B2
:103C4000CF92DF92EF92FF920F931F93CF93DF9368
:103C50006C01962E5A017901802E68E270E0892D60
:103C60000E940C18C82FD0E069E270E0892D0E94F4
:103C70000C18DC2FCC27C82B87019501AE01692DCC
:103C8000C6010E94D31D81101AC0CE0DDF1D4D2F1D
:103C900068E270E0892D0E941A184C2F69E270E0EA
:103CA000892DDF91CF911F910F91FF90EF90DF90C1
:103CB000CF90BF90AF909F908F900C941A18DF9187
:103CC000CF911F910F91FF90EF90DF90CF90BF9019
:103CD000AF909F908F900895CF93C62F61E070E0D2
:103CE0008C2F0E941A1861E070E08C2F0E940C1833
:103CF0008111F9CFCF910895CF93CFB7F8948091E8
:103D0000B605811127C0EAECFDE08491E4E8FDE00E
:103D10009491E82FF0E0EE0FFF1FE15FF14FA591C6
:103D2000B4918C91892321F461E085E30E945B4D7D
:103D300061E085E30E94224D8CB580618CBD8CB51D
:103D400080648CBD61E084E30E94224D61E083E3E6
:103D50000E94224D8091B6058F5F8093B605CFBF3C
:103D6000CF9108956F927F928F929F92AF92BF9260
:103D7000CF92DF92EF92FF920F931F93CF93DF9337
:103D8000EA012CE3C22ED12CE12CF12CA7019601E3
:103D90000E94EF516883CA01B901A70196010E94F0
:103DA000EF516983CA01B90128E130E040E050E0F9
:103DB0000E94EF5149015A016A83CA01B9016C5F3F
:103DC0007F4F8F4F9F4F27E030E040E050E00E9450
:103DD000EF516F5F6B8300E010E0980140E054E624
:103DE000652E712C60E9C62EDD24D394E42FF0E01B
:103DF000EE54F84F7F0183E0E822FF24E114F10440
:103E000089F4CF01B3010E94DB51892B29F08EE6A2
:103E100091E0A0E0B0E00AC0CF01B6010E94DB5102
:103E2000892BA9F38DE691E0A0E0B0E0080F191FFF
:103E30002A1F3B1FD901C801AA27BB27881699064C
:103E4000AA06BB0610F04F5FD1CF4E83E114F104F8
:103E500099F4CF0164E670E00E94DB51892B29F0D0
:103E60008EE691E0A0E0B0E00BC0CF0160E971E028
:103E70000E94DB51892BA1F38DE691E0A0E0B0E038
:103E8000081B190B2A0B3B0B801A910AA20AB30AD2
:103E9000CF0164E670E00E94DB519C01CF0160E934
:103EA00071E00E94DB51EFE6F3E0A0E0A13059F4AD
:103EB000E114F10451F42115310511F04DE106C072
:103EC0000097E1F302C0408101C04CE150E060E0A6
:103ED00070E084169506A606B70640F0841A950A87
:103EE000A60AB70AAF5F3196AC3001F7AF5FAD837A
:103EF00083948C82DF91CF911F910F91FF90EF906F
:103F0000DF90CF90BF90AF909F908F907F906F90F9
:103F10000895CF92DF92EF92FF926B017C01809126
:103F2000C7059091C805A091C905B091CA05C816EA
:103F3000D906EA06FB0671F04BEC55E0C701B60165
:103F40000E94B21EC092C705D092C805E092C90572
:103F5000F092CA05FF90EF90DF90CF9008950E94F5
:103F6000891F8091CD0590E008950E94891F80915E
:103F7000CC0590E008950E94891F8091CF0590E0C4
:103F800008950E94891F8091CE0590E008950E94B7
:103F9000891F8091D00590E008950E94891F80912B
:103FA000D10590E08E54984F08956F927F928F9232
:103FB0009F92AF92BF92CF92DF92EF92FF920F93B8
:103FC0001F93CF93DF93FC01C680AC2DB0E020E8B7
:103FD00033E341EE51E00E9453524B015C0122EB6E
:103FE00037E06D01C4E6D0E000E911E0C901825B71
:103FF00097408C159D05DCF4C90183709927892BA6
:1040000099F4C901BE010E94DB51892B31F4C90129
:10401000B8010E94DB51892B39F480E8880E81E5D4
:10402000981E81E0A81EB11C2F5F3F4FDFCF658037
:10403000712C8EE4C81A88EFD80AC60164E670E0D5
:104040000E94DB518C01C60160E971E00E94DB51E6
:104050007C01C1E0D0E083E0C822DD24C615D7058D
:104060002CF5C230D10589F4C114D10471F40115C5
:10407000110519F4E114F10441F480E8880E8BE392
:10408000981E86E2A81EB11C0FC0DE01A259BC4FCB
:10409000AC91B0E020E831E541E050E00E9453529D
:1040A000860E971EA81EB91E2196D8CF4181228167
:1040B00030E0A0E1BEE00E943D526B017C01242F64
:1040C00030E0ACE3B0E00E943D52C60ED71EE81EC1
:1040D000F91E8081C80ED11CE11CF11CA481B0E046
:1040E000119720E831E541E050E00E945E52C60E93
:1040F000D71EE81EF91EC80CD91CEA1CFB1CC70100
:10410000B601DF91CF911F910F91FF90EF90DF905B
:10411000CF90BF90AF909F908F907F906F900895B9
:104120000F931F936093C3057093C4058093C505D7
:104130009093C60500910C0210910D0220910E0281
:1041400030910F02060F171F281F391F0093BB0560
:104150001093BC052093BD053093BE0582E090E02E
:104160009093BA058093B9050E94F04B6093BF0508
:104170007093C0058093C1059093C2051F910F9164
:104180000895CF92DF92EF92FF920F931F930E94B8
:10419000F04BC090BF05D090C005E090C105F090F5
:1041A000C2056C197D098E099F090091C305109104
:1041B000C4052091C5053091C605683E7340810550
:1041C0009105D8F00F5F1F4F2F4F3F4F0093C3054E
:1041D0001093C4052093C5053093C60548EEC40E60
:1041E00043E0D41EE11CF11CC092BF05D092C00573
:1041F000E092C105F092C205CACF8091BB059091B3
:10420000BC05A091BD05B091BE05081719072A0786
:104210003B07C8F1E091B705F091B805309799F1E7
:104220001995611571058105910519F00E9490207D
:104230002AC080910C0290910D02A0910E02B091C3
:104240000F024091C3055091C4056091C50570915E
:10425000C605840F951FA61FB71F8093BB059093BB
:10426000BC05A093BD05B093BE0581E090E0209110
:10427000B9053091BA05232B11F480E090E09093BA
:10428000BA058093B9056091C3057091C40580910A
:10429000C5059091C6051F910F91FF90EF90DF909B
:1042A000CF9008950E94C1200E94891F8091CE0561
:1042B00090E008959093B8058093B7058091C30569
:1042C0009091C405A091C505B091C6058093BB052A
:1042D0009093BC05A093BD05B093BE050C94C1207E
:1042E0000F931F9360930C0270930D0280930E0244
:1042F00090930F020091C3051091C4052091C5054C
:104300003091C605060F171F281F391F0093BB05E4
:104310001093BC052093BD053093BE051F910F91EE
:104320000895FC018285807C828716821782108620
:1043300011861282138214821582118210820895CE
:104340004F925F926F927F928F929F92AF92BF92A5
:10435000CF92DF92EF92FF920F931F93CF93DF9351
:10436000CDB7DEB728970FB6F894DEBF0FBECDBF2E
:104370008C01FC014281538164817581452B462B60
:10438000472B09F41BC1828584FF18C10E94C120FC
:104390006B017C01F8012285822F8F709EE0980FBF
:1043A0009F70933008F0F8C0468157816085718511
:1043B000C416D506E606F70608F4EEC0823049F4C6
:1043C00042815381648175814683578360877187F9
:1043D000E3C0833009F047C0F80142805380648015
:1043E00075800E94C12020E8822E21E5922EAA2409
:1043F000A394B12CA50194010E94EF5160E871E5EE
:1044000081E090E00E94AB51640D751D861D971DE3
:10441000F8014280538064807580C616D706E8068E
:10442000F90658F0C701B601A50194010E94EF51A9
:104430002F5F3F4F4F4F5F4F06C0C701B601A50129
:1044400094010E94EF5160E871E581E090E00E94E4
:10445000AB51640D751D861D971DF801668377832A
:104460008087918799C0843009F092C0F80142801A
:104470005380648075800E94C1204B015C010E94C2
:10448000C12069837A838B839C830E94C1206D83C2
:104490007E838F839887840C951CA61CB71C80E8AC
:1044A000482E81E5582E66246394712C69817A81A7
:1044B0008B819C81A30192010E94EF51861A970A79
:1044C000A80AB90A6D817E818F819885A301920126
:1044D0000E94EF512C5F3F4F4F4F5F4FCA01B90110
:1044E00027E030E040E050E00E94EF519B01AC013A
:1044F00060E871E581E090E00E94AB51861A970A6E
:10450000A80AB90AF8014281538164817581C814EF
:10451000D904EA04FB0470F04A015B01F0E88F0E55
:10452000FAE39F1EF9E0AF1EB11C8C0C9D1CAE1C63
:10453000BF1C06C046015701840E951EA61EB71E5D
:10454000C701B601A30192010E94EF51861A970A92
:10455000A80AB90ACA01B9016C5F7F4F8F4F9F4FFC
:1045600027E030E040E050E00E94EF519B01AC01B9
:1045700060E871E581E090E00E94AB51861A970AED
:10458000A80AB90AF80186829782A086B18604C07B
:10459000822F8F7EF8018287F80182858F708130AB
:1045A00089F442815381648175814C0D5D1D6E1DBE
:1045B0007F1D468357836087718704C0F801828519
:1045C0008F7E828728960FB6F894DEBF0FBECDBFD0
:1045D000DF91CF911F910F91FF90EF90DF90CF90DF
:1045E000BF90AF909F908F907F906F905F904F9013
:1045F0000895663050F4FC012BE0629FE00DF11D40
:10460000112492859F7081E009F480E008951F9342
:10461000CF93DF93EC01162F0E94F922882359F1E2
:10462000812F90E0FE012BE0129FE00DF11D11247F
:104630004281538164817581452B462B472B41F084
:1046400041E020813181232B09F440E0242F01C077
:1046500020E03BE0389FF001399FF00D1124EC0F72
:10466000FD1F828520FB84F98287CF01DF91CF91E6
:104670001F910C94A021DF91CF911F9108951F935A
:10468000CF93DF93EC01162F0E94F922882341F08B
:104690008BE0189FC00DD11D11248A858F7E8A87DB
:1046A000DF91CF911F9108951F93CF93DF93EC017A
:1046B000162F0E94F922882399F0FE018BE0189FA3
:1046C000E00DF11D11248285807E82871182108287
:1046D0001282138214821582168217821086118626
:1046E000DF91CF911F910895EF92FF920F931F9347
:1046F000CF93DF938C01EC017C0182E4E80EF11C86
:10470000CE010E9491212B96CE15DF05C9F71882A4
:10471000C0E06C2FC8010E945423CF5FC630C9F798
:10472000DF91CF911F910F91FF90EF9008954F92DD
:104730005F926F927F928F929F92AF92BF92CF9231
:10474000EF92FF920F93CF93DF93EC014A015B014D
:104750003901C7010297039738F40E94C1206115FF
:10476000724E8F4D9140B0F0412C512C9BE0949DA6
:10477000F001959DF00D1124EC0FFD1FDF011A963D
:1047800082858F7049F08FEF481A580A26E042164A
:10479000510469F78FEF18C0718260828C9100FB21
:1047A00085F99E2D9F70807F892B8C9382829382C6
:1047B000A482B582642DCE01CC2019F00E9407237B
:1047C00002C00E943F23842DDF91CF910F91FF9073
:1047D000EF90CF90BF90AF909F908F907F906F9011
:1047E0005F904F9008958F929F92AF92BF92CF9219
:1047F000DF92EF92FF920F931F93CF93DF93FC0111
:104800007B016901E8012CE330E0DA010E944C529F
:104810004B015C01C601AA2797FDA095BA2F880E0F
:10482000991EAA1EBB1E20E13EE0D7010E944C52F9
:10483000860E971EA81EB91ECC24C39483E0E82ED2
:10484000F12C00E09E01B501A401CF010E94972345
:10485000DF91CF911F910F91FF90EF90DF90CF905C
:10486000BF90AF909F908F90089582ED95E00C944B
:1048700074230F931F93CF93DF93EC01662359F0BA
:104880000E94F04B69837A838B839C83DF91CF9165
:104890001F910F9108950E94F04B09811A812B817D
:1048A0003C81601B710B820B930B64367105810593
:1048B000910530F763E070E080E090E00E941F4CCB
:1048C000EACF60E00C943924FC0113AA14AA15AABB
:1048D00016AA1182128213821482411551056105B4
:1048E000710521F0CB01BA010C941F4C0895FB0116
:1048F000BA01A901DC01D296FC93EE93D19726E090
:10490000CF010C94CC4EDC01D1968D919C91D29725
:10491000DC01ED91FC910680F781E02D1995089559
:104920001F93CF93DF93EC01162F6BE773E089A9F8
:104930009AA90E94A3504AE050E0612F89A99AA940
:104940000E94645162E873E089A99AA90E94A35069
:1049500062E370E080E090E0DF91CF911F910C94D2
:104960001F4C1F93CF93DF93EC01162F8D8188236B
:1049700089F189A99AA9DC01ED91FC910480F58166
:10498000E02D1995892BA9F307C02637310519F1B8
:104990002835310509F41D8289A99AA9DC01ED9118
:1049A000FC910480F581E02D19951816190694F4F0
:1049B00089A99AA9DC01ED91FC910680F781E02D8F
:1049C00019959C01332723363105F9F6612FCE0165
:1049D0000E94902483E6DF91CF911F9108950F9359
:1049E0001F93CF93DF931F92CDB7DEB78C01662361
:1049F00049F081E0F801858360E0C80149830E94A5
:104A0000B1244981F80145830F90DF91CF911F9127
:104A10000F910895DC01D1968D919C91D297DC0184
:104A2000ED91FC910680F781E02D19950895DC0148
:104A3000D1968D919C91D297DC01ED91FC910680ED
:104A4000F781E02D19950895611101C06AE0462FA4
:104A500050E060E070E00C94C552DF92EF92FF925C
:104A60000F931F93CF93DF93EC016AE070E080E037
:104A700090E00E941F4CCE010E940A25CE010E94A8
:104A80001725D82E9FE1E92E96E0F92E8701802F79
:104A90008E198D1568F489A99AA9DC01ED91FC9114
:104AA0000680F781E02D1995F80181938F01EFCFF2
:104AB000ED2DF0E0EA5EF94F1186DF91CF911F9165
:104AC0000F91FF90EF90DF900895CF93DF93EA016D
:104AD0000E9424256883DF91CF9108950F931F933F
:104AE000CF93DF931F92CDB7DEB78A01AE014F5F40
:104AF0005F4F0E9465258981F80180830F90DF91C7
:104B0000CF911F910F9108950F9300E020E040E0B6
:104B100060E08DE496E00E941F500F910C94D32525
:104B20000F9300E020E040E060E083E596E00E9423
:104B30001F500F9108950F9300E020E040E060E0E7
:104B400089E596E00E941F500F9108950F9300E0B1
:104B500020E040E060E08FE596E00E941F500F915A
:104B600008950E947C1E61E08AE00E94224D60E070
:104B700087E00E94224D61E089E00E94224D60E0C2
:104B800084E30E945B4D60E083E30E945B4D61E043
:104B900085E30E945B4D61E08AE00E945B4D60E02E
:104BA00089E00C945B4D0C94B1250F9300E020E05C
:104BB00040E060E085E696E00E941F500F91089566
:104BC00080919B0690E020919C06821B910908959C
:104BD00020919C0680919B06281750F4E22FF0E06C
:104BE000E356F94F808190E02F5F20939C06089553
:104BF0008FEF9FEF0895E0919C0680919B06E81748
:104C000030F4F0E0E356F94F808190E008958FEFA3
:104C10009FEF08950895CF92DF92EF92FF920F9346
:104C20001F93CF93DF937C01CB018A0120917706FC
:104C3000222389F0EB016B01C40ED51ECC15DD05D6
:104C400069F06991D701ED91FC910190F081E02D1F
:104C5000C7011995F3CF642F0E946C27C801DF911B
:104C6000CF911F910F91FF90EF90DF90CF9008951B
:104C7000CF93DF931F92CDB7DEB76983209177067C
:104C80002223D1F020917806203240F021E030E05C
:104C9000FC013383228380E090E015C08091790687
:104CA000E82FF0E0E658F94F998190838F5F809369
:104CB00079068093780605C061E0CE0101960E94D6
:104CC0006C2781E090E00F90DF91CF910895FC0177
:104CD0001382128248EE53E060E070E04483558313
:104CE0006683778387ED93E09183808308951092A4
:104CF0009C0610929B0610927906109278060C94EE
:104D0000B726862F413208F040E26DE976E00E9436
:104D1000D52610929C0680939B06089521E00C9462
:104D2000812681E08093770660939A061092790637
:104D30001092780608950C9491260F93062F21E087
:104D4000409178066AE776E080919A060E941927DA
:104D50001092790610927806109277060F910895B6
:104D600061E00C949D268BE696E00C9467261092E9
:104D70002A0781E0809328071092270761E084E1E9
:104D80000E945B4D61E085E10E945B4DE9EBF0E044
:104D900080818E7F808380818D7F808388E4809373
:104DA000B80085E48093BC000895413208F03FC00C
:104DB00090912A079111FCCF91E090932A072093BC
:104DC00028072FEF2093BD0610920207240F20938F
:104DD00001079093290790912907880F892B8093C9
:104DE000290780912707813041F41092270780918D
:104DF00029078093BB0085EC01C085EE8093BC0041
:104E000080912A078130E1F380910207841710F422
:104E10004091020723E037E0FB01D9018A2F821B72
:104E2000841718F48D918193F9CF842F089580E031
:104E300008950F93413208F046C090912A079111CE
:104E4000FCCF92E090932A07009328079FEF90935E
:104E5000BD061092020740930107FB0163E077E073
:104E6000DB019A2F961B941718F491919D93F9CF1B
:104E70001092290790912907880F892B8093290781
:104E800080912707813041F41092270780912907EC
:104E90008093BB0085EC01C085EE8093BC0022238B
:104EA00021F080912A078230E1F38091BD068F3F87
:104EB00061F08091BD06803251F08091BD06803353
:104EC00041F483E007C081E005C080E003C082E0D8
:104ED00001C084E00F910895613298F420912A076F
:104EE000243089F46093DF06FC0181EE96E0DC015A
:104EF0002A2F281B261718F421912D93F9CF80E033
:104F0000089581E0089582E0089585ED8093BC00C6
:104F10008091BC0084FDFCCF10922A07089585EC97
:104F20008093BC0010922A0708951F920F920FB62B
:104F30000F9211240BB60F922F933F934F935F93D1
:104F40006F937F938F939F93AF93BF93EF93FF9351
:104F50008091B900887F803609F49CC068F588325A
:104F600009F45BC090F4803109F454C038F488230C
:104F700009F4F5C0883009F44DC0F5C0883109F452
:104F80004CC0803209F45DC0EEC0803409F468C0C2
:104F900048F4803309F455C0883309F0E4C08093A5
:104FA000BD06A8C0803509F44FC0883509F45DC03E
:104FB000883409F0D8C0D5C0883909F4C6C0A8F42F
:104FC000883709F467C038F4883609F463C080373D
:104FD00009F460C0C8C0883809F4B7C0803909F442
:104FE0005FC0803809F0BFC05BC0803B09F485C05A
:104FF00038F4803A09F466C0883A09F47EC0B3C038
:10500000803C09F4A6C0883C09F4A3C0883B09F49D
:1050100089C0A9C08091290710C090910207809192
:105020000107981770F5E091020781E08E0F8093D9
:105030000207F0E0ED5FF84F80818093BB0085ECC4
:1050400085C08093BD068DC0E091020781E08E0F80
:10505000809302078091BB00F0E0ED5FF84F808302
:1050600090910207809101076DC0E091020781E0F5
:105070008E0F809302078091BB00F0E0ED5FF84F48
:1050800080838091280781116CC081E0809327077D
:1050900084EA60C083E080932A071092BE06CFCFD7
:1050A0008091BE06803208F050C0E091BE0681E0DB
:1050B0008E0F8093BE068091BB00F0E0E154F94F63
:1050C0008083BDCF8091BE06803230F4E091BE0671
:1050D000F0E0E154F94F10820E9485276091BE06EE
:1050E00070E0E0912307F09124078FEB96E019958B
:1050F0001092BE060E948F2736C084E080932A0754
:105100001092E0061092DF06E0912507F091260745
:1051100019958091DF06811105C081E08093DF063B
:105120001092E106E091E00681E08E0F8093E006A8
:10513000F0E0EF51F94F80818093BB009091E00641
:105140008091DF06981708F47ACF85E88093BC0039
:105150000AC085EC8093BC0010922A0704C010920C
:10516000BD060E948527FF91EF91BF91AF919F915E
:105170008F917F916F915F914F913F912F910F9000
:105180000BBE0F900FBE0F901F901895DC01169666
:10519000ED91FC9117979F012F5F3F4F17963C931E
:1051A0002E931697608381E090E00895E091F708D0
:1051B000F091F80819940F931F93CF93DF938C010C
:1051C00086E196E00E942D25A80160E08FE196E03F
:1051D0000E946E25C7E4D6E063EE73E08881998172
:1051E0000E94A3504AE050E0F801608188819981D3
:1051F0000E94645168E873E088819981DF91CF91C2
:105200001F910F910C94A350CF93C82F0E94C120DF
:1052100024E0C29FF0011124E259F84F60837183AA
:1052200082839383CF9108950F931F93CF93DF933E
:10523000C82F8B010E94C120EC2FF0E06F5F7F4FE1
:105240008F4F9F4FDF01AA0FBB1FAA0FBB1FED019E
:10525000C25DD74F688379838A839B83A259B84FF5
:105260000115110551F44EEF5FEF6FEF7FEF4D9396
:105270005D936D937C9313970DC0222717FD2095A6
:10528000322F060F171F281F391F0D931D932D93C3
:105290003C931397E25CF84F83E6808380910B097F
:1052A000886080930B09DF91CF911F910F91089532
:1052B000CF92DF92EF92FF920F931F9300912C07F2
:1052C00010912D0720912E0730912F070115110500
:1052D0002105310549F460932C0770932D078093C5
:1052E0002E0790932F071AC06B017C01C01AD10AB8
:1052F000E20AF30A970186010D33110521053105F4
:1053000068F060932C0770932D0780932E0790937D
:105310002F0780910C098F7080930C091F910F91BA
:10532000FF90EF90DF90CF900895CF92DF92EF92B1
:10533000FF920F931F93CF93DF936F5F7F4F8F4F3A
:105340009F4F50910909C0910B09411108C0C3FB3F
:10535000DD24D0F8AEE2B8E0EEE6F7E041C0C09060
:10536000AF02D12CE12CF12CC3FBCC27C0F9EEE627
:10537000F7E0AEE2B8E040E0451709F100811181A5
:10538000228133810115110521053105A1F06D93AD
:105390007D938D939C931397060F171F281F391F1A
:1053A0000083118322833383C901B8016C0D7D1DF5
:1053B0008E1D9F1DC1E04F5F34961496DDCF809106
:1053C0000B09C0FB83F935C0008111812281338133
:1053D000011511052105310531F44F5F14963496FE
:1053E0004513F2CF22C0C42FC695C695C695D0E00E
:1053F000CD5FD64FE880F12CC42FC77002C0F59462
:10540000E794CA95E2F7E0FCE8CF6D937D938D9326
:105410009C931397060F171F281F391F00831183B2
:1054200022833383DD24D394D8CF80910B09D0FA23
:1054300083F980930B09DF91CF911F910F91FF901A
:10544000EF90DF90CF900895AF92BF92CF92DF920E
:10545000EF92FF920F931F93CF93DF93CDB7DEB7F9
:105460000E851F85E888F9885E0122E1A20EB11C35
:10547000C7010196F7014491442309F4A3C04432C3
:1054800079F0D8011696ED91FC9117979F012F5F47
:105490003F4F17963C932E93169740837C01E8CF9D
:1054A000B2E0EB0EF11CFC0184918634F1F164F45E
:1054B0008434F9F0853409F068C0F5018081918168
:1054C000F2E0AF0EB11C49C0D80116964D915C9127
:1054D00017978C34E9F0833509F057C06501F2E085
:1054E000CF0ED11CD5016D917C91CA010E942F5421
:1054F0005AC06501B2E0CB0ED11CF80166817781FC
:105500004AE050E0D5018D919C910E9444544BC0DB
:105510006501B4E0CB0ED11CF501608171818281FF
:1055200093812AE00E9462543EC0F5010190F0810F
:10553000E02DB2E0AB0EB11C2491AF014F5F5F4F85
:10554000222309F495CFF801A681B781CD010196F8
:10555000978386832C93FA01EFCF6C01BFEFCB1AB0
:10556000DB0A0E949E54882309F482CFD801169644
:10557000ED91FC9117979F012F5F3F4F17963C933A
:105580002E9316978083C601E8CFD8011696ED9129
:10559000FC9117979F012F5F3F4F17963C932E93D7
:1055A0001697808365CFD8011696ED91FC911797D9
:1055B00001900020E9F731971796FC93EE93169728
:1055C000560156CFDF91CF911F910F91FF90EF9031
:1055D000DF90CF90BF90AF900895BF92CF92DF92AF
:1055E000EF92FF920F931F93CF93DF938091D70297
:1055F0001F928F938091B4021F928F9380910A091A
:105600001F928F9382E09BE09F938F938DE29BE0AC
:105610009F938F9383E498E09F938F9388E399E01F
:105620009F938F930E94242A2DB73EB7225F3F4F4E
:105630000FB6F8943EBF0FBE2DBFC0E7D3E0B12C2C
:105640000FE318E048E3E42E49E0F42E80910909C5
:10565000B81600F5CE010E949E54C82ED12CDC2C29
:10566000CC24CE0101960E949E549601280F311D34
:10567000C9019F932F931F930F93FF92EF920E9464
:10568000242AB39422960F900F900F900F900F90B2
:105690000F90DCCF81E398E09F938F93C8E3D9E02C
:1056A000DF93CF930E94242A82E198E09F938F9307
:1056B000DF93CF930E94242A8CE69BE09F938F93E5
:1056C0008CEE97E09F938F93DF93CF930E94242AD1
:1056D0002DB73EB7225F3F4F0FB6F8943EBF0FBEC7
:1056E0002DBF81E0DF91CF911F910F91FF90EF903F
:1056F000DF90CF90BF90089526E0FB01DC01019080
:105700000D922A95E1F70895CF93DF93F90150E0C8
:10571000EC01A881BA2FBF7D01F1AA30F1F051113F
:1057200016C0B081AB1310C0A181AA2311F031962D
:105730000CC0DC01119651E0EC0189818D3309F038
:1057400050E0F901CD0101C0F9010196E1CFDC0182
:10575000FB0150E0415051090EC05130C1F380E0CF
:1057600011C09A3071F0963261F0282F30E0241782
:1057700035073CF491938E2F861B9D91292F2F7D09
:1057800081F71082DF91CF9108958F929F92AF920F
:10579000BF92CF92DF92EF92FF920F931F93CF931E
:1057A000DF938C010E5F1F4FA0E4B9E0E0E0E80159
:1057B000888190ED980F9A3038F4E43029F0EF5F4B
:1057C0000F5F1F4F8D93F3CFF0E0E05CF64F108238
:1057D00080E499E00E94F953EC0197FF02C080E059
:1057E000ADC08091090990E08C179D07C4F3F801C2
:1057F00080818D33E9F5209791F380910B0984FF27
:10580000EECF21978181803321F48C2F0E940429CF
:105810001AC0813321F722E934E04FEF60E479E0E8
:10582000C80101960E94842B882341F080E499E00E
:105830000E94F953BC0197FF03C0D1CF60E070E034
:105840008C2F0E9414298DE29BE09F938F9380EB15
:1058500092E09F938F9388E399E09F938F930E94A8
:10586000242A0F900F900F900F900F900F9065C00B
:105870008DE29BE09F938F938DEA92E09F938F93AD
:1058800088E399E09F938F930E94242A0F900F90B2
:105890000F900F900F900F90209721F4C09009095E
:1058A000C0E002C0CC2EC150812C912CAC2EB12C6A
:1058B000D12CC7EAD2E008E319E06AEAE62E62E0FA
:1058C000F62E94012A0D3B1D2C153D05B4F5809153
:1058D0000B09982F93709130F1F49091C3029923A2
:1058E00011F082FD18C0F90153E0F595E7955A953E
:1058F000E1F7ED5FF64F808190E02770332702C01B
:10590000959587952A95E2F7817099279F938F93B4
:10591000FF92EF9204C01F921F92DF93CF931F93C9
:105920000F930E94242A0F900F900F900F900F90CA
:105930000F90EFEF8E1A9E0AC4CF81E0DF91CF91D6
:105940001F910F91FF90EF90DF90CF90BF90AF909D
:105950009F908F90089590ED980F9A3060F09FE996
:10596000980F963010F4875508959FEB980F963056
:1059700020F487530895892F089580E00895DF92D9
:10598000EF92FF920F931F93CF93DF93EC018C0163
:1059900088818823E1F08B32A1F0853299F48981E6
:1059A0000E94AB2CD82E7E0182E0E80EF11C8A8189
:1059B0000E94AB2C90E1D99E90011124822BE7012B
:1059C00001C080E2F80181938F012196E1CFF801B7
:1059D0001082DF91CF911F910F91FF90EF90DF9098
:1059E0000895EF92FF920F931F93CF93DF93C82FE9
:1059F000D0E02796F4E0CC0FDD1FFA95E1F7FB012C
:105A0000108A7B0100E010E0C8018C0F9D1F0E94EE
:105A10009E54F70181937F01882331F00F301105E7
:105A200019F00F5F1F4FF0CFDF91CF911F910F91B2
:105A3000FF90EF900895CF92DF92EF92FF920F9335
:105A40001F93CF93DF93C82FD0E02796A4E0CC0F0D
:105A5000DD1FAA95E1F7FB01108A7B0100E010E051
:105A60006701F70161917F01C8018C0F9D1F0E94A2
:105A7000834BF6018081882331F00F30110519F036
:105A80000F5F1F4FEDCFDF91CF911F910F91FF90CF
:105A9000EF90DF90CF9008950F931F93CF93DF93F4
:105AA0000DEF18E0C0EDD3E0F80161918F01CE0158
:105AB0000E94834B2196C63DF3E0DF07A9F7DF91F3
:105AC000CF911F910F9108950F931F93CF93DF9361
:105AD0000DEF18E0C0EDD3E0CE010E949E54F80116
